:100000000C943A010C9459010C9459010C94590127
:100010000C9459010C9459010C9459010C945901F8
:100020000C9459010C9459010C9459010C945901E8
:100030000C9459010C9459010C9459010C945901D8
:100040000C9459010C9459010C9459010C945901C8
:100050000C9459010C9459010C9459010C941921D8
:100060000C9459010C9459010C9459010C945901A8
:100070000C9459010C9459010C9459010C94590198
:100080000C9459010C9459010C9459010C94590188
:100090000C9459010C945901000000000000005F0D
:1000A00000000003000300143E143E14242A7F2A9B
:1000B000124333086661364955225000050300009B
:1000C000001C2241000041221C0014083E081408B4
:1000D000083E0808005030000008080808080060C2
:1000E00060000020100804023E5149453E00040211
:1000F0007F00426151494622414949361814127F16
:100100001027454545393E494949320101710907E2
:100110003649494936264949493E003636000000ED
:10012000563600000814224100141414141400411F
:1001300022140802015109063E4159555E7E090903
:10014000097E7F494949363E414141227F41414133
:100150003E7F494949417F090909013E4141493AE8
:100160007F0808087F00417F4100304040403F7FCA
:10017000081422417F404040407F020C027F7F02F2
:1001800004087F3E4141413E7F090909061E2121A5
:10019000215E7F09090976264949493201017F011B
:1001A000013F4040403F1F2040201F7F2010207F04
:1001B00041221C224107087008076151494543004C
:1001C0007F41000002040810200000417F0004026B
:1001D0000102044040404040000102040020545409
:1001E00054787F4444443838444444443844444474
:1001F0007F385454541804047E0505085454543C64
:100200007F0804047800447D40002040443D007F86
:100210001028440000417F40007C047804787C086A
:1002200004047838444444387C1414140808141422
:10023000147C007C080404485454542004043F44B3
:10024000443C4040207C1C2040201C3C4030403C32
:1002500044281028440C5050503C4464544C4400F2
:100260000836414100007F0000414136080002018C
:100270000204020011241FBECFEFD0E2DEBFCDBFCB
:1002800011E0A0E0B1E0E0E0F3E500E00BBF02C068
:1002900007900D92AA34B107D9F724E0AAE4B1E09F
:1002A00001C01D92AE31B207E1F70E9417270C94EE
:1002B0007E290C940000CF93DF939C01CB01BA01FF
:1002C000DC01F9014230510580F4AB014E7F240F6F
:1002D000351F840F951F6417750721F0FC0180817D
:1002E000F9018083DF91CF910895CD91DD91C19384
:1002F000D19342505109E6CF0F931F93CF93DF93D1
:10030000DC01EB018B01075F1F4F1E964D915D9144
:100310006D917C915197452B462B472BB1F152960D
:100320000D90BC91A02DAD0190E080E03EE20196E1
:10033000FA012191AF01203261F0253009F425EE58
:100340008930910519F4F80131938F01F801219357
:100350008F018B30910559F71B968C911B978887DD
:100360005C964D915D916D917C915F974883598327
:100370006A837B8358968D919C9159979D838C833A
:1003800056968D919C919F838E83F8011082DF9108
:10039000CF911F910F910895CF93DF93DC01ED91E1
:1003A000FC911197309769F0EF01CE01299121322C
:1003B00088F02A33D1F79F012F5F3F4F82179307B1
:1003C00019F08FEF9FEF08C020812033D1F70196FD
:1003D0008D939C9390E080E0DF91CF910895FC0194
:1003E000892BC9F0A081B1811097A9F08C91882345
:1003F00091F016962D913C91179782819381281741
:10040000390749F411968C910E940D1F80FF06C098
:1004100083E090E0089589E090E0089590E080E026
:1004200008954F925F926F927F92AF92BF92CF9258
:10043000DF92EF92FF920F931F93CF93DF93EC0124
:100440004AA45BA46CA47DA45C018EE2A80EB11C3E
:1004500001E010E0A3019201B50189810E9403200F
:100460007C01892BF1F51C828E8D9F8DA8A1B9A1ED
:10047000B301A201481B590B6A0B7B0B8E899F8924
:10048000A88DB98D481759076A077B0730F4CB80D0
:10049000D12C82E0C816D10480F4C701DF91CF913E
:1004A0001F910F91FF90EF90DF90CF90BF90AF9092
:1004B0007F906F905F904F9008958E899F89A88D4F
:1004C000B98D480E591E6A1E7B1E01E010E0A30183
:1004D0009201B50189810E94032081E0C81AD108E8
:1004E000D8CFEE24E394F12CD8CFFC01848188236B
:1004F00019F0CF010C94110290E080E00895CF92A2
:10050000DF92EF92FF920F931F93CF93DF93EC0153
:100510006A017B018AA59BA5ACA5BDA530E020E0C2
:100520008C159D05AE05BF05E9F0CE010E94750250
:100530009C01892BB9F401E010E0A7019601BE01EE
:10054000625D7F4F89810E94B81F9C01892B31F029
:1005500021E030E0CC24CA94DC2C7601CAA6DBA6CC
:10056000ECA6FDA6C901DF91CF911F910F91FF90DD
:10057000EF90DF90CF900895CF93DF93EC011C8232
:100580008FEF9FEFDC018AA79BA7ACA7BDA7CE0189
:100590000E947F02892B19F5FE01E45DFD4F8081E9
:1005A000918185359A4AF9F4E85CF1408081918126
:1005B000A281B381BB2786349144A445B10569F07B
:1005C000C058DF4F488159816A817B81772781E05C
:1005D000463451446445710519F480E001C083E05C
:1005E000DF91CF91089582E0FBCF2F923F924F92FF
:1005F0005F926F927F928F929F92AF92BF92CF92B3
:10060000DF92EF92FF920F931F93CF93DF93CDB7BB
:10061000DEB7A5970FB6F894DEBF0FBECDBF5C0165
:10062000CB01D42ED5011D921C920E94CC017C01DD
:100630003BE0232E312C97FD22C0FC01EE0FFF1F63
:10064000E45BFE4F008111812CE0222E312C01153C
:100650001105A9F0F50111830083D8018C9188233D
:1006600041F111968C910E940D1F80FD22C0DD206A
:1006700009F43AC282FF38C2AAE02A2E312CC10105
:10068000A5960FB6F894DEBF0FBECDBFDF91CF9118
:100690001F910F91FF90EF90DF90CF90BF90AF90A0
:1006A0009F908F907F906F905F904F903F902F9092
:1006B0000895F8011082E1828E2D0E94141F93E0AC
:1006C000292E312C80FDDBCFDD2011F082FDD4CF2F
:1006D00040E050E0BA01C8010E94BC02812C912C7C
:1006E0005401813009F0BFC1F801E051FE4F9E0175
:1006F0002F5F3F4F6901C801805D9D4FD901208167
:1007000040E050E0BA01222321F044815581668106
:1007100077814D935D936D937D9370968E179F07B0
:1007200071F7760130E1E30EF11CD6018D909D90BA
:10073000AD90BD906D0182E081149104A104B104DB
:1007400009F48DC1B501A401C8010E94BC02811148
:1007500086C1F80181AD92AD8115924009F089C141
:10076000F801EC5BFF4F808191812C01712C612C91
:10077000892B29F43E964080518062807380D80195
:1007800056964D925D926D927C925997DE964C9161
:10079000DE9713964C9313978FEF840F823008F0F7
:1007A00068C1DB96EC91DB97E98B1296EC9312977C
:1007B000EE2309F45EC12E2F30E0C90101978E238C
:1007C0009323892B09F055C1F801FF9620813181CF
:1007D0003B8B2A8B19963C932E9318971901BFE0F7
:1007E0002B2233242114310409F043C13296808135
:1007F00091816C01F12CE12C892B29F43D96C0806C
:10080000D180E280F380D801DC96ED91FC913097A5
:1008100009F42FC1A42FB0E0A30192010E945B272D
:100820006AA37BA38CA39DA39F0150E040E02A8F85
:100830003B8F4C8F5D8F8A899B89E4E096958795E5
:10084000EA95E1F7280F391F411D511DDA01C90151
:100850002AA13BA14CA15DA1280F391F4A1F5B1F94
:100860002E8B3F8B488F598FC216D306E406F506B0
:1008700008F4FFC0D701C601821B930BA40BB50B74
:100880008E8F9F8FA8A3B9A3E989CE2ED12CF12CEE
:10089000E12CBC01CD01A70196010E9432278E8D6B
:1008A0009F8DA8A1B9A18C159D05AE05BF0508F4C3
:1008B000E0C0263F9FE039074105510508F4DDC03F
:1008C000263FAFEF3A074105510508F4D9C0B3E020
:1008D000B98B69017A0182E0C80ED11CE11CF11CC0
:1008E000D8015296CD92DD92ED92FC925597F80187
:1008F000828E938EA48EB58E8A8D9B8DAC8DBD8D90
:10090000880D991DAA1DBB1D868F978FA0A3B1A32B
:100910004E895F89688D798D480D591D6A1D7B1D33
:1009200046A357A360A771A7F9892A893B89F330A9
:1009300009F0A9C0232B09F09CC0F801E65AFF4F2B
:1009400080819181A281B381F80182A393A3A4A3A2
:10095000B5A372E0CC0CDD1CEE1CFF1C7A95D1F720
:100960003FEFC30E31E0D31EE11CF11C49E0F694C9
:10097000E794D794C7944A95D1F74C145D046E045C
:100980007F0408F476C08FEF9FEFDC01F8018687C3
:100990009787A08BB18B82879387A487B58780E8E0
:1009A0008583F989F33009F049C0F801E25AFF4F15
:1009B00080819181019709F041C0B501A4014F5F89
:1009C0005F4F6F4F7F4FC8010E947F02892BB1F5A7
:1009D000D80115961C92F801E45DFD4F808191814C
:1009E00085359A4A59F5F80186A597A5A0A9B1A918
:1009F00082359245A146B14409F5F801EE5EFD4FFE
:100A000080819181A281B38182379247A144B1460E
:100A1000A9F4349680819181A281B381F8018687FF
:100A20009787A08BB18BE65EFD4F80819181A2817B
:100A3000B381F80182879387A487B587E989D801B4
:100A4000EC9380914A0190914B01019690934B0158
:100A500080934A0117969C938E93169710CEEC14B0
:100A6000FD0409F062CE833009F441C0882309F403
:100A700070CEFDE02F2E312C02CEE1E0E98B29CFA4
:100A8000F2E0F98B26CF232BA1F32AA13BA14CA1A5
:100A90005DA1820F931FA41FB51FF80182A393A32A
:100AA000A4A3B5A3F989F23029F4CC0CDD1CEE1C0B
:100AB000FF1C56CFA3E0B0E0A70196010E945B2780
:100AC0006A8B7B8B8C8B9D8BDC01CB01B695A795BC
:100AD0009795879521E0C222DD24EE24FF24C80EDD
:100AE000D91EEA1EFB1E3CCF312C212CC8CD22245E
:100AF0002394312CC4CD0F931F93CF93DF93EC013C
:100B00000E947502009709F05CC08881833009F06B
:100B10004BC08D81813009F047C0BE01625D7F4FBF
:100B20009E01225D3D4FCB012817390709F04EC0C9
:100B300085E59AEAFE01E45DFD4F9183808382E5BD
:100B400092E5A1E6B1E48EA79FA7A8ABB9AB82E777
:100B500092E7A1E4B1E67A9780839183A283B3837D
:100B60008E859F85A889B989349680839183A283D5
:100B7000B3838A859B85AC85BD85349680839183BC
:100B8000A283B3832A8D3B8D4C8D5D8D2F5F3F4FAC
:100B90004F4F5F4F2AA73BA74CA75DA701E010E08E
:100BA00089810E9403201D8250E040E060E089813D
:100BB0000E94702031E020E0892B09F430E0832F7F
:100BC000922FDF91CF911F910F910895FC01119207
:100BD000CF01AACFCF93DF9300D000D0CDB7DEB73F
:100BE000FC019A01AB012250310941095109828966
:100BF0009389A489B5890297A109B10928173907F2
:100C00004A075B0718F5A281B0E00E945B27698361
:100C10007A838B839C8386A197A1A0A5B1A5298106
:100C20003A814B815C81280F391F4A1F5B1F298342
:100C30003A834B835C8369817A818B819C810F909D
:100C40000F900F900F90DF91CF91089519821A8223
:100C50001B821C82F0CFAF92BF92CF92DF92EF92B5
:100C6000FF920F931F93CF93DF938C016A017B0157
:100C700082E0C816D104E104F10408F4B4C0F8011C
:100C800082899389A489B589C816D906EA06FB0624
:100C900008F0A9C08081823009F458C0833009F47B
:100CA00077C0813009F09FC0EA01D695C795C40F7F
:100CB000D51FCE01892F99278695468D578D60A126
:100CC00071A1480F591F611D711DC8010E947F024B
:100CD000892B71F06FEF7FEFCB01DF91CF911F91E7
:100CE0000F91FF90EF90DF90CF90BF90AF9008955D
:100CF0005E01FFEFAF1ABF0AD170C00FD11FCEA5A2
:100D0000C501892F99278695F801468D578D60A1D9
:100D100071A1480F591F611D711DC8010E947F02FA
:100D2000892BC1F6F1E0BF220A0D1B1DF80186A533
:100D3000782F6C2FC0FE08C054E0769567955A95C1
:100D4000E1F790E080E0C9CF7F70FBCF77276F2D70
:100D50005E2D4D2D868D978DA0A1B1A1480F591FF5
:100D60006A1F7B1FC8010E947F02892B09F0B2CF46
:100D7000CC0CDD1CEE1CFF1CE894C0F8F1E0DF2277
:100D8000EE24FF24C00ED11EF60166A577A5D9CFAB
:100D9000868D978DA0A1B1A127E07695679557958F
:100DA00047952A95D1F7480F591F6A1F7B1FC80125
:100DB0000E947F02892B09F08DCF82E0CC0CDD1CD4
:100DC000EE1CFF1C8A95D1F7FCEFCF22F1E0DF2269
:100DD000EE24FF24C00ED11EF60166A577A580A9DA
:100DE00091A99F707ACF61E070E080E090E075CFCC
:100DF000AF92BF92CF92DF92EF92FF920F931F9329
:100E0000CF93DF938C01EB01DC0115967C936E93FD
:100E100014971696CD90DD90ED90FC901997B1E067
:100E2000CB16D104E104F10469F482E090E0DF9193
:100E3000CF911F910F91FF90EF90DF90CF90BF90D7
:100E4000AF900895DC01ED91FC9182899389A4898A
:100E5000B589C816D906EA06FB0638F7C114D104CD
:100E6000E104F10409F042C08081833041F482A1A1
:100E700093A1A4A1B5A10097A105B105A9F580850D
:100E80009185C817D90788F642A153A164A175A11D
:100E9000D8011A96CD92DD92ED92FC921D974115E4
:100EA00051056105710509F2CE0124E096958795FB
:100EB0002A95E1F7480F591F611D711DF8014687FA
:100EC0005787608B718B808191818E96CF70DD27E3
:100ED00035E0CC0FDD1F3A95E1F7C80FD91FD38B52
:100EE000C28B90E080E0A3CF6C017D01A280B0E1D5
:100EF000AB9E50011124F80180819181B701A601B8
:100F0000CA15DB0530F40E94EA05462F572FBC01B5
:100F1000BFCF0E942B066B017C01EFEFCE16DE06E1
:100F2000EE06FE06B9F0F2E0CF16D104E104F104BA
:100F300008F47BCFD801ED91FC9182899389A48933
:100F4000B589C816D906EA06FB0608F06ECFCA199D
:100F5000DB09D1CF81E090E06ACFCF93DF93EC0142
:100F60006C817D810E94F8069C01892BD9F44E8505
:100F70005F8568897989888199810E947F029C01B7
:100F8000892B81F48A899B89AC01405E5F4F4817A9
:100F9000590761F4EA89FB8985EE8083E881F9814C
:100FA00081E08483C901DF91CF910895FC01119202
:100FB000CF01EDCF2F923F924F925F926F927F922F
:100FC0008F929F92AF92BF92CF92DF92EF92FF9259
:100FD0000F931F93CF93DF93EC016A017B014801CC
:100FE000590182E0C816D104E104F10408F4E4C018
:100FF0008A899B89AC89BD89C816D906EA06FB0691
:1010000008F0DAC08881823009F47AC0833009F4AC
:1010100099C0813009F0D0C08A0116950795040F58
:10102000151FC801892F992786954E8D5F8D68A160
:1010300079A1480F591F611D711DCE010E947F02C9
:101040009C01892B09F041C018019FEF291A390A28
:101050001170882DFE01E00FF11F2601370191E08C
:101060004922552466247724C0FE07C086A58F70C8
:1010700090E1899E90011124822B86A781E08C83C8
:101080004E8D5F8D68A179A1C101892F9927869521
:10109000480F591F611D711DCE010E947F029C01E6
:1010A000892B99F4E1E03E22FE01E20DF31D452873
:1010B00046284728F1F064E0B694A7949794879463
:1010C0006A95D1F786A681E08C83C901DF91CF9123
:1010D0001F910F91FF90EF90DF90CF90BF90AF9056
:1010E0009F908F907F906F905F904F903F902F9048
:1010F000089586A5807F992D9F70892E882AE2CF3A
:1011000077276F2D5E2D4D2D8E8D9F8DA8A1B9A1B6
:10111000480F591F6A1F7B1FCE010E947F029C014E
:10112000892B99F6CC0CDD1CEE1CFF1CE894C0F852
:10113000E1E0DE22EE24FF24CC0EDD1EF60117A72F
:1011400006A7C1CF8E8D9F8DA8A1B9A127E0769566
:101150006795579547952A95D1F7480F591F6A1FEC
:101160007B1FCE010E947F029C01892B09F0ADCF2D
:1011700082E0CC0CDD1CEE1CFF1C8A95D1F7FCEF45
:10118000CF22F1E0DF22EE24FF248EE2C80ED11C34
:10119000FE01EC0DFD1D80819181A281B381882724
:1011A0009927AA27B07F802B9929AA29BB29808358
:1011B0009183A283B38387CF22E030E086CF4F9222
:1011C0005F926F927F928F929F92AF92BF92CF92D7
:1011D000DF92EF92FF920F931F93CF93DF93EC0177
:1011E0004A015B0181149104A104B104B9F44A8459
:1011F0005B846C847D84411451046104710449F062
:101200008A899B89AC89BD89481659066A067B067E
:10121000C0F1412C512C3201439433C00E942B0663
:101220006B017C0122E0C216D104E104F104B8F4A0
:10123000C12CD12C7601C394C701B601DF91CF91A7
:101240001F910F91FF90EF90DF90CF90BF90AF90E4
:101250009F908F907F906F905F904F9008958FEF49
:10126000C816D806E806F80609F483C08A899B895F
:10127000AC89BD8924013501C816D906EA06FB06EA
:10128000D8F2730162012FEFC21AD20AE20AF20AFF
:101290008A899B89AC89BD89C816D906EA06FB06EE
:1012A00078F082E0481651046104710420F4C12CE6
:1012B000D12C7601C1CF92E0C92ED12CE12CF12C9A
:1012C000B701A601CE010E942B06462F572FBC0165
:1012D000411551056105710599F04F3F2FEF5207F8
:1012E0006207720709F445C0413051056105710577
:1012F00009F49ECFC414D504E604F70421F6D7CF31
:101300000FEF1FEF2FEF3FE0B701A601CE010E94C4
:10131000DA079C01892B49F581149104A104B104D9
:10132000D1F4CA86DB86EC86FD868E859F85A889EA
:10133000B9898F3F2FEF9207A207B20709F47CCF3C
:101340000197A109B1098E879F87A88BB98B8D81E1
:1013500081608D8371CF97018601B501A401CE0113
:101360000E94DA079C01892BE1F22130310509F056
:101370005FCFCC24CA94DC2C76015ECF4F925F9273
:101380006F927F92AF92BF92CF92DF92EF92FF92D5
:101390000F931F93CF93DF93EC017B010C811D8191
:1013A0000F5F1F4F89F484E090E0DF91CF911F9190
:1013B0000F91FF90EF90DF90CF90BF90AF907F9014
:1013C0006F905F904F9008954E855F856889798909
:1013D000411551056105710531F368018FE0C8229F
:1013E000DD24C114D104D1F4888199814F5F5F4F0E
:1013F0006F4F7F4F4E875F87688B798B4A855B8500
:101400006C857D854115510561057105C1F4DC01CF
:1014100018968D919C910817190728F61D830C8347
:10142000888199818E9625E0CC0CDD1C2A95E1F708
:10143000C80ED91EDB8ACA8A90E080E0B6CFFC01D4
:1014400022812150330BF801A4E0F695E795AA9587
:10145000E1F72E233F23232B09F70E942B062B01B4
:101460003C01F2E04F1651046104710418F482E06B
:1014700090E09BCF8FEF481658066806780619F45F
:1014800081E090E092CF88819981DC0152964D9164
:101490005D916D917C9155974416550666067706C9
:1014A00008F450C0EF2809F47ECF4A855B856C852F
:1014B0007D850E94DF082B013C0187E090E041140C
:1014C00051046104710409F470CFB1E04B1651046A
:1014D0006104710461F2EFEF4E165E066E067E0641
:1014E00079F2888199810E9475027C01892B41F6ED
:1014F00028813981C9018E96225D3D4F821793075D
:1015000081F5A880B980B301A201C5010E94EA0556
:10151000F50162A773A784A795A7BB24B394E881BC
:10152000F98182818E151F0409F0F8F482A593A534
:10153000A4A5B5A58E199F09A109B10982A793A7F2
:10154000A4A7B5A74A865B866C867D86B301A201F7
:10155000888199810E94EA056E877F87888B998BA5
:101560005DCFDC011D92CD01C9CFB4828881998104
:101570000E947502892B09F083CFE881F98182A549
:1015800093A5A4A5B5A50196A11DB11D82A793A7FA
:10159000A4A7B5A7FFEFEF1AFF0AC1CF8F929F92C2
:1015A000AF92BF92CF92DF92EF92FF920F931F9371
:1015B000CF93DF93EC018B01DB018C918F3211F023
:1015C0008C3511F40F5F1F4F1E821F8218861986FB
:1015D000F801808130E2F32E45E0E42E803208F0FD
:1015E000C5C070E060E0CE010E94F8069C011B8A35
:1015F0001A8AC901DF91CF911F910F91FF90EF904F
:10160000DF90CF90BF90AF909F908F900895DC01B6
:10161000FD92CD01BAC0CB2CD12C6DE271E0DB0183
:101620004D91BD01442349F0042E000C550BC41606
:10163000D506A9F726E030E0DCCF4FEB4B0D4A3161
:1016400048F46894A1F8AF01480F591FDA01BC9221
:101650000196FEC04FE94B0D4A31A8F76894A0F8F7
:10166000B0EEBB0EF0CF080D191DB0E240E0BB1587
:1016700008F044E0892BF1F28081853E09F4E08294
:1016800028303105B9F5AA0CAA0C8A2D8C7084304B
:1016900009F44860438770E060E0CE010E94F806DC
:1016A0009C01892B91F54E855F85688979898881B0
:1016B00099810E947F029C01892B39F5EA89FB8977
:1016C0008081882301F1838583FD0EC09C898D89EB
:1016D000AF01455F5F4FE417F507B9F0A92FB82FA9
:1016E00091918D91981761F070E060E0CE010E94B9
:1016F000BE09D6CF8A2D8370813039F64061C5CFBF
:101700009A2F8B2FE8CF24E030E0EC89FD89838588
:101710002115310549F02430310509F06ACF82FDE9
:1017200068CF25E030E065CF82FD63CF4A895B89D1
:10173000FA01838584FFF5CF828D938DB0E0A0E020
:1017400028813981F9012081233061F4FA0144892B
:10175000558970E060E0BA0155274427842B952B0A
:10176000A62BB72B8E839F83A887B9874801D80102
:101770008C910F5F1F4F8F32C9F38C35B9F3EC8911
:10178000FD899F01255F3F4FCF018217930709F025
:101790003ECF90E080E050E040E028E030E0A12C37
:1017A0008A010F5F1F4FB401640F751FDB01BC90EE
:1017B000B0E2BB1508F057CF6FE2B61609F453CF6D
:1017C000ACE5BA1609F44FCFBEE2BB16B9F18217E9
:1017D000930708F02FCFB7FE03C06A2D6360A62ED3
:1017E0006FE76B0D6F3128F060E26B0D6D3108F023
:1017F00012CF4E5F5F4F080D191DD8011C9160EC90
:10180000610F6F3328F060E8610F6D3708F012CF79
:10181000B901615071098617970708F00BCFBF0116
:10182000680F791FDB01BC92BC016F5F7F4F6E0FA9
:101830007F1F0296DB011C938A010AC02830310504
:1018400009F0F8CEAA0CAA0C88E090E02BE030E07A
:10185000A801A6CFCF93DF93EC0124E030E04E85C2
:101860005F8568897989411551056105710521F404
:1018700021153105C1F025C0888199810E947F0220
:101880009C01892BF1F4EA89FB8980818823F1F09E
:10189000853E79F08E3269F083858F738F3049F001
:1018A0008F71883031F030E020E0C901DF91CF91B5
:1018B000089570E060E0CE010E94BE099C01892B72
:1018C00071F21E861F86188A198AEFCF24E030E055
:1018D000F8CF0F931F93CF93DF938C0170E060E0FC
:1018E0000E94F806EC01892B09F04FC0D8011E9622
:1018F0004D915D916D917C9151978D919C910E943C
:101900007F02EC01892B09F040C0D8015296ED917D
:10191000FC918081853E69F5F8014685578560898F
:101920007189808191810E947F02EC01892BD9F419
:10193000D80152968D919C919C01205E3F4F821759
:101940009307F9F4D80154966D917C9155974BE02B
:1019500050E052968D919C910E945B01D801ED91CF
:10196000FC9181E08483CE01DF91CF911F910F9193
:101970000895882389F261E070E0C8010E94BE09E1
:10198000B1CFFC011192CF01DACFC430D10559F7A4
:10199000C7E0D0E0E8CF8F929F92AF92BF92CF92F4
:1019A000DF92EF92FF920F931F93CF93DF93EC019F
:1019B0006A017B0122E0C216D104E104F10408F4BB
:1019C0005CC08A899B89AC89BD89C816D906EA069C
:1019D000FB0608F052C046015701B701A601CE012F
:1019E0000E942B066B017C01C114D104E104F104B7
:1019F00079F490E080E0DF91CF911F910F91FF90FB
:101A0000EF90DF90CF90BF90AF909F908F90089510
:101A100081E0C816D104E104F10479F12FEFC21678
:101A2000D206E206F20661F100E010E09801A4019E
:101A3000B501CE010E94DA070097E9F68E859F85F1
:101A4000A889B9898F3F2FEF9207A207B20751F0FB
:101A50000196A11DB11D8E879F87A88BB98B8D81A3
:101A600081608D838A899B89AC89BD89C816D90616
:101A7000EA06FB0608F4AFCFBCCF82E090E0BBCF14
:101A800081E090E0B8CF1F93CF93DF9300D000D0D8
:101A900000D0CDB7DEB79C838B837E836D83142FFC
:101AA0007A836983CE0101960E94CC019C0197FD47
:101AB0002DC0220F331FF901E45BFE4F0190F0812E
:101AC000E02D309709F01082EB81FC81309709F00E
:101AD00010828B819C81245B3E4FF901918380832E
:101AE000892BB9F01130A9F440E0BE016B5F7F4F44
:101AF000CE0103960E94F50226960FB6F894DEBF3B
:101B00000FBECDBFDF91CF911F9108958BE090E084
:101B1000F3CF80E0FCCF4F925F926F927F928F92D3
:101B20009F92AF92BF92DF92EF92FF920F931F931B
:101B3000CF93DF93CDB7DEB7A4970FB6F894DEBF8F
:101B40000FBECDBF7C017CA36BA3B42E29E030E097
:101B50000097C9F1DC011D921C924E71BE016D5DB2
:101B60007F4FCE0101960E94F5029C01892B59F509
:101B7000CE0147969E8B8D8B6BA17CA146970E94D0
:101B8000CE0A9C010B891C89892B29F401151105AA
:101B900011F426E030E0BB2DBF71DB2E8B2D8C7154
:101BA00009F4DCC02115310529F12430310559F43F
:101BB000CE0101960E94690C9C016894D3F80B89B0
:101BC0001C89892B11F1C901A4960FB6F894DEBFC8
:101BD0000FBECDBFDF91CF911F910F91FF90EF907E
:101BE000DF90BF90AF909F908F907F906F905F90AD
:101BF0004F900895F8018385817109F0BEC028E0F7
:101C000030E0B2FCE0CFB3FE57C080E090E0A9E640
:101C1000B5E4F80186879787A08BB18B1386D8012E
:101C2000148E158E168E178EE981FA815A968D9034
:101C30009C905B97B12CA12C8081833061F45496E9
:101C40004D915C9170E060E0BA0155274427842AE9
:101C5000952AA62AB72AD8015B961C921E925A97FB
:101C600055961C921E92549781E0848381149104AE
:101C7000A104B10409F142A453A464A475A4B5015C
:101C8000A401CF010E94CB0C9C01892B09F09BCFB2
:101C900089819A81B1E08B1A9108A108B108FC01F1
:101CA00082869386A486B586B301A2010E947F0234
:101CB0009C01892B09F087CFD3FE02C06894D5F828
:101CC000A980BA80F50142A553A564A575A5D701E1
:101CD0005A964D935D936D937C935D975F961C939D
:101CE0000E935E971496DC92149715961C92F80149
:101CF000828D938DB0E0A0E0F5012081233061F466
:101D0000F8014489558970E060E0BA0155274427FD
:101D1000842B952BA62BB72BF70186879787A08B53
:101D2000B18BF801848D958DA68DB78DF7018287D3
:101D30009387A487B5871682178210861186168A24
:101D4000178A108E118EB182A082D50116968D91C0
:101D50009C919383828330E020E035CF21153105BB
:101D600009F031CFD8011B968C9124E030E084FD3E
:101D70002ACFB1FEA1CF80FF9FCF27E030E023CF55
:101D80002F923F924F925F926F927F928F929F928B
:101D9000AF92BF92CF92DF92EF92FF920F931F9379
:101DA000CF93DF93EC015B016A011901F901118204
:101DB00010820E94EF017C01892B09F051C0ED8057
:101DC000F12CE1104DC08C8180FF19C18A859B8563
:101DD000AC85BD854E815F8168857985841B950BB7
:101DE000A60BB70BA60170E060E084179507A60765
:101DF000B70708F46C017601E114F10489F14E8112
:101E00005F8168857985DB01CA019170AA27BB27AC
:101E1000892B8A2B8B2B09F0CAC0E881F98182813A
:101E200081502A013B01A9E0769467945794479426
:101E3000AA95D1F7182F142109F041C0452B462B44
:101E4000472B11F54E855F856889798942305105A8
:101E50006105710520F582E08D8352E0E52EF12CBD
:101E6000C701DF91CF911F910F91FF90EF90DF900D
:101E7000CF90BF90AF909F908F907F906F905F902A
:101E80004F903F902F9008954A895B896C897D8996
:101E9000CF010E942B06462F572FBC01D7CF4F3FB3
:101EA000FFEF5F076F077F0731F481E08D83EE243A
:101EB000E394F12CD5CF4A8B5B8B6C8B7D8B888028
:101EC00099804A895B896C897D89C4010E94EA05F1
:101ED0002B013C01411451046104710409F4BBCF8E
:101EE000410E511C611C711CE11422E0F20608F441
:101EF0005AC06701CD2CDD24C694F4016281812F84
:101F000090E0AC014C0D5D1D262F30E064171506E6
:101F100018F46901C81AD90A8601A3019201B50112
:101F2000F40181810E94B81F892B09F0BECFE8819E
:101F3000F98184818823E1F082A593A5A4A5B5A5A4
:101F400084199509A609B709A60170E060E0841715
:101F50009507A607B70760F4BF01625D7F4F982F12
:101F60008827990F40E052E08A0D9B1D0E945B017B
:101F7000DC2CCC24DD0CAC0CBD1C8E819F81A88593
:101F8000B9858C0D9D1DA11DB11D8E839F83A887D2
:101F9000B987F101808191818C0D9D1D9183808392
:101FA000EC18FD0829CF4E8A5F8A688E798E8E8163
:101FB0009F81917020E032E0281B390B67012E15BC
:101FC0003F0508F469014E895F89688D798D8881A4
:101FD00099810E947F02892B09F067CF8E819F81B2
:101FE000A885B9859170AA27BB278E9668817981CB
:101FF000680F791FA601C5010E945B01BCCF87E075
:10200000E82EF12C2DCF2F923F924F925F926F923C
:102010007F928F929F92AF92BF92CF92DF92EF9278
:10202000FF920F931F93CF93DF9300D000D0CDB7D3
:10203000DEB78B839C835B017A0129833A83A98174
:10204000BA811D921C928B819C810E94EF016C01D0
:10205000892B39F4EB81FC8185818823D1F0C82E4E
:10206000D12CC6010F900F900F900F90DF91CF9160
:102070001F910F91FF90EF90DF90CF90BF90AF90A6
:102080009F908F907F906F905F904F903F902F9098
:102090000895AB81BC8114968C91149781FFA0C1E7
:1020A00016968D919D910D90BC91A02DAC01BD0116
:1020B0004E0D5F1D611D711D481759076A077B078B
:1020C00008F0D9C0EB81FC8186819781A085B1851C
:1020D0004285538564857585481759076A077B07CC
:1020E00008F477C1AB81BC8114968C9114978062FF
:1020F00014968C93B6CFAB81BC8152964D915D9175
:102100006D917C915597F2C04F3FFFEF5F076F07CE
:102110007F0749F481E0AB81BC8115968C93CC2478
:10212000C394D12C9ECFEB81FC81428B538B648B6B
:10213000758B86859785A089B189892B8A2B8B2BF6
:1021400021F446875787608B718BEB81FC818081FE
:102150009181DC019A964D905D906D907C909D9759
:1021600046895789608D718D441655066606770637
:1021700021F40E947502892B69F6EB81FC81208095
:1021800031804289538964897589C1010E94EA05B9
:102190002B013C01411451046104710409F4B7C0DE
:1021A000410E511C611C711CE114F2E0FF0608F4A1
:1021B000B6C04701892C99248694D10112966C915E
:1021C000812F90E0AC01480D591D262F30E0641797
:1021D000150618F44901881A990A8401A30192018D
:1021E000B501F10181810E940320892B09F092CF72
:1021F000AB81BC818D919C91FC0142A553A564A546
:1022000075A544195509660977092401712C612CBB
:10221000441555056605770580F4542F4427550F5E
:10222000B501640F751F40E052E08E960E945B017D
:10223000AB81BC81ED91FC911482982C8824990C7F
:10224000A80CB91CEB81FC8186819781A085B185A2
:10225000880D991DA11DB11D86839783A087B18725
:10226000A981BA818D919C911197880D991D8D93AB
:102270009C93E818F908EB81FC81468157816085C1
:102280007185E114F10409F41DCFDB01CA019170DD
:10229000AA27BB27892B8A2B8B2B09F063C0AB8124
:1022A000BC818D919C911197FC01128111502A01E2
:1022B0003B01E9E07694679457944794EA95D1F707
:1022C000142109F042CF452B462B472B09F013CFA1
:1022D0001E964D915D916D917C91519741155105DF
:1022E0006105710571F440E050E0BA010E94DF0819
:1022F000462F572FBC01411551056105710509F4A1
:10230000E1CE413051056105710509F0FDCE82E055
:10231000EB81FC81858352E0C52ED12CA2CEEB81CE
:10232000FC81468157816085718582859385A4856E
:10233000B585481759076A077B0770F0C1010E94ED
:102340007502892B09F0E6CEAB81BC81ED91FC9141
:1023500042A653A664A675A6EB81FC81468A578ADD
:10236000608E718EAB81BC8116968D919C9191701F
:10237000E0E0F2E0E81BF90B4701EE15FF0508F479
:102380004F01AB81BC8156964D915D916D917C91D1
:1023900059978D919C910E947F02892B09F0BACEAA
:1023A000EB81FC8186819781A085B1859170AA27F8
:1023B000BB278E9620813181A401B501820F931F26
:1023C0000E945B01AB81BC81ED91FC91B1E0B483D3
:1023D00037CFEB81FC8182879387A487B58782CE34
:1023E00087E0C82ED12C3DCEEF92FF920F931F9322
:1023F000CF93DF9300D0CDB7DEB78C01FC01828193
:10240000938197FD2DC07C01FFEFEF1AFF0A800F2B
:10241000911FFC016683FDE3EF16F104CCF09E01F1
:102420002F5F3F4FA701B8016A5F7F4FF80180819E
:1024300091810E94031081E090E029813A812E155C
:102440003F0511F490E080E0EE24FF24E81AF90A39
:10245000F801F382E28284819581019695838483D9
:102460000F900F90DF91CF911F910F91FF90EF9000
:102470000895CF93DF93EC010E94EF019C01892B1B
:10248000D1F58C8185FF37C04A8D5B8D6C8D7D8D3C
:10249000888199810E947F029C01892B61F5EE8DD4
:1024A000FF8D8385806283878A859B85AC85BD850A
:1024B000848F958FA68FB78F8E859F85A889B989C0
:1024C000938F828FB58BA48B80E090E0A9E6B5E472
:1024D000868B978BA08FB18F138A128A8C818F7D08
:1024E0008C83E881F98181E0848388819981DF91FF
:1024F000CF910C947B05C901DF91CF910895CF93C3
:10250000DF93EC010E9439129C01892B41F4CE012A
:102510000E94EF019C01892B11F419821882C901D4
:10252000DF91CF9108952F923F924F925F926F92D9
:102530007F928F929F92AF92BF92CF92DF92EF9253
:10254000FF920F931F93CF93DF93CDB7DEB72A97F8
:102550000FB6F894DEBF0FBECDBF89879A876A0198
:102560007B0189859A850E94EF018C01892B41F4BA
:10257000A985BA8515968C918823E1F0082F10E083
:10258000C8012A960FB6F894DEBF0FBECDBFDF910B
:10259000CF911F910F91FF90EF90DF90CF90BF9060
:1025A000AF909F908F907F906F905F904F903F90F3
:1025B0002F900895E985FA8582859385A485B58550
:1025C0008C159D05AE05BF0528F4248121FD02C0B0
:1025D0006C017D01E985FA8586819781A085B185A9
:1025E0001682178210861186C114D104E104F10409
:1025F00099F5C12CD12C7601E985FA8586819781E0
:10260000A085B185AC01BD01517066277727452BA8
:10261000462B472B69F046895789608D718D4C1583
:102620005D056E057F0521F0C68AD78AE08EF18EA2
:10263000E985FA854285538564857585481759076C
:102640006A077B0708F09CCF82879387A487B587AA
:1026500084818062848394CFE985FA8520803180EB
:10266000F1018280912CB12CA12C29E0880C991CBD
:10267000AA1CBB1C2A95D1F70097A105B10509F446
:1026800082C09C01AD0121503109410951092983C2
:102690003A834B835C83D701C6010197A109B10935
:1026A0008D839E83AF83B887BC01CD01A5019401C2
:1026B0000E94322729013A0169817A818B819C81AC
:1026C000A50194010E94322742165306640675063E
:1026D00008F459C088279927DC0188199909AA09A3
:1026E000BB0929813A814B815C8182239323A423F6
:1026F000B523E985FA8586839783A087B187C81AB1
:10270000D90AEA0AFB0A4289538964897589411505
:1027100051056105710509F46CCF8C149D04AE045C
:10272000BF0408F46FC0E985FA8586819781A0858A
:10273000B1858C0D9D1DAE1DBF1D86839783A0871F
:10274000B187D701C6019170AA27BB27892B8A2B95
:102750008B2B09F44ECF808191810E94EA05462F90
:10276000572FBC01411551056105710539F189E00B
:10277000F694E794D794C7948A95D1F7C40ED51EE2
:10278000E61EF71E39CFA985BA851E964D915D913B
:102790006D917C915197411551056105710549F580
:1027A00040E050E0BA01C1010E94DF08462F572FD8
:1027B000BC01413051056105710539F482E0E985BC
:1027C000FA85858302E010E0DBCE4F3FFFEF5F0725
:1027D0006F077F0741F481E0A985BA8515968C9330
:1027E00001E010E0CDCEE985FA8546875787608BFA
:1027F000718BA985BA8552964D935D936D937C93A9
:10280000559785CFE985FA8580819181248121FFC3
:102810000DC00E94DF08462F572FBC0141155105FE
:102820006105710541F4750164017DCF0E942B069D
:10283000462F572FBC014F3FFFEF5F076F077F0702
:1028400051F2423051056105710508F4B7CFA985F1
:10285000BA85ED91FC9182899389A489B58948173D
:1028600059076A077B0708F0A9CFE985FA85428BEB
:10287000538B648B758B86819781A085B185880D7C
:10288000991DAA1DBB1D86839783A087B187C81891
:10289000D908EA08FB0841CF0F931F93CF93DF932A
:1028A000CDB7DEB760970FB6F894DEBF0FBECDBFD1
:1028B0008C01788B6F8729E030E0892B09F461C0A7
:1028C00040E0BE01615F7F4FCE010D960E94F50290
:1028D0009C01892B11F58D859E85D80111969C93BD
:1028E0008E93CE01019655969C938E9354976F8547
:1028F0007889C8010E94CE0A9C01009709F04DC05A
:10290000F801428953894115510539F1DA011B96C5
:102910008C9184FD06C025E030E0F8011182108220
:1029200030C0FA01828D938DB0E0A0E02D853E8508
:10293000F9012081233061F4FA014489558970E05E
:1029400060E0BA0155274427842B952BA62BB72B83
:10295000F80186839783A087B187ED85FE85868100
:102960009781D80113969C938E93129770E060E044
:10297000C8010E94F8069C018430910561F2892B00
:1029800061F6C90160960FB6F894DEBF0FBECDBFE9
:10299000DF91CF911F910F910895049709F4BBCF58
:1029A000BCCFCF93DF93EC010E94EF01009711F4AD
:1029B00019821882DF91CF910895CF92DF92EF9222
:1029C000FF920F931F93CF93DF93CDB7DEB72C9772
:1029D0000FB6F894DEBF0FBECDBF8C016B010E9415
:1029E000EF017C01892B49F4C114D104B1F470E0EA
:1029F00060E0C8010E94F8067C01C7012C960FB662
:102A0000F894DEBF0FBECDBFDF91CF911F910F9124
:102A1000FF90EF90DF90CF900895CE010196F801DE
:102A2000958B848BC8010E942A0C9C0184309105EF
:102A3000B9F4F80116861786108A118AB601C80102
:102A40000E947C0170E060E0C8010E94BE099C0108
:102A5000049741F4F80116861786108A118ACDCFA3
:102A6000892B61F37901C9CFEF92FF920F931F93E6
:102A7000CF93DF93CDB7DEB7A4970FB6F894DEBF40
:102A80000FBECDBF9CA38BA37B0140E0BE016D5D5B
:102A90007F4FCE0101960E94F5028C01892BC1F473
:102AA000CE0147969E8B8D8B6BA17CA146970E9491
:102AB000CE0A8C01892B61F48B899C89892BB1F01A
:102AC000E114F10429F0B701CE0101960E947C01C6
:102AD000C801A4960FB6F894DEBF0FBECDBFDF913C
:102AE000CF911F910F91FF90EF90089506E010E0B5
:102AF000EFCF3F924F925F926F927F928F929F9211
:102B0000AF92BF92CF92DF92EF92FF920F931F93FB
:102B1000CF93DF93CDB7DEB728970FB6F894DEBF1B
:102B20000FBECDBF9A8389834B018A0140E0BE016D
:102B30006F5F7F4FC8010E94F5025C01892BE1F4B1
:102B4000D8010D911C91F80186859785A089B189DE
:102B50004288538864887588B301A20142505109A4
:102B600061097109481759076A077B07F0F0F401FA
:102B700080839183A283B383C50128960FB6F8940E
:102B8000DEBF0FBECDBFDF91CF911F910F91FF90A0
:102B9000EF90DF90CF90BF90AF909F908F907F90FD
:102BA0006F905F904F903F9008953080B1E03B125E
:102BB00044C022E0422E512C612C712CC12CD12C0E
:102BC0007601B301A201C8010E942B06462F572FA0
:102BD000BC014F3FEFEF5E076E077E0709F483C02D
:102BE000413051056105710509F481C0452B462B23
:102BF000472B29F4FFEFCF1ADF0AEF0AFF0A2FEF66
:102C0000421A520A620A720AF80182899389A489D7
:102C1000B589481659066A067B0698F2F801C686F9
:102C2000D786E08AF18A858181608583D401CD923F
:102C3000DD92ED92FC9213979FCF468D578D60A148
:102C400071A118861F82F0E0E0E0C12CD12C760142
:102C50008F819885892BC9F4DB01CA010196A11DDA
:102C6000B11D8B839C83AD83BE83C8010E947F020C
:102C7000009709F040C0F801BE964B815C816D81E0
:102C80007E81A0E0B2E0B887AF83B2E03B1216C00D
:102C900020813181232B29F42FEFC21AD20AE20AB4
:102CA000F20A32968F819885029798878F83B1E0D8
:102CB0004B1A51086108710859F6B0CF8081918193
:102CC000A281B381BF70892B8A2B8B2B29F49FEFB4
:102CD000C91AD90AE90AF90A3496AF81B885149756
:102CE000B887AF83E4CFAA24A394B12C97CF82E016
:102CF000A82EB12C93CF5C0191CF8F929F92AF926F
:102D0000BF92EF92FF920F931F93CF93DF93EC014B
:102D10000E94EF017C01892B29F48D81882371F0B9
:102D2000E82EF12CC701DF91CF911F910F91FF90F9
:102D3000EF90BF90AF909F908F9008958C8181FF0E
:102D40003BC04E815F81688579858A849B84AC8491
:102D5000BD84481559056A057B0520F74A875B87BE
:102D60006C877D8780628C8388819981452B462B77
:102D7000472B89F44E855F85688979890E94CB0C41
:102D80009C011E861F86188A198A2115310551F269
:102D90002D837901C7CF4A895B896C897D890E941F
:102DA0002B064B015C018FEF88169806A806B80623
:102DB00039F421E030E0ECCF87E0E82EF12CB2CFFF
:102DC00022E030E0F1E08F169104A104B10401F398
:102DD00088819981FC0142895389648975898416A7
:102DE0009506A606B70608F09DCF4A895B896C89CF
:102DF0007D890FEF1FEF2FEF3FE00E94DA079C0164
:102E0000892B31F6B501A401888199810E94CB0CF0
:102E10009C01BBCFCF92DF92EF92FF92CF93DF93D3
:102E2000CDB7DEB7EA970FB6F894DEBF0FBECDBFC1
:102E30009AAF89AF41E0BE01675C7F4FCE014796F4
:102E40000E94F5029C01892BB9F4CE018D969CA7B6
:102E50008BA769AD7AAD46970E94CE0A9C01892B5B
:102E600059F4E9A5FAA526E030E0309729F023854A
:102E700020FF10C027E030E0C901EA960FB6F894B1
:102E8000DEBF0FBECDBFDF91CF91FF90EF90DF90FF
:102E9000CF900895C28CD38CF12CE12CAF89B88DE2
:102EA0008C91833059F484899589B0E0A0E0DC01ED
:102EB00099278827C82AD92AEA2AFB2A24FD12C082
:102EC000CE0147960E94AD079C01892BA9F6C1143B
:102ED000D104E104F10481F58F89988D0E947B056E
:102EE0009C01CACF22E030E0C114D104E104F10416
:102EF00019F246E150E0BE01695E7F4FCE010196B6
:102F00000E945B01CF82D886E986FA8662E070E093
:102F1000CE0101960E94F8069C01892B09F0ACCFE6
:102F2000CE0101960E942A0C9C01009709F4A2CFC1
:102F3000049709F0A1CFC4CFB701A6018F89988D5E
:102F40000E94CB0C9C01892B09F096CFC5CF2F9204
:102F50003F924F925F926F927F928F929F92AF9229
:102F6000BF92CF92DF92EF92FF920F931F93CF9376
:102F7000DF93CDB7DEB7AC970FB6F894DEBF0FBEC8
:102F8000CDBF9CA38BA341E0BE016D5D7F4FCE0101
:102F900001960E94F5028C01892B09F0FEC0CE013A
:102FA00047969E8B8D8B6BA17CA146970E94CE0A83
:102FB0008C01009709F40BC1049709F0EEC040E0C2
:102FC00050E0BA0189819A810E94DF084B015C01BF
:102FD00081149104A104B10409F4D7C089819A81B4
:102FE00002E010E021E082169104A104B10409F48A
:102FF000CEC001E010E0BFEF8B169B06AB06BB0610
:1030000009F4C5C00E9475028C01892B09F0BFC06C
:1030100009811A81B501A401C8010E94EA052B01AA
:103020003C0168018EE2C80ED11CC801825D9D4F33
:103030007601E816F90609F079C09801275C3F4F40
:10304000C60140E22817390709F074C08EE2382E15
:10305000F80136A680E181AF80E090E0A9E6B5E412
:10306000EC5BFF4F80839183A283B383349691827C
:103070008082C501AA27BB278DA39EA3AFA3B8A7B3
:1030800036979183808340E250E0B601C801825BAD
:103090009F4F0E945B01F801E15BFF4F30824F813F
:1030A000588569857A85E981FA818081833061F468
:1030B00082A193A1A4A1B5A184179507A607B7077C
:1030C00019F440E050E0BA01D801A859BF4F119659
:1030D0005C934E9316976D937C93328022242394B5
:1030E00031102CC0CE0101960E94690C8C01892BF5
:1030F00009F04DC0EB89FC8980E1838780E090E096
:10310000A9E6B5E4868B978BA08FB18F938E828EC4
:103110008DA19EA1958B848B89819A8121E0DC0110
:1031200014962C930E947B058C0137C0F7011192F5
:103130007F017FCFDC014D93CD0184CFD301C2014C
:103140000196A11DB11D89A79AA7ABA7BCA789812C
:103150009A81DC019A964D925D926D927C929D9738
:1031600014962C920E9411028C01892B81F4C601C5
:10317000E816F90631F43A9449A45AA46BA47CA445
:10318000AFCFFC011192CF01F3CF07E010E0B50102
:10319000A40189819A810E94CB0CC801AC960FB61C
:1031A000F894DEBF0FBECDBFDF91CF911F910F917D
:1031B000FF90EF90DF90CF90BF90AF909F908F9057
:1031C0007F906F905F904F903F902F90089508E010
:1031D00010E0E3CF0F931F93CF93DF93CDB7DEB70C
:1031E000A4970FB6F894DEBF0FBECDBF9CA38BA3F0
:1031F000162F042F41E0BE016D5D7F4FCE01019679
:103200000E94F5029C01892B01F5CE0147969E8B09
:103210008D8B6BA17CA146970E94CE0A9C01892BC5
:10322000A1F4EB89FC8926E030E0309771F043850A
:103230001427102317721427138789819A8121E09C
:10324000FC0124830E947B059C01C901A4960FB652
:10325000F894DEBF0FBECDBFDF91CF911F910F91CC
:103260000895EF92FF920F931F93CF93DF93CDB703
:10327000DEB7C155D1090FB6F894DEBF0FBECDBF82
:1032800060969FAF8EAF609762967FAF6EAF62978A
:1032900041E0BE01625B7F4FCE0147960E94F5027E
:1032A0009C01892B09F0C3C08F89988D9A838983EB
:1032B000CE018E5B9F4F9CA78BA760966EAD7FADB6
:1032C00060978B970E94CE0A9C01892B09F0AFC0B2
:1032D00069A57AA524E030E06115710509F4A7C05D
:1032E000655F7F4F45E150E0CE018D960E945B0106
:1032F00046E150E0BE01695E7F4FCE0101960E941B
:103300005B01CE01805B9F4F0E94CC012BE030E03F
:1033100097FD8DC062966EAD7FAD6297CE0101962E
:103320000E94CE0A9C01009709F490C0049709F00E
:103330007EC0CE0101960E94690C9C01892B09F088
:1033400076C0EB88FC8843E150E0BE01615D7F4FB1
:10335000C7010D960E945B018DA58062D7011B9667
:103360008C931B970F89188D81E0F80184831B963D
:103370008C9184FF50C04D8D5E8D6F8D78A18F81B3
:103380009885A985BA85481759076A077B0709F404
:1033900042C0D7015A964D915C915B9770E060E016
:1033A0008081833061F454968D919C91B0E0A0E0CF
:1033B000DC0199278827482B592B6A2B7B2BC801C6
:1033C0000E94EA05462F572FBC0122E030E041154C
:1033D00051056105710559F1C8010E947F029C01E8
:1033E000892B29F5EF89F88DDF01A15BBF4F8C9107
:1033F0008E3289F44F81588569857A859F012859D5
:103400003F4FD9014D935C9326503109D9016D93FB
:103410007C9381E08483CE0147960E94AD079C0196
:10342000892B29F48F89988D0E947B059C01C90105
:10343000CF5ADF4F0FB6F894DEBF0FBECDBFDF917E
:10344000CF911F910F91FF90EF90089528E030E009
:10345000EECF0F931F93CF93DF93CDB7DEB7A49733
:103460000FB6F894DEBF0FBECDBF9CA38BA38B011C
:1034700041E0BE016D5D7F4FCE0101960E94F502D5
:103480009C01892B31F5CE0147969E8B8D8B6BA1CC
:103490007CA146970E94CE0A9C01892BD1F4EB892E
:1034A000FC8926E030E03097A1F0D80116968D9186
:1034B0009C911797978B868B14968D919C91918FE9
:1034C000808F89819A8121E0FC0124830E947B0501
:1034D0009C01C901A4960FB6F894DEBF0FBECDBF04
:1034E000DF91CF911F910F9108958F929F92AF928C
:1034F000BF92CF92DF92EF92FF920F931F93CF93E1
:10350000DF9300D000D0CDB7DEB77C01942E852E9E
:103510008C01D12CC12C5B0181E0A81AB108CA141E
:10352000DB04CCF49E012F5F3F4F41E050E0BE0131
:103530006D5F7F4F892D982D0E94C00E89819A81E1
:10354000019749F48B81F80181938F01FFEFCF1A26
:10355000DF0A8A3021F7F8011082CD2811F4E12C1E
:10356000F12CC7010F900F900F900F90DF91CF912A
:103570001F910F91FF90EF90DF90CF90BF90AF9091
:103580009F908F900895CF93DF93CDB7DEB7C85447
:10359000D1090FB6F894DEBF0FBECDBF7A83698321
:1035A0001C821B821E821D82682FCE0101960E9402
:1035B000F4114B815C8157FF0CC08FEF9FEFC85B0C
:1035C000DF4F0FB6F894DEBF0FBECDBFDF91CF91B6
:1035D00008959E01295B3F4FBE01695F7F4F89813E
:1035E0009A810E940310892B41F72B813C812996F7
:1035F0008EAD9FAD299728173907F9F68D819E81E9
:10360000DECF0F931F93CF93DF93CDB7DEB7C854B0
:10361000D1090FB6F894DEBF0FBECDBF7A836983A0
:103620001C821B821E821D828C01F80161918F0118
:10363000611112C04B815C8157FF13C08FEF9FEF68
:10364000C85BDF4F0FB6F894DEBF0FBECDBFDF9172
:10365000CF911F910F910895CE0101960E94F41110
:10366000E4CF9E01295B3F4FBE01695F7F4F898197
:103670009A810E940310892B09F72B813C8129969E
:103680008EAD9FAD299728173907C1F68D819E8190
:10369000D7CF2F923F924F925F926F927F928F92ED
:1036A0009F92AF92BF92CF92DF92EF92FF920F93D1
:1036B0001F93CF93DF93CDB7DEB7C056D1090FB6B6
:1036C000F894DEBF0FBECDBFE996EEADFFADE99732
:1036D000E7968EAD9FADE7979A8389831C821B8204
:1036E0001E821D825E0129E7A20EB11CCE01895BFC
:1036F0009F4F6B969FAF8EAF6B976081662309F4E7
:103700009DC13F019FEF691A790A653209F055C0E2
:1037100061813F01603359F423E0620E711C6281C4
:1037200031E06C963FAF6C97912C812C1DC06D32AF
:1037300009F048C083E0680E711C628192E06C96CB
:103740009FAF6C97F1CFEAE0E89DC001E99D900D35
:1037500011244C01860E911C67FD9A94F0E38F1A98
:103760009108F30161913F0180ED860F8A3058F393
:10377000862F8F7D8C3451F46C963FAD6C973460FE
:103780006C963FAF6C97F30161913F01662309F49A
:1037900055C18FE9860F8A31E0F480EE860F8F34B1
:1037A00009F470C0C4F4833409F461C0843409F4AA
:1037B00023C192E0823409F466C0CE0101960E94D2
:1037C000F41146C022E0620E711C6C961FAE6C971D
:1037D000ABCF862FE4CF853509F40EC190E1883553
:1037E00009F451C0833549F7F501E080F18082E0AA
:1037F000A80EB11CF70190E080E021918C010196A8
:103800002111FBCF6C969FAD6C9791FD19C068019B
:1038100008C060E2CE0101960E94F411EFEFCE1ACB
:10382000DE0AC814D904A8F3C401801B910B8016CA
:10383000910610F490E080E00F5F1F4F080F191FF2
:10384000F70161917F01611105C00815190538F074
:10385000F30153CFCE0101960E94F411F1CF60E243
:10386000CE0101960E94F4110F5F1F4FEECF85012C
:103870000E5F1F4FF5016081CE0101960E94F41189
:103880005801E6CF98E0F5016C962FAD6C9722FFBA
:10389000B5C034E0A30EB11CC080D180E280F380BB
:1038A000843489F4F7FE0FC0F094E094D094C0946F
:1038B000C11CD11CE11CF11C6C963FAD6C973860AB
:1038C0006C963FAF6C97683709F0A7C087E2A19666
:1038D0008FAFA1979E01295B3F4FA0963FAF2EAFC0
:1038E000A0976E961FAE1EAE6E97292E312C512CCE
:1038F000412CC701B601A20191010E943227722F0B
:10390000E32FF42F952F862FA7019601C72EDE2EC9
:10391000EF2EF92E6A3024F0A1968FADA197860F75
:103920006E960EAD1FAD6E970F5F1F4F805DA09618
:10393000EEADFFADA0978193A096FFAFEEAFA0973D
:10394000221533054405550550F00031110509F0E5
:1039500069C02FE030E06E963FAF2EAF6E976C9649
:103960003FAD6C9733FF0EC0E7E4F0E0EC0FFD1FB6
:10397000E00FF11F8DE280836E960EAD1FAD6E9746
:103980000E5F1F4F6C969FAD6C9780E3482E90FDA5
:1039900002C090E2492E78016C96EFAD6C97E27010
:1039A0005E2E6701FFEFCF1ADF0A511004C0E81442
:1039B000F904E8F1760127E430E02C0F3D1F020FF7
:1039C000131FF80162918F01CE0101960E94F4113C
:1039D0006B962EAD3FAD6B970217130791F7E81466
:1039E000F90408F035CF642DCE0101960E94F41140
:1039F0003FEFE31AF30AF3CF9AE045CF22E0A20E9D
:103A0000B11CC080D180F12CE12C843409F05BCF53
:103A10000D2C000CEE08FF0845CFE7E0A196EFAFB4
:103A2000A19758CF6E961FAF0EAF6E9762CF642DE1
:103A3000CE0101960E94F4117601B3CF4B815C81D7
:103A400057FF1CC08FEF9FEFC05ADF4F0FB6F8949F
:103A5000DEBF0FBECDBFDF91CF911F910F91FF90C1
:103A6000EF90DF90CF90BF90AF909F908F907F901E
:103A70006F905F904F903F902F9008959E01295A2C
:103A80003F4FBE01695F7F4F89819A810E94031079
:103A9000892BC1F62B813C8169968EAD9FAD6997CC
:103AA0002817390779F68D819E81CECF9C0183B18D
:103AB00083B183B183B121503109C9F708959C01C5
:103AC000680F791FF90180812F5F3F4F87FF2AC060
:103AD0002A9A299A299886FF27C02A9A299A2998EA
:103AE00085FF24C02A9A299A299884FF21C02A9AFE
:103AF000299A299883FF1EC02A9A299A299882FF19
:103B00001BC02A9A299A299881FF18C02A9A299AB3
:103B1000299880FF15C02A9A299A299826173707CD
:103B200089F608952A98D5CF2A98D8CF2A98DBCF3E
:103B30002A98DECF2A98E1CF2A98E4CF2A98E7CFB7
:103B40002A98EACF9C012A9A680F791F83B1299A93
:103B5000299883FB882780F9880F1B998F5F299A02
:103B60002998880F1B998F5F299A2998880F1B998C
:103B70008F5F299A2998880F1B998F5F299A299816
:103B8000880F1B998F5F299A2998880F1B998F5F3F
:103B9000299A2998880F1B998F5F299A2998F901EA
:103BA00081939F01E617F70789F608950F931F93F6
:103BB000CF93DF930F92CDB7DEB708E813E161E052
:103BC00070E0CE0101960E94A21D89818F3F39F0DD
:103BD00084E690E00E94561D0150110981F781E0B2
:103BE00090E0012B11F490E080E00F90DF91CF91F5
:103BF0001F910F910895CF93DF930F92CDB7DEB74A
:103C0000289A61E070E0CE0101960E94A21D0F90FB
:103C1000DF91CF9108950F931F93CF93DF930F926E
:103C2000CDB7DEB7289861E070E0CE0101960E9422
:103C3000A21D0E94D61D8C01892B49F40E94FB1DF8
:103C4000C8010F90DF91CF911F910F91089501E06E
:103C500010E0F6CFCF92DF92EF92FF920F931F9377
:103C6000CF93DF9300D0CDB7DEB78C017B0188EE18
:103C7000C82E83E0D82E61E070E0CE0101960E944C
:103C8000A21D89818F3F41F484E690E00E94561D79
:103C900081E0C81AD10879F789818E3FB9F4B7015C
:103CA000C8010E94A21D62E070E0CE0101960E9450
:103CB000A21D81E090E00F900F90DF91CF911F91B6
:103CC0000F91FF90EF90DF90CF90089590E080E00B
:103CD000F2CFDF92EF92FF920F931F93CF93DF9378
:103CE00000D000D000D00F92CDB7DEB7182F042F30
:103CF000F52EE62ED72E87FF09C040E050E0BA012E
:103D000087E30E94691E823090F51F771C30E9F529
:103D1000812F80648983602F7F2D8E2D9D2D0E94A1
:103D200054276A837B838C839D8385E9112321F04B
:103D300087E8183009F081E08E8366E070E0CE01FC
:103D400001960E945F1D1C3031F461E070E0CE01ED
:103D500007960E94A21D1AE061E070E0CE0107966E
:103D60000E94A21D8F8187FF02C01150A9F72796DC
:103D70000FB6F894DEBF0FBECDBFDF91CF911F917C
:103D80000F91FF90EF90DF9008950E94FB1D0E941D
:103D90000B1E892B09F0BCCF8FEFE9CFFF920F9359
:103DA0001F93CF93DF9300D0CDB7DEB7F82E092F46
:103DB000162F0E94D61D9C01892B31F1198361E0D9
:103DC00070E0CE0101960E945F1D21E030E01D3FB2
:103DD000D9F060E072E08F2D902F0E945F1D62E0AD
:103DE00070E0CE0101960E94A21D61E070E0CE015C
:103DF00001960E94A21D89818F7141E090E085307B
:103E000009F040E0242F392FC9010F900F90DF9166
:103E1000CF911F910F91FF900895811103C0809160
:103E20000001089581E00895EF92FF920F931F9390
:103E3000CF93DF9300D000D0CDB7DEB703E0811180
:103E40004DC080E197E20E94561D209A289A219A3F
:103E50002998229A1AE061E070E0CE0101960E9452
:103E6000A21D1150C1F740E050E0BA0180E00E946D
:103E7000691E182F813041F54AEA51E060E070E098
:103E800088E00E94691E8130A9F564E070E0CE01EF
:103E900001960E94A21D8B818130B1F48C818A3AF7
:103EA00099F408EE13E040E050E060E070E489EA45
:103EB0000E94691E882309F43DC088EE93E00E94A9
:103EC000561D0150110979F710E010934E0101E0E1
:103ED000111100E0009300010E94FB1D802F0F9044
:103EE0000F900F900F90DF91CF911F910F91FF9046
:103EF000EF90089540E050E0BA0189EA0E94691EFF
:103F000001E0823010F409EA12E088EEE82E83E046
:103F1000F82E40E050E0BA01802F0E94691E8823ED
:103F2000E9F088EE93E00E94561D81E0E81AF1085E
:103F300081F7CACF40E050E0BA018AE30E94691ECF
:103F40008111C2CF64E070E0CE0101960E94A21DF3
:103F5000898114E086FFB9CF1CE0B7CF40E052E082
:103F600060E070E080E10E94691E8111ADCFADCFAD
:103F7000EF92FF920F931F93CF93DF937B01E42F78
:103F8000952FA9016E2F792FE80190910001917072
:103F9000982BB1F580914E0183FD07C089E0440F55
:103FA000551F661F771F8A95D1F711E1C230D105E1
:103FB00008F012E1812F0E94691E811113C060E098
:103FC00072E0C7010E942A1E892B21F08EEFF81A99
:103FD0002197A9F7123131F440E050E0BA018CE0AA
:103FE0000E94691E0E94FB1D81E090E0CD2B09F428
:103FF00080E0DF91CF911F910F91FF90EF90089596
:1040000083E090E0F6CFAF92BF92CF92DF92EF9233
:10401000FF920F931F93CF93DF935B0169017A01A6
:10402000E801909100019170982B09F056C08091A1
:104030004E0183FD07C099E0CC0CDD1CEE1CFF1C7B
:104040009A95D1F7C130D10529F5B701A60188E1CC
:104050000E94691E81113EC06EEFC5010E94CE1EF6
:10406000AC0121E090E0452B09F020E0C22FD92FD0
:104070000E94FB1D81E090E0CD2B09F480E0DF91F0
:10408000CF911F910F91FF90EF90DF90CF90BF9055
:10409000AF900895867031F0AE0170E060E087E97E
:1040A0000E94691EB701A60189E10E94691E811163
:1040B000DFCF6CEFC5010E94CE1E892B21F08EEF61
:1040C000B81A2197B1F76DEF90E080E00E94CE1E04
:1040D000892B71F6C1E0D0E0CBCF83E090E0CFCF69
:1040E0000F931F93CF93DF93CDB7DEB760970FB6D3
:1040F000F894DEBF0FBECDBF8A0190910001917090
:10410000982B09F093C06130D9F0633009F489C06D
:1041100004E061111EC00E940B1E01E010E0892B1B
:1041200009F000E00E94FB1DC80160960FB6F894EC
:10413000DEBF0FBECDBFDF91CF911F910F910895CC
:1041400040E050E0BA0189E00E94691E882319F01E
:1041500001E010E0E7CF60E170E0CE0101960E943F
:104160002A1E892BA9F34A852985888599819295EC
:1041700096959695937050E0913021F590E0B0E0DF
:10418000A0E0DC019927882788279927AF73BB27F0
:104190000196A11DB11D30E0322F2227240F351FBB
:1041A000820F931FA11DB11D2AE0880F991FAA1F1E
:1041B000BB1F2A95D1F7F80180839183A283B38333
:1041C00000E0C7CF2295269526952370F4E08F9FB7
:1041D000C0011124820F911D01962F8130E0322FF2
:1041E0002227330F330F22273C70820F931FB0E03A
:1041F000A0E02E812F703B85331F3327331F230F01
:1042000032E0320F440F551F242F2670230F295000
:10421000330B04C0880F991FAA1FBB1F2A95D2F722
:10422000CACF80E890E0A0E0B0E0C5CF03E010E0A6
:104230007BCF1F920F920FB60F9211240BB60F92E5
:10424000CF92DF92EF92FF920F931F932F933F93A2
:104250004F935F936F937F938F939F93AF93BF938E
:10426000CF93DF93EF93FF9310E00DE0DD24D39421
:10427000CC24CA94E12EF12C80910C01082E000C64
:10428000990B8E159F05DCF4FF91EF91DF91CF9193
:10429000BF91AF919F918F917F916F915F914F915E
:1042A0003F912F911F910F91FF90EF90DF90CF9052
:1042B0000F900BBE0F900FBE0F901F9018950E9D84
:1042C000E0010F9DD00D1124CA5ADE4F4D815E8151
:1042D0006F81788589819A81AB81BC8148175907A4
:1042E0006A077B0778F1E0915101F0E0EF5FFE4F44
:1042F0008081181738F58881811124C0F8941D82B7
:104300001E821F821886D882E0915101EF5FE093F0
:104310005101F0E0EF5FFE4F10837894E985FA8554
:104320008B859C8509959C878B87F8941882809152
:104330005101E82FF0E0EF5FFE4FC0828150809383
:10434000510178940E9DF0010F9DF00D1124EA5A51
:10435000FE4F85819681A781B0850196A11DB11D73
:1043600085839683A783B0871F5F84CF83E884BD4E
:1043700085B5836085BD81E080936E0016BC8FEFAC
:1043800087BD0895882319F087BD279A0895279837
:104390000895EF92FF920F931F93CF93DF9300D076
:1043A00000D000D0CDB7DEB77C01CB01BA018901C6
:1043B00020910C01422F042E000C550B4F5F5F4FD4
:1043C0005E834D834A3051050CF050C00E94832813
:1043D00025E732E04AEF5EE369837A838B839C832F
:1043E00069817A818B819C810E94112920E030E0D3
:1043F00040E05FE369837A838B839C8369817A8160
:104400008B819C810E94762769837A838B839C832E
:1044100069817A818B819C810E9454282DE04D8195
:104420005E81249FF001259FF00D1124EA5AFE4F72
:104430006183728383839483658376838783908784
:104440001082E186F2860387148740930C018D81E8
:104450009E8126960FB6F894DEBF0FBECDBFDF91CA
:10446000CF911F910F91FF90EF9008958FEF9FEFE5
:104470009E838D83ECCF90E09093CD008093CC0011
:1044800088E18093C9008EE08093CA0008959091DE
:10449000C80095FFFCCF8093CE0008958091C8009E
:1044A00087FFFCCF8091CE00089593E89093B000F1
:1044B00091E09093B1008093B30008959C01909394
:1044C000DD018093DC0186E390E0809300402115BC
:1044D0003105A9F580EF90E09093D9018093D80140
:1044E00080E491E09093DB018093DA0188E490E02E
:1044F000809300418AE290E08093004030E020E029
:1045000030930041209300418091D8019091D901CE
:10451000019790930041809300418BE290E080935B
:10452000004030930041209300418091DA01909146
:10453000DB01019790930041809300410895213061
:10454000310579F480E491E09093D9018093D8010A
:1045500080EF90E09093DB018093DA0188EE90E0A9
:10456000C7CF2230310579F480EF90E09093D901E4
:104570008093D80180E491E09093DB018093DA018D
:1045800088E890E0B5CF2330310509F0B3CF80E45F
:1045900091E09093D9018093D80180EF90E09093BF
:1045A000DB018093DA0188E290E0A2CFCF93DF9322
:1045B00000D000D00F92CDB7DEB7873708F044C0E7
:1045C000883008F444C08D3308F03FC08F3108F0C4
:1045D00042C0803108F442C022E02D8321EB30E05C
:1045E000209300409D8190930041282F30E050E0BF
:1045F00040E029833A834B835C83CA01B9010E945E
:1046000085289B01AC0160E070E080EF94E40E949B
:10461000E22769837A838B839C8369817A818B818A
:104620009C810E94542870E00D8002C075956795AA
:104630000A94E2F7609300410F900F900F900F9053
:104640000F90DF91CF91089586E71D82C7CF88E054
:1046500033E03D83C3CF41E04D83C0CF53E05D8362
:10466000BDCF0F931F93CF93DF93CDB7DEB72897BE
:104670000FB6F894DEBF0FBECDBF29833A834B83BC
:104680005C836D837E838F839887A801E981FA819B
:104690002B813C816D817E818F819885AAE2B0E07B
:1046A000A0930040F0930041E0930041309300411B
:1046B00020930041ABE2B0E0A09300407093004132
:1046C000609300419093004180930041ACE2B0E0E0
:1046D000A09300402F5F3F4F2E1B3F0B0196861B80
:1046E000970B2817390750F5E82FE770E29FB001C4
:1046F000E39F700D1124F3E096958795FA95E1F705
:10470000829FF001839FF00D1124962F9770915096
:1047100038F5CB0123E0969587952A95E1F78E0F22
:104720009F1F019710F528960FB6F894DEBF0FBEB5
:10473000CDBFDF91CF911F910F910895E22FE770C8
:10474000E89FB001E99F700D1124E3E036952795AD
:10475000EA95E1F7289FF001299FF00D1124D5CFAC
:104760005093004140930041D2CF50930041409379
:1047700000415093004140930041509300414093C9
:1047800000415093004140930041509300414093B9
:1047900000415093004140930041509300414093A9
:1047A00000415093004140930041BBCF0F931F93B2
:1047B000CF93DF93CDB7DEB728970FB6F894DEBF5F
:1047C0000FBECDBF29833A834B835C836D837E8389
:1047D0008F83988789819A814B815C816D817E81ED
:1047E000AF81B8852AE230E02093004090930041E9
:1047F0008093004150930041409300412BE230E010
:10480000209300407093004160930041B0930041B9
:10481000A09300412CE230E0209300404817590754
:10482000D0F428960FB6F894DEBF0FBECDBFDF914F
:10483000CF911F910F910895F8010191119110935B
:104840000041009300412F5F3F4F8F01A217B30734
:1048500098F70196E3CF9B01F9CF0F931F93CF9366
:10486000DF93CDB7DEB728970FB6F894DEBF0FBE43
:10487000CDBFE8EDF1E017821682118610861A820C
:104880001982808191810197482F9C838B831E829E
:104890001D8282819381019798878F830485158576
:1048A00020E03A815C8160E07E8198850E9431231E
:1048B00028960FB6F894DEBF0FBECDBFDF91CF9123
:1048C0001F910F910895CF93DF9386E08093750039
:1048D00080E8809374003F9A249A8FEC97E00197C8
:1048E000F1F700C0000047988FE39CE90197F1F7CA
:1048F00000C00000479A9FEF2DEE82E091502040CB
:104900008040E1F700C0000088E290E08093004022
:1049100081E190E0809300409FEF26E781E0915095
:1049200020408040E1F700C0000081E090E02BECE7
:1049300030E0209300408093004120EC30E0209351
:10494000004028E036E2309300412093004121EC02
:1049500030E040E150E0209300404093004125ECDE
:1049600030E0209300402EE335E330930041209364
:10497000004127EC30E045EB50E0209300404093AD
:10498000004126EF30E02093004080930041D0E0CA
:10499000C0E0D0930041C09300418AE390E025E558
:1049A00030E0809300402093004181E090E00E943D
:1049B0005E220E942D24E8EDF1E017821682118616
:1049C0001086158614868FEF9FEF9387828789E282
:1049D00090E0809300409FE728E381E091502040E1
:1049E0008040E1F700C0000085E390E08093004044
:1049F000C0930041EAE6F0E08081806280832C9AD7
:104A0000DF91CF910895CF92DF92EF92FF920F93B3
:104A10001F93CF93DF932091E0013091E1018A3021
:104A2000E1F41092DF011092DE01285F3F4F3093D6
:104A3000E1012093E0018091DA019091DB012817D8
:104A4000390708F46AC0DF91CF911F910F91FF9051
:104A5000EF90DF90CF900C942D2490EE980F9F351F
:104A600008F05BC04091DE015091DF01EA0124961D
:104A7000B901695F7F4FEBE2F0E0E09300403093D3
:104A80000041209300417093004160930041082E43
:104A9000000C990B8097A5E0A89FF001A99FF00D4D
:104AA0001124E856FF4F8AE2E82EF12C9CE2C92E31
:104AB000D12CC417D507D0F58AE290E0809300404E
:104AC0005093004140930041509300414093004176
:104AD0008CE290E0809300406217730708F04FC0AB
:104AE0008091DE019091DF0106969093DF01809323
:104AF000DE012091D8013091D9018217930768F027
:104B00001092DF011092DE018091E0019091E101AD
:104B100008969093E1018093E001DF91CF911F917E
:104B20000F91FF90EF90DF90CF900895E0920040BA
:104B30005093004140930041509300414093004105
:104B4000C0920040B491C901A1E06817790720F430
:104B50004F5F5F4F3196ADCF1A2F1B2359F0009155
:104B6000E2011091E301109300410093004101968E
:104B7000AA0FEBCF0091E4011091E501F4CF8091F1
:104B8000E4019091E50190930041809300412F5FF3
:104B90003F4FA2CF1F93CF93DF93EC0110E0FE01B4
:104BA000E10FF11D8081811104C0DF91CF911F9130
:104BB00008950E9403251F5FF2CF1F93CF93DF93C9
:104BC000EC017093DF016093DE015093E1014093AB
:104BD000E00110E0FE01E10FF11D8081811104C0B0
:104BE000DF91CF911F9108950E9403251F5FF2CF9F
:104BF000EF92FF920F931F93CF93DF93D0E0C0E02B
:104C000090E8E92EF12C082F10E0C7010C2E02C00D
:104C1000959587950A94E2F780239123892B71F06B
:104C200081E30E9403252196C830D10571F7DF91F9
:104C3000CF911F910F91FF90EF9008958EE2F1CFE9
:104C4000CF93C82F8A3019F48DE00E9420268091DE
:104C5000C80085FFFCCFC093CE008C2FCC0F990BE2
:104C6000CF9108958091C80087FFFCCF8091CE003E
:104C700090E008951092CD0083E38093CC0088E10A
:104C80008093C90086E08093CA00E8E1F4E08BE1FC
:104C900091E093838283958384838DE091E0918377
:104CA00080830895E1E6F0E080E880831082279A0F
:104CB0000E943A260E9463240E94B6210C94C126C9
:104CC000F8942CB133E025FF30E024FF02C021E04E
:104CD000322720915501231B20FF09C03093550135
:104CE0003091170422703150230F209317047894C9
:104CF0000895F89436B14CB123B150911604306C3C
:104D00004F6734232F6B32233527532F5095209133
:104D10005401422F45234095409354016091530123
:104D20005623452740935301232B2095242330916C
:104D3000160432273093160430911604409114045F
:104D40002323242B20931404209116042C7F19F480
:104D50002CE320935201209152013FEF320F21307A
:104D600021F030935201789408952AE02093520163
:104D700020911604309115042C7F232B20931504C9
:104D8000F2CF8DB18F7C8DB98EB180638EB96F9863
:104D9000779A87B1837C87B988B18C6388B9269864
:104DA0002E9A30E020E042E050E060E070E080E6E3
:104DB00096E20E94C92130E020E04AE050E060E045
:104DC00070E089E796E20C94C921F8948091170469
:104DD0009091170491709093170478948595089595
:104DE000982FF894809114048923909114049827A3
:104DF0009093140478940895982FF8948091150452
:104E00008923909115049827909315047894089518
:104E10009091160489230895F89490911604909522
:104E200089230C94F0260E94FC260C94F02680E83E
:104E300095E20E943B220E9463248CE391E00E9451
:104E4000CA2587E50E9447220E944E220E94032520
:104E50002FEF89E698E1215080409040E1F700C0B3
:104E60000000EFCFA1E21A2EAA1BBB1BFD010DC053
:104E7000AA1FBB1FEE1FFF1FA217B307E407F5070A
:104E800020F0A21BB30BE40BF50B661F771F881FE6
:104E9000991F1A9469F760957095809590959B017C
:104EA000AC01BD01CF0108956927962769277827AE
:104EB0008727782708950E946627A59F900DB49FA5
:104EC000900DA49F800D911D11240895A29FB00103
:104ED000B39FC001A39F700D811D1124911DB29F2E
:104EE000700D811D1124911D08955058BB27AA27CC
:104EF0000E948D270C94D7280E94C92838F00E9460
:104F0000D02820F039F49F3F19F426F40C94C628D9
:104F10000EF4E095E7FB0C94C028E92F0E94E828E6
:104F200058F3BA17620773078407950720F079F4DE
:104F3000A6F50C940A290EF4E0950B2EBA2FA02D9D
:104F40000B01B90190010C01CA01A0011124FF2736
:104F5000591B99F0593F50F4503E68F11A16F04031
:104F6000A22F232F342F4427585FF3CF4695379530
:104F70002795A795F0405395C9F77EF41F16BA0BF5
:104F8000620B730B840BBAF09150A1F0FF0FBB1FA3
:104F9000661F771F881FC2F70EC0BA0F621F731FEC
:104FA000841F48F4879577956795B795F7959E3F49
:104FB00008F0B0CF9395880F08F09927EE0F9795DA
:104FC000879508950E94F6270C94D7280E94D02830
:104FD00058F00E94C92840F029F45F3F29F00C9452
:104FE000C02851110C940B290C94C6280E94E82863
:104FF00068F39923B1F3552391F3951B550BBB2708
:10500000AA2762177307840738F09F5F5F4F220F4C
:10501000331F441FAA1FA9F335D00E2E3AF0E0E843
:1050200032D091505040E695001CCAF72BD0FE2F8D
:1050300029D0660F771F881FBB1F26173707480721
:10504000AB07B0E809F0BB0B802DBF01FF279358D9
:105050005F4F3AF09E3F510578F00C94C0280C94B5
:105060000B295F3FE4F3983ED4F3869577956795D7
:10507000B795F7959F5FC9F7880F911D969587950E
:1050800097F90895E1E0660F771F881FBB1F62172D
:1050900073078407BA0720F0621B730B840BBA0BEB
:1050A000EE1F88F7E09508950E94F02888F09F573A
:1050B00098F0B92F9927B751B0F0E1F0660F771F3C
:1050C000881F991F1AF0BA95C9F714C0B13091F032
:1050D0000E940A29B1E008950C940A29672F782FBD
:1050E0008827B85F39F0B93FCCF3869577956795F7
:1050F000B395D9F73EF490958095709561957F4F63
:105100008F4F9F4F0895E89409C097FB3EF4909508
:105110008095709561957F4F8F4F9F4F9923A9F090
:10512000F92F96E9BB279395F6958795779567951F
:10513000B795F111F8CFFAF4BB0F11F460FF1BC063
:105140006F5F7F4F8F4F9F4F16C0882311F096E9F6
:1051500011C0772321F09EE8872F762F05C06623A4
:1051600071F096E8862F70E060E02AF09A95660F5D
:10517000771F881FDAF7880F9695879597F9089516
:1051800097F99F6780E870E060E008959FEF80ECFA
:10519000089500240A94161617061806090608959D
:1051A00000240A9412161306140605060895092E03
:1051B0000394000C11F4882352F0BB0F40F4BF2B72
:1051C00011F460FF04C06F5F7F4F8F4F9F4F0895B2
:1051D00057FD9058440F551F59F05F3F71F04795A8
:1051E000880F97FB991F61F09F3F79F0879508958D
:1051F000121613061406551FF2CF4695F1DF08C0AC
:10520000161617061806991FF1CF869571056105C8
:1052100008940895E894BB2766277727CB0197F970
:1052200008950E9424290C94D7280E94C92838F098
:105230000E94D02820F0952311F00C94C0280C94E3
:10524000C62811240C940B290E94E82870F3959F1E
:10525000C1F3950F50E0551F629FF001729FBB276D
:10526000F00DB11D639FAA27F00DB11DAA1F649F09
:105270006627B00DA11D661F829F2227B00DA11DBC
:10528000621F739FB00DA11D621F839FA00D611D42
:10529000221F749F3327A00D611D231F849F600D63
:1052A000211D822F762F6A2F11249F5750409AF08C
:1052B000F1F088234AF0EE0FFF1FBB1F661F771F18
:1052C000881F91505040A9F79E3F510580F00C94E3
:1052D000C0280C940B295F3FE4F3983ED4F38695E5
:1052E00077956795B795F795E7959F5FC1F7FE2B83
:1052F000880F911D9695879597F90895F894FFCF9B
:1053000001FF00000000000000000000FF0000009E
:105310000100000000000032260000000000020032
:10532000000000202600000000FF000000222A2BC1
:105330002C3A3B3C3D3E3F5B5D7C7F005245414407
:0A5340005920666F7220532100000F
:00000001FF
