:100000000C943A010C9459010C9459010C94590127
:100010000C9459010C9459010C9459010C945901F8
:100020000C9459010C9459010C9459010C945901E8
:100030000C9459010C9459010C9459010C945901D8
:100040000C9459010C9459010C9459010C945901C8
:100050000C9459010C9459010C9459010C945B01B6
:100060000C9459010C9459010C9459010C945901A8
:100070000C9459010C9459010C9459010C94590198
:100080000C9459010C9459010C9459010C94590188
:100090000C9459010C945901000000000000005F0D
:1000A00000000003000300143E143E14242A7F2A9B
:1000B000124333086661364955225000050300009B
:1000C000001C2241000041221C0014083E081408B4
:1000D000083E0808005030000008080808080060C2
:1000E00060000020100804023E5149453E00040211
:1000F0007F00426151494622414949361814127F16
:100100001027454545393E494949320101710907E2
:100110003649494936264949493E003636000000ED
:10012000563600000814224100141414141400411F
:1001300022140802015109063E4159555E7E090903
:10014000097E7F494949363E414141227F41414133
:100150003E7F494949417F090909013E4141493AE8
:100160007F0808087F00417F4100304040403F7FCA
:10017000081422417F404040407F020C027F7F02F2
:1001800004087F3E4141413E7F090909061E2121A5
:10019000215E7F09090976264949493201017F011B
:1001A000013F4040403F1F2040201F7F2010207F04
:1001B00041221C224107087008076151494543004C
:1001C0007F41000002040810200000417F0004026B
:1001D0000102044040404040000102040020545409
:1001E00054787F4444443838444444443844444474
:1001F0007F385454541804047E0505085454543C64
:100200007F0804047800447D40002040443D007F86
:100210001028440000417F40007C047804787C086A
:1002200004047838444444387C1414140808141422
:10023000147C007C080404485454542004043F44B3
:10024000443C4040207C1C2040201C3C4030403C32
:1002500044281028440C5050503C4464544C4400F2
:100260000836414100007F0000414136080002018C
:100270000204020011241FBECFEFD0E2DEBFCDBFCB
:1002800012E0A0E0B1E0E4E8F3E200E00BBF02C05E
:1002900007900D92A435B107D9F723E0A4E5B2E0A9
:1002A00001C01D92A03DB207E1F70E94370C0C94EB
:1002B000C0110C9400001F920F920FB60F921124E0
:1002C0000BB60F92CF92DF92EF92FF920F931F9394
:1002D0002F933F934F935F936F937F938F939F934E
:1002E000AF93BF93CF93DF93EF93FF9310E00DE0B5
:1002F000DD24D394CC24CA94E12EF12C80910B01FF
:10030000082E000C990B8E159F05DCF4FF91EF91E0
:10031000DF91CF91BF91AF919F918F917F916F911D
:100320005F914F913F912F911F910F91FF90EF900F
:10033000DF90CF900F900BBE0F900FBE0F901F90CD
:1003400018950E9DE0010F9DD00D1124C45DDC4F6A
:100350004D815E816F81788589819A81AB81BC8175
:10036000481759076A077B0778F1E0915602F0E0D9
:10037000E050FF4F8081181738F58881811124C023
:10038000F8941D821E821F821886D882E091560240
:10039000EF5FE0935602F0E0E050FF4F1083789457
:1003A000E985FA858B859C8509959C878B87F894D0
:1003B000188280915602E82FF0E0E050FF4FC08293
:1003C00081508093560278940E9DF0010F9DF00DA0
:1003D0001124E45DFC4F85819681A781B08501964B
:1003E000A11DB11D85839683A783B0871F5F84CF2E
:1003F00083E884BD85B5836085BD81E080936E0010
:1004000016BC8FEF87BD0895882319F087BD279A02
:10041000089527980895EF92FF920F931F93CF931B
:10042000DF9300D000D000D0CDB7DEB77C01CB0188
:10043000BA01890120910B01422F042E000C550BAB
:100440004F5F5F4F5E834D834A3051050CF050C0C3
:100450000E948F0D25E732E04AEF5EE369837A83DD
:100460008B839C8369817A818B819C810E94750E2C
:1004700020E030E040E05FE369837A838B839C83F4
:1004800069817A818B819C810E94820C69837A8345
:100490008B839C8369817A818B819C810E94600D12
:1004A0002DE04D815E81249FF001259FF00D1124E8
:1004B000E45DFC4F618372838383948365837683D9
:1004C000878390871082E186F286038714874093A2
:1004D0000B018D819E8126960FB6F894DEBF0FBE6C
:1004E000CDBFDF91CF911F910F91FF90EF900895B5
:1004F0008FEF9FEF9E838D83ECCF93E89093B000B6
:1005000091E09093B1008093B30008959C01909383
:10051000B3038093B20386E390E0809300402115FB
:100520003105A9F580EF90E09093AF038093AE037F
:1005300080E491E09093B1038093B00388E490E06D
:10054000809300418AE290E08093004030E020E018
:1005500030930041209300418091AE039091AF030E
:10056000019790930041809300418BE290E080934B
:10057000004030930041209300418091B00390915E
:10058000B103019790930041809300410895213079
:10059000310579F480E491E09093AF038093AE034A
:1005A00080EF90E09093B1038093B00388EE90E0E9
:1005B000C7CF2230310579F480EF90E09093AF03FC
:1005C0008093AE0380E491E09093B1038093B003F5
:1005D00088E890E0B5CF2330310509F0B3CF80E44F
:1005E00091E09093AF038093AE0380EF90E09093FF
:1005F000B1038093B00388E290E0A2CFCF93DF9362
:1006000000D000D00F92CDB7DEB7873708F044C0D6
:10061000883008F444C08D3308F03FC08F3108F0B3
:1006200042C0803108F442C022E02D8321EB30E04B
:10063000209300409D8190930041282F30E050E0AE
:1006400040E029833A834B835C83CA01B9010E944D
:10065000910D9B01AC0160E070E080EF94E40E949A
:10066000EE0C69837A838B839C8369817A818B8189
:100670009C810E94600D70E00D8002C075956795A9
:100680000A94E2F7609300410F900F900F900F9043
:100690000F90DF91CF91089586E71D82C7CF88E044
:1006A00033E03D83C3CF41E04D83C0CF53E05D8352
:1006B000BDCF0F931F93CF93DF93CDB7DEB72897AE
:1006C0000FB6F894DEBF0FBECDBF29833A834B83AC
:1006D0005C836D837E838F839887A801E981FA818B
:1006E0002B813C816D817E818F819885AAE2B0E06B
:1006F000A0930040F0930041E0930041309300410B
:1007000020930041ABE2B0E0A09300407093004121
:10071000609300419093004180930041ACE2B0E0CF
:10072000A09300402F5F3F4F2E1B3F0B0196861B6F
:10073000970B2817390750F5E82FE770E29FB001B3
:10074000E39F700D1124F3E096958795FA95E1F7F4
:10075000829FF001839FF00D1124962F9770915086
:1007600038F5CB0123E0969587952A95E1F78E0F12
:100770009F1F019710F528960FB6F894DEBF0FBEA5
:10078000CDBFDF91CF911F910F910895E22FE770B8
:10079000E89FB001E99F700D1124E3E0369527959D
:1007A000EA95E1F7289FF001299FF00D1124D5CF9C
:1007B0005093004140930041D2CF50930041409369
:1007C00000415093004140930041509300414093B9
:1007D00000415093004140930041509300414093A9
:1007E0000041509300414093004150930041409399
:1007F00000415093004140930041BBCF0F931F93A2
:10080000CF93DF93CDB7DEB728970FB6F894DEBF4E
:100810000FBECDBF29833A834B835C836D837E8378
:100820008F83988789819A814B815C816D817E81DC
:10083000AF81B8852AE230E02093004090930041D8
:100840008093004150930041409300412BE230E0FF
:10085000209300407093004160930041B0930041A9
:10086000A09300412CE230E0209300404817590744
:10087000D0F428960FB6F894DEBF0FBECDBFDF913F
:10088000CF911F910F910895F8010191119110934B
:100890000041009300412F5F3F4F8F01A217B30724
:1008A00098F70196E3CF9B01F9CF0F931F93CF9356
:1008B000DF93CDB7DEB728970FB6F894DEBF0FBE33
:1008C000CDBFEEEAF3E017821682118610861A82F7
:1008D0001982808191810197482F9C838B831E828E
:1008E0001D8282819381019798878F830485158566
:1008F00020E03A815C8160E07E8198850E94590306
:1009000028960FB6F894DEBF0FBECDBFDF91CF9112
:100910001F910F910895CF93DF9386E08093750028
:1009200080E8809374003F9A249A8FEC97E00197B7
:10093000F1F700C0000047988FE39CE90197F1F7B9
:1009400000C00000479A9FEF2DEE82E091502040BA
:100950008040E1F700C0000088E290E08093004012
:1009600081E190E0809300409FEF26E781E0915085
:1009700020408040E1F700C0000081E090E02BECD7
:1009800030E0209300408093004120EC30E0209341
:10099000004028E036E2309300412093004121ECF2
:1009A00030E040E150E0209300404093004125ECCE
:1009B00030E0209300402EE335E330930041209354
:1009C000004127EC30E045EB50E02093004040939D
:1009D000004126EF30E02093004080930041D0E0BA
:1009E000C0E0D0930041C09300418AE390E025E548
:1009F00030E0809300402093004181E090E00E942D
:100A000086020E945504EEEAF3E0178216821186F0
:100A10001086158614868FEF9FEF9387828789E271
:100A200090E0809300409FE728E381E091502040D0
:100A30008040E1F700C0000085E390E08093004033
:100A4000C0930041EAE6F0E08081806280832C9AC6
:100A5000DF91CF910895CF92DF92EF92FF920F93A3
:100A60001F93CF93DF932091B6033091B7038A3061
:100A7000E1F41092B5031092B403285F3F4F309316
:100A8000B7032093B6038091B0039091B103281768
:100A9000390708F46AC0DF91CF911F910F91FF9041
:100AA000EF90DF90CF900C94550490EE980F9F3507
:100AB00008F05BC04091B4035091B503EA0124965D
:100AC000B901695F7F4FEBE2F0E0E09300403093C3
:100AD0000041209300417093004160930041082E33
:100AE000000C990B8097A5E0A89FF001A99FF00D3D
:100AF0001124E856FF4F8AE2E82EF12C9CE2C92E21
:100B0000D12CC417D507D0F58AE290E0809300403D
:100B10005093004140930041509300414093004165
:100B20008CE290E0809300406217730708F04FC09A
:100B30008091B4039091B50306969093B50380938A
:100B4000B4032091AE033091AF038217930768F08E
:100B50001092B5031092B4038091B6039091B7033D
:100B600008969093B7038093B603DF91CF911F91BE
:100B70000F91FF90EF90DF90CF900895E0920040AA
:100B800050930041409300415093004140930041F5
:100B9000C0920040B491C901A1E06817790720F420
:100BA0004F5F5F4F3196ADCF1A2F1B2359F0009145
:100BB000B8031091B90310930041009300410196CE
:100BC000AA0FEBCF0091BA031091BB03F4CF809131
:100BD000BA039091BB0390930041809300412F5F33
:100BE0003F4FA2CF1F93CF93DF93EC0110E0FE01A4
:100BF000E10FF11D8081811104C0DF91CF911F9120
:100C000008950E942B051F5FF2CF1F93CF93DF93B0
:100C1000EC017093B5036093B4035093B703409312
:100C2000B60310E0FE01E10FF11D8081811104C0C7
:100C3000DF91CF911F9108950E942B051F5FF2CF86
:100C4000EF92FF920F931F93CF93DF93D0E0C0E01A
:100C500090E8E92EF12C082F10E0C7010C2E02C0FD
:100C6000959587950A94E2F780239123892B71F05B
:100C700081E30E942B052196C830D10571F7DF91E1
:100C8000CF911F910F91FF90EF9008958EE2F1CFD9
:100C9000CF93DF93D82FC92F0E94050C20912403F6
:100CA00030912503280F311D87FD3A953093250398
:100CB000209324038D2F9C2FDF91CF910895B0E0D6
:100CC000A0E09C01AD0184E0220F331F441F551F9B
:100CD0008A95D1F760E072E18AE790E00E945F0CAC
:100CE000DA01C9010197A109B109892F9A2FAB2F08
:100CF000BB278093CD0021502093CC0088E18093C6
:100D0000C9008EE08093CA0008959091C80095FFB5
:100D1000FCCF8093CE0008958091C80087FF03C068
:100D20008091CE00089580E408958091C80087FFE7
:100D3000FCCF8091CE0090E008950F931F93CF9346
:100D4000DF93CDB7DEB72A970FB6F894DEBF0FBE9C
:100D5000CDBF809159028F93809158028F938091DB
:100D60005B028F9380915A028F938CEF91E09F9357
:100D70008F938E010F5F1F4F1F930F930E94EB0EF7
:100D800045E050E065E070E0C8010E9405068091F2
:100D9000BE039091BF030FB6F894DEBF0FBECDBF68
:100DA000009799F444E150E065E070E084E092E05F
:100DB0000E9405062A960FB6F894DEBF0FBECDBF7F
:100DC000DF91CF911F910F9108958130910539F4F2
:100DD00044E150E065E070E08AE092E0E9CF8230E3
:100DE000910539F444E150E065E070E08FE092E075
:100DF000DFCF0397F9F644E150E065E070E085E16C
:100E000092E0D6CF8091BE039091BF03009739F452
:100E100083E090E09093BF038093BE0307C08130CE
:100E2000910531F41092BF031092BE030C949D06FD
:100E30008230910519F481E090E0ECCF0397B1F78F
:100E400082E090E0E7CF8091BE039091BF030097CE
:100E500041F481E090E09093BF038093BE030C9433
:100E60009D068130910519F482E090E0F4CF823044
:100E7000910519F483E090E0EECF039781F710928B
:100E8000BF031092BE03EBCF8F929F92AF92BF929F
:100E9000CF92DF92EF92FF920F931F93CF93DF9346
:100EA000CDB7DEB760970FB6F894DEBF0FBECDBFEB
:100EB000A22E2987B32E3A874B875C876D877E8762
:100EC000882E8F87992E988B680187019501C40120
:100ED0000E94590389859A850296282F9A838983CF
:100EE0008B859C850297482F9C838B838D859E855F
:100EF0000296682F9E838D838F85988902979887A5
:100F00008F8386013A815C817E8198850E94590396
:100F100060960FB6F894DEBF0FBECDBFDF91CF91C4
:100F20001F910F91FF90EF90DF90CF90BF90AF9007
:100F30009F908F900895CF92DF92EF92FF920F9340
:100F40001F93CF93DF93CDB7DEB728970FB6F894F2
:100F5000DEBF0FBECDBF6C01BC0180910C01909132
:100F60000D010E94E20E892BA9F14091C40350911A
:100F7000C503242F5A8349838091BC039091BD03FC
:100F8000840F951F482F9C838B831E821D82809126
:100F9000C2039091C303F12CE12C10E000E03A81F0
:100FA0005C8160E07E810E9444074091C2035091C1
:100FB000C30357FF02C04F5F5F4F55954795609140
:100FC000C4037091C503C6010E940506C0920C01BE
:100FD000D0920D0128960FB6F894DEBF0FBECDBF9C
:100FE000DF91CF911F910F91FF90EF90DF90CF9005
:100FF00008952F923F924F925F926F927F928F92BD
:101000009F92AF92BF92CF92DF92EF92FF920F9397
:101010001F93CF93DF93CDB7DEB72A970FB6F8941F
:10102000DEBF0FBECDBF0E9455040E949D06A0905A
:10103000C403B090C503350123E1620E711C8CE539
:10104000282E82E0382ED12CC12C8091C2039091A1
:10105000C3032101912C812CBA82A9827C826B82EC
:101060009E838D83FC017396FA87E987F887EF8367
:1010700080915A0290915B028C159D0541F48091FC
:101080005802909159028815990509F456C08EE1CD
:101090009CE3F201208131817C010FEF1FEF2115CC
:1010A000310551F000EE17E02130310529F02230F2
:1010B000310561F400E018EF29813A814B815C81B0
:1010C0006D817E818F8198850E94440789859A85EC
:1010D000FFEF8F1A9F0A24E1420E511C3AE083165B
:1010E000910409F0B9CF83E1A80EB11C93E1690E18
:1010F000711CEFEFCE1ADE0AF2E02F0E311C2AE04F
:10110000C216D10409F0A1CF2A960FB6F894DEBF1B
:101110000FBECDBFDF91CF911F910F91FF90EF9048
:10112000DF90CF90BF90AF909F908F907F906F9007
:101130005F904F903F902F9008958FE198EFA9CF47
:101140008EEB90E09093BD038093BC039093C1031A
:101150008093C00381E490E09093C5038093C4031F
:1011600082E390E09093C3038093C2030E94F90747
:1011700043E250E065E070E08AE192E00E940506FB
:101180007894FFCFEF92FF920F931F93CF93DF934B
:10119000CDB7DEB728970FB6F894DEBF0FBECDBF30
:1011A000AC01DB0163E1689F9001699F300D112460
:1011B0008091C4039091C503280F391F6A9FC00115
:1011C0006B9F900D11246091C2037091C303860F31
:1011D000971F3A8329832D5E3F4F3C832B839E8349
:1011E0008D83439698878F8380915A0290915B02FA
:1011F0008417950739F480915802909159028A1703
:101200009B07B9F18EE19CE32AE02A9FF0012B9F16
:10121000F00D1124E40FF51FEE0FFF1FE45AFD4FF0
:10122000208131817C010FEF1FEF2115310551F035
:1012300000EE17E02130310529F02230310561F44C
:1012400000E018EF29813A814B815C816D817E81BC
:101250008F8198850E94440728960FB6F894DEBFC8
:101260000FBECDBFDF91CF911F910F91FF90EF90F7
:1012700008958FE198EFC8CF6AE00E94530C892F40
:101280000895CF93DF9300D000D0CDB7DEB7282FDD
:1012900030E050E040E029833A834B835C83CA010D
:1012A000B9010E948F0D20E030E040E251E46983F3
:1012B0007A838B839C8369817A818B819C810E9454
:1012C000EE0C69837A838B839C8369817A818B811D
:1012D0009C810E94CC0D69837A838B839C83698176
:1012E0007A818B819C810E94600D862F0F900F90D8
:1012F0000F900F90DF91CF9108959AE0699F800D34
:1013000011240895609158027091590280915A02F7
:1013100090915B022AE0269FF001279FF00D112497
:10132000E80FF91FEE0FFF1FE45AFD4F21E030E0F8
:10133000318320830C94C208609158027091590245
:1013400080915A0290915B022AE0269FF001279F2C
:10135000F00D1124E80FF91FEE0FFF1FE45AFD4FA7
:1013600022E030E0318320830C94C208CF93282FF1
:101370006AE00E94530CC92F822F0E9441092EE07F
:1013800031E061E070E0F90150E040E0A081B1811E
:10139000119709F14F5F5F4F74964A305105B1F7CD
:1013A0002E5F3F4F91E02232390769F761307105B6
:1013B000A9F09AE0899FF0011124EC0FF11DEE0FC6
:1013C000FF1FE25FFE4F80819181019751F089E715
:1013D00090E0CF91089570E060E0E2CF8AE790E07E
:1013E000F8CF88E790E0F5CF9AE0699FF0011124EB
:1013F000E80FF11DEE0FFF1FE45AFD4F80810895A5
:101400000E94550481E292E00C949B07CF92DF92F8
:10141000EF92FF920F931F93CF93DF93182FD92F43
:101420008091260390912703892B09F0FBC089E264
:1014300092E00E949B072F9884E00E94100C882362
:1014400001F1C0905A02D0905B02E0905802F090F7
:101450005902C701019797FDC2C09093590280932A
:1014600058020E949D06B701C6010E94C208609101
:1014700058027091590280915A0290915B020E9429
:10148000C20888E00E94100C882311F1E0905A02F3
:10149000F0905B02C0905802D0905902C7010196AB
:1014A0008A3091050CF0A0C090935B0280935A02A1
:1014B0000E949D06B601C7010E94C20860915802B1
:1014C0007091590280915A0290915B020E94C20869
:1014D00080E10E94100C882311F1C0905A02D09034
:1014E0005B02E0905802F0905902C70101968A30E1
:1014F00091050CF07CC090935902809358020E9491
:101500009D06B701C6010E94C20860915802709101
:10151000590280915A0290915B020E94C20880E2B7
:101520000E94100C882301F1E0905A02F0905B02B7
:10153000C0905802D0905902C701019797FD5AC038
:1015400090935B0280935A020E949D06B601C701E8
:101550000E94C208609158027091590280915A020B
:1015600090915B020E94C20880E80E942C0C8823A4
:10157000F9F080915802909159024AE0489F9001F9
:10158000499F300D112480915A0290915B02820F85
:10159000931F0E9485060E949506883781F588E78B
:1015A0000E949C0981E090E090932703809326039A
:1015B0000E94050C9091570298175CF50E94050C4B
:1015C000809357020E942307812F9D2FDF91CF9197
:1015D0001F910F91FF90EF90DF90CF9008951092A0
:1015E0005902109258023DCF89E090E05DCF89E02A
:1015F00090E081CF10925B0210925A02A5CF8937FA
:1016000019F40E948209CECF8A3729F60E94000A77
:10161000C2CF8917CCF60E94050C809357020E9416
:101620000207D2CF2F9A8AE392E00E949B070E9482
:101630009506C82FC436F0F78C2F0E94B609F82EF5
:10164000092F8C2F0E944109382F2AE08C2F622FFE
:101650000E94530C239F90011124F901E90FF11D01
:10166000EE0FFF1FE25FFE4F82E090E091838083E8
:101670008F2D902F0E94850610922703109226032B
:10168000A3CFCF93C82F8A3019F48DE00E94410B6D
:101690008091C80085FFFCCFC093CE008C2FCC0F6B
:1016A000990BCF9108958091C80087FFFCCF80915E
:1016B000CE0090E008951092CD0083E38093CC009B
:1016C00088E18093C90086E08093CA00EAECF3E0E9
:1016D00084EE91E0938382839583848386ED91E009
:1016E000918380830895E1E6F0E080E880831082B2
:1016F000279A2F980E948B040E94F8010C94E10B0A
:10170000F8942CB133E025FF30E024FF02C021E043
:10171000322720912B03231B20FF09C030932B037A
:101720003091C90322703150230F2093C90378945C
:101730000895F89436B14CB123B15091C803306C80
:101740004F6734232F6B32233527532F5095209129
:101750002A03422F4523409540932A036091290391
:101760005623452740932903232B2095242330918A
:10177000C80332273093C8033091C8034091C60391
:101780002323242B2093C6032091C8032C7F19F414
:101790002CE320932803209128033FEF320F2130C0
:1017A00021F030932803789408952AE020932803A9
:1017B0002091C8033091C7032C7F232B2093C703AC
:1017C000F2CF8DB18F7C8DB98EB180638EB96F9859
:1017D000779A87B1837C87B988B18C6388B926985A
:1017E0002E9A30E020E042E050E060E070E080E8D7
:1017F0009BE00E940B0230E020E04AE050E060E015
:1018000070E089E99BE00C940B02F8948091C90385
:101810009091C90391709093C90378948595089528
:10182000982FF8948091C60389239091C603982736
:101830009093C60378940895982FF8948091C703E5
:1018400089239091C70398279093C70378940895AC
:101850009091C80389230895F8949091C8039095B6
:1018600089230C94100C0E941C0C0C94100C0E94E8
:10187000730B80E895E20E945F0621E030E044EFC0
:1018800051E060E070E088E496E00E940B0221E005
:1018900030E044E650E060E070E086E09AE00E94CC
:1018A0000B020E94A008991B79E004C0991F9617AB
:1018B00008F0961B881F7A95C9F780950895A1E2D4
:1018C0001A2EAA1BBB1BFD010DC0AA1FBB1FEE1FBA
:1018D000FF1FA217B307E407F50720F0A21BB30B05
:1018E000E40BF50B661F771F881F991F1A9469F781
:1018F00060957095809590959B01AC01BD01CF01DD
:1019000008955058BB27AA270E94990C0C94230EC7
:101910000E94150E38F00E941C0E20F039F49F3FF3
:1019200019F426F40C94120E0EF4E095E7FB0C94D7
:10193000E30DE92F0E94340E58F3BA1762077307BC
:101940008407950720F079F4A6F50C946E0E0EF43A
:10195000E0950B2EBA2FA02D0B01B90190010C01BF
:10196000CA01A0011124FF27591B99F0593F50F4D7
:10197000503E68F11A16F040A22F232F342F44272F
:10198000585FF3CF469537952795A795F040539527
:10199000C9F77EF41F16BA0B620B730B840BBAF0F7
:1019A0009150A1F0FF0FBB1F661F771F881FC2F762
:1019B0000EC0BA0F621F731F841F48F48795779576
:1019C0006795B795F7959E3F08F0B0CF9395880F30
:1019D00008F09927EE0F9795879508950E94020DBC
:1019E0000C94230E0E941C0E58F00E94150E40F01D
:1019F00029F45F3F29F00C94E30D51110C946F0E04
:101A00000C94120E0E94340E68F39923B1F35523FF
:101A100091F3951B550BBB27AA2762177307840701
:101A200038F09F5F5F4F220F331F441FAA1FA9F397
:101A300035D00E2E3AF0E0E832D091505040E69585
:101A4000001CCAF72BD0FE2F29D0660F771F881FE6
:101A5000BB1F261737074807AB07B0E809F0BB0BD9
:101A6000802DBF01FF2793585F4F3AF09E3F5105ED
:101A700078F00C94E30D0C946F0E5F3FE4F3983E06
:101A8000D4F3869577956795B795F7959F5FC9F7D6
:101A9000880F911D9695879597F90895E1E0660F57
:101AA000771F881FBB1F621773078407BA0720F0D0
:101AB000621B730B840BBA0BEE1F88F7E095089539
:101AC0000E943C0E88F09F5798F0B92F9927B75184
:101AD000B0F0E1F0660F771F881F991F1AF0BA95D2
:101AE000C9F714C0B13091F00E946E0EB1E00895B4
:101AF0000C946E0E672F782F8827B85F39F0B93FA6
:101B0000CCF3869577956795B395D9F73EF4909584
:101B10008095709561957F4F8F4F9F4F0895E89402
:101B200009C097FB3EF490958095709561957F4F25
:101B30008F4F9F4F9923A9F0F92F96E9BB279395D3
:101B4000F695879577956795B795F111F8CFFAF4E3
:101B5000BB0F11F460FF1BC06F5F7F4F8F4F9F4F14
:101B600016C0882311F096E911C0772321F09EE872
:101B7000872F762F05C0662371F096E8862F70E0D8
:101B800060E02AF09A95660F771F881FDAF7880FB2
:101B90009695879597F908950E94560E90F09F3775
:101BA00048F4911116F00C946F0E60E070E080E83C
:101BB0009FEB089526F41B16611D711D811D0C9469
:101BC000E90D0C94040E97F99F6780E870E060E0DF
:101BD0000895882371F4772321F09850872B762F6E
:101BE00007C0662311F499270DC09051862B70E031
:101BF00060E02AF09A95660F771F881FDAF7880F42
:101C00009695879597F908959F3F31F0915020F46C
:101C1000879577956795B795880F911D96958795C8
:101C200097F908959FEF80EC089500240A94161602
:101C3000170618060906089500240A9412161306BA
:101C4000140605060895092E0394000C11F4882348
:101C500052F0BB0F40F4BF2B11F460FF04C06F5F64
:101C60007F4F8F4F9F4F089557FD9058440F551F3A
:101C700059F05F3F71F04795880F97FB991F61F00E
:101C80009F3F79F087950895121613061406551F85
:101C9000F2CF4695F1DF08C0161617061806991FF1
:101CA000F1CF869571056105089408950E943C0E58
:101CB000A0F0BEE7B91788F4BB279F3860F416166A
:101CC000B11D672F782F8827985FF7CF8695779576
:101CD0006795B11D93959639C8F30895E894BB278D
:101CE00066277727CB0197F908950E94880E0C94F8
:101CF000230E0E94150E38F00E941C0E20F0952332
:101D000011F00C94E30D0C94120E11240C946F0E30
:101D10000E94340E70F3959FC1F3950F50E0551F4C
:101D2000629FF001729FBB27F00DB11D639FAA2730
:101D3000F00DB11DAA1F649F6627B00DA11D661F7F
:101D4000829F2227B00DA11D621F739FB00DA11DA0
:101D5000621F839FA00D611D221F749F3327A00D5A
:101D6000611D231F849F600D211D822F762F6A2FF6
:101D700011249F5750409AF0F1F088234AF0EE0F5B
:101D8000FF1FBB1F661F771F881F91505040A9F788
:101D90009E3F510580F00C94E30D0C946F0E5F3F55
:101DA000E4F3983ED4F3869577956795B795F795C4
:101DB000E7959F5FC1F7FE2B880F911D969587953C
:101DC00097F90895FB01DC018D91019080190110B4
:101DD000D9F3990B08950F931F93CF93DF93CDB74A
:101DE000DEB72E970FB6F894DEBF0FBECDBF0D89BC
:101DF0001E8986E08C831A8309838FEF9FE79E8379
:101E00008D83AE01475E5F4F6F89788DCE0101965D
:101E10000E941B0F2F813885020F131FF8011082BB
:101E20002E960FB6F894DEBF0FBECDBFDF91CF91D7
:101E30001F910F9108952F923F924F925F926F9250
:101E40007F928F929F92AF92BF92CF92DF92EF924A
:101E5000FF920F931F93CF93DF93CDB7DEB72F97EA
:101E60000FB6F894DEBF0FBECDBF7C013B018A01E7
:101E7000DC0117961C921E92169713968C9181FF87
:101E8000D8C19AE0292EFE0131964F01D701139651
:101E90009C91F30193FD859193FF81913F018823EC
:101EA00009F448C1853239F493FD859193FF8191FE
:101EB0003F01853229F4B70190E00E943211E6CF4C
:101EC000B12C412C512CBFE1B51538F08B3209F102
:101ED00088F4803201F1833221F157FC3AC020EDC1
:101EE000280F2A3040F556FE1FC0B29C200D112449
:101EF000B22E06C08D3291F0803379F7689450F895
:101F0000F30193FD859193FF81913F018111DBCF17
:101F100020C0689451F8689452F8F2CF689453F84E
:101F2000EFCF689454F8ECCF429C200D1124422E40
:101F3000689455F8E5CF8E3229F456FCFBC06894BE
:101F400056F8DECF8C3619F4689457F8D9CF883616
:101F5000B9F2982F9F7D95549330C0F08336A1F14C
:101F60008337C1F1833509F05BC0D801CD90DD9096
:101F70008D016B2D70E056FC02C06FEF7FEFC60144
:101F80000E941C115C01689457F80AC00C5F1F4F37
:101F9000EFE3E983AA24A394B12C6401E89457F8F1
:101FA00053FC04C04A141B0409F018F5342CA11486
:101FB000B10431F5332009F469CFB70180E290E034
:101FC0000E9432113A94F6CFD8018C9189830E5F2A
:101FD0001F4FE0CFF801C190D1908F016B2D70E0C1
:101FE00056FC02C06FEF7FEFC6010E9427115C0113
:101FF000D5CFB70180E290E00E9432114A94D2CF4F
:10200000F60157FC859157FE81916F01B70190E071
:102010000E94321131103A94B1E0AB1AB108C7CF27
:10202000843619F0893609F074C0F80157FE6AC089
:1020300061917191819191918F01E52DEF76DE2E65
:1020400097FF09C090958095709561957F4F8F4F50
:102050009F4F6894D7F82AE030E0A4010E946211F3
:10206000C82EC818AC2C5D2CD6FE0CC0E89450F8D5
:10207000CB1440F4D4FE05C0D2FC03C05D2D5E7EBF
:10208000552EAB2C54FEADC0FE01EC0DF11D808130
:10209000803309F09FC0652D697E562E752D7870AE
:1020A000372E53FCADC050FEA7C0BC2CA41418F4AE
:1020B0004C0CB42CBA1854FEA9C0B70180E390E0D0
:1020C0000E94321152FE09C088E790E051FE02C022
:1020D00088E590E0B7010E943211CB1408F4A2C049
:1020E000CA94D12C8FEFC81AD80AC80CD91CD601B3
:1020F0008E916D01B70190E00E9432118C149D0405
:10210000B1F758CF61917191072E000C880B990B94
:1021100093CFD52CE894D4F82AE030E08537E1F16C
:10212000F52DF97FDF2E803751F100F5883551F11B
:102130008F3681F1F701868197812F960FB6F8943B
:10214000DEBF0FBECDBFDF91CF911F910F91FF90EA
:10215000EF90DF90CF90BF90AF909F908F907F9047
:102160006F905F904F903F902F900895883711F7B0
:10217000D4FE02C06894D2F820E130E00DC068942B
:10218000D4F8F6CF54FE03C02F2F2660D22E20E1C4
:1021900032E002C028E030E0F801D7FE15C04191DE
:1021A0005191619171914C875D876E877F878F0117
:1021B000A4016C857D858E859F850E946211C82E45
:1021C000C818E894D7F84ECF81919191AC0170E096
:1021D00060E0E9CF52FC02C0A39460CFA394A39423
:1021E0005DCF852D867809F459CFF6CFB70180E20F
:1021F00090E00E943211A394A414C0F3312C5BCF61
:10220000342C3A18A41408F456CFF8CF852D8678CC
:1022100009F463CF8BE251FE80E257FC8DE2B701F7
:1022200090E059CFB70180E390E00E943211BA9458
:1022300054CF8FEF9FEF81CFFC010590615070402C
:102240000110D8F7809590958E0F9F1F0895FC017F
:102250006150704001900110D8F7809590958E0FD5
:102260009F1F08950F931F93CF93DF93182F092F6C
:10227000EB018B8181FD09C01FEF0FEF812F902FA4
:10228000DF91CF911F910F91089582FF14C02E818D
:102290003F818C819D81281739073CF4E881F981C1
:1022A000CF0101969983888310838E819F81019647
:1022B0009F838E83E3CFE885F985812F0995892B4C
:1022C000A1F3DACFFA01AA27283051F1203181F1A8
:1022D000E8946F936E7F6E5F7F4F8F4F9F4FAF4F2E
:1022E000B1E03ED0B4E03CD0670F781F891F9A1F41
:1022F000A11D680F791F8A1F911DA11D6A0F711DF5
:10230000811D911DA11D20D009F468943F912AE000
:10231000269F11243019305D3193DEF6CF010895E8
:10232000462F4770405D4193B3E00FD0C9F7F6CF19
:10233000462F4F70405D4A3318F0495D31FD4052E1
:10234000419302D0A9F7EACFB4E0A6959795879577
:1023500077956795BA95C9F7009761057105089556
:102360009B01AC010A2E0694579547953795279502
:10237000BA95C9F7620F731F841F951FA01D08959A
:04238000F894FFCFFF
:10238400FF00000000000000000000FF3902000010
:102394000000000000000000000000000000000039
:1023A4000000000000000000000000000000010028
:1023B4000100010000000000000000000000000017
:1023C4000000000000000000000000000000000009
:1023D40000000100000000000100000000000000F7
:1023E40000000000000001000000000001000000E7
:1023F40000000000000000000000010000000000D8
:1024040001000000000000000000000000000000C7
:1024140000000000000000000000010000000000B7
:1024240000000000000000000000000000000100A7
:102434000000000000000000000000000000000098
:102444000000010000000000000000000000000087
:102454000000000000000000000100000000000077
:10246400530B00000000000200000000410B0000BC
:102474000000FF0000000A00130013002825642C4C
:10248400256429004E6F72746800456173740053AB
:102494006F757468005765737400506C61792030EF
:1024A40000596F7520776F6E004974206973207925
:1024B4006F7572207475726E210057616974696E4C
:1024C4006720666F72206F7468657220706C617922
:0424D400657200002D
:00000001FF
