:100000000C943A010C9459010C9459010C94590127
:100010000C9459010C9459010C9459010C945901F8
:100020000C9459010C9459010C9459010C945901E8
:100030000C9459010C9459010C9459010C945901D8
:100040000C9459010C9459010C9459010C945901C8
:100050000C9459010C9459010C9459010C945B01B6
:100060000C9459010C9459010C9459010C945901A8
:100070000C9459010C9459010C9459010C94590198
:100080000C9459010C9459010C9459010C94590188
:100090000C9459010C945901000000000000005F0D
:1000A00000000003000300143E143E14242A7F2A9B
:1000B000124333086661364955225000050300009B
:1000C000001C2241000041221C0014083E081408B4
:1000D000083E0808005030000008080808080060C2
:1000E00060000020100804023E5149453E00040211
:1000F0007F00426151494622414949361814127F16
:100100001027454545393E494949320101710907E2
:100110003649494936264949493E003636000000ED
:10012000563600000814224100141414141400411F
:1001300022140802015109063E4159555E7E090903
:10014000097E7F494949363E414141227F41414133
:100150003E7F494949417F090909013E4141493AE8
:100160007F0808087F00417F4100304040403F7FCA
:10017000081422417F404040407F020C027F7F02F2
:1001800004087F3E4141413E7F090909061E2121A5
:10019000215E7F09090976264949493201017F011B
:1001A000013F4040403F1F2040201F7F2010207F04
:1001B00041221C224107087008076151494543004C
:1001C0007F41000002040810200000417F0004026B
:1001D0000102044040404040000102040020545409
:1001E00054787F4444443838444444443844444474
:1001F0007F385454541804047E0505085454543C64
:100200007F0804047800447D40002040443D007F86
:100210001028440000417F40007C047804787C086A
:1002200004047838444444387C1414140808141422
:10023000147C007C080404485454542004043F44B3
:10024000443C4040207C1C2040201C3C4030403C32
:1002500044281028440C5050503C4464544C4400F2
:100260000836414100007F0000414136080002018C
:100270000204020011241FBECFEFD0E2DEBFCDBFCB
:1002800012E0A0E0B1E0ECE8F4E200E00BBF02C055
:1002900007900D92AE36B107D9F723E0AEE6B2E093
:1002A00001C01D92A83EB207E1F70E94BB0C0C945E
:1002B00044120C9400001F920F920FB60F9211245B
:1002C0000BB60F92CF92DF92EF92FF920F931F9394
:1002D0002F933F934F935F936F937F938F939F934E
:1002E000AF93BF93CF93DF93EF93FF9310E00DE0B5
:1002F000DD24D394CC24CA94E12EF12C80910B01FF
:10030000082E000C990B8E159F05DCF4FF91EF91E0
:10031000DF91CF91BF91AF919F918F917F916F911D
:100320005F914F913F912F911F910F91FF90EF900F
:10033000DF90CF900F900BBE0F900FBE0F901F90CD
:1003400018950E9DE0010F9DD00D1124CC5BDC4F64
:100350004D815E816F81788589819A81AB81BC8175
:10036000481759076A077B0778F1E0917002F0E0BF
:10037000E050FF4F8081181738F58881811124C023
:10038000F8941D821E821F821886D882E091700226
:10039000EF5FE0937002F0E0E050FF4F108378943D
:1003A000E985FA858B859C8509959C878B87F894D0
:1003B000188280917002E82FF0E0E050FF4FC08279
:1003C00081508093700278940E9DF0010F9DF00D86
:1003D0001124EC5BFC4F85819681A781B085019645
:1003E000A11DB11D85839683A783B0871F5F84CF2E
:1003F00083E884BD85B5836085BD81E080936E0010
:1004000016BC8FEF87BD0895882319F087BD279A02
:10041000089527980895EF92FF920F931F93CF931B
:10042000DF9300D000D000D0CDB7DEB77C01CB0188
:10043000BA01890120910B01422F042E000C550BAB
:100440004F5F5F4F5E834D834A3051050CF050C0C3
:100450000E94130E25E732E04AEF5EE369837A8358
:100460008B839C8369817A818B819C810E94F90EA8
:1004700020E030E040E05FE369837A838B839C83F4
:1004800069817A818B819C810E94060D69837A83C0
:100490008B839C8369817A818B819C810E94E40D8E
:1004A0002DE04D815E81249FF001259FF00D1124E8
:1004B000EC5BFC4F618372838383948365837683D3
:1004C000878390871082E186F286038714874093A2
:1004D0000B018D819E8126960FB6F894DEBF0FBE6C
:1004E000CDBFDF91CF911F910F91FF90EF900895B5
:1004F0008FEF9FEF9E838D83ECCF93E89093B000B6
:1005000091E09093B1008093B30008959C01909383
:10051000CB038093CA0386E390E0809300402115CB
:100520003105A9F580EF90E09093C7038093C6034F
:1005300080E491E09093C9038093C80388E490E03D
:10054000809300418AE290E08093004030E020E018
:1005500030930041209300418091C6039091C703DE
:10056000019790930041809300418BE290E080934B
:10057000004030930041209300418091C803909146
:10058000C903019790930041809300410895213061
:10059000310579F480E491E09093C7038093C6031A
:1005A00080EF90E09093C9038093C80388EE90E0B9
:1005B000C7CF2230310579F480EF90E09093C703E4
:1005C0008093C60380E491E09093C9038093C803AD
:1005D00088E890E0B5CF2330310509F0B3CF80E44F
:1005E00091E09093C7038093C60380EF90E09093CF
:1005F000C9038093C80388E290E0A2CFCF93DF9332
:1006000000D000D00F92CDB7DEB7873708F044C0D6
:10061000883008F444C08D3308F03FC08F3108F0B3
:1006200042C0803108F442C022E02D8321EB30E04B
:10063000209300409D8190930041282F30E050E0AE
:1006400040E029833A834B835C83CA01B9010E944D
:10065000150E9B01AC0160E070E080EF94E40E9415
:10066000720D69837A838B839C8369817A818B8104
:100670009C810E94E40D70E00D8002C07595679525
:100680000A94E2F7609300410F900F900F900F9043
:100690000F90DF91CF91089586E71D82C7CF88E044
:1006A00033E03D83C3CF41E04D83C0CF53E05D8352
:1006B000BDCF0F931F93CF93DF93CDB7DEB72897AE
:1006C0000FB6F894DEBF0FBECDBF29833A834B83AC
:1006D0005C836D837E838F839887A801E981FA818B
:1006E0002B813C816D817E818F819885AAE2B0E06B
:1006F000A0930040F0930041E0930041309300410B
:1007000020930041ABE2B0E0A09300407093004121
:10071000609300419093004180930041ACE2B0E0CF
:10072000A09300402F5F3F4F2E1B3F0B0196861B6F
:10073000970B2817390750F5E82FE770E29FB001B3
:10074000E39F700D1124F3E096958795FA95E1F7F4
:10075000829FF001839FF00D1124962F9770915086
:1007600038F5CB0123E0969587952A95E1F78E0F12
:100770009F1F019710F528960FB6F894DEBF0FBEA5
:10078000CDBFDF91CF911F910F910895E22FE770B8
:10079000E89FB001E99F700D1124E3E0369527959D
:1007A000EA95E1F7289FF001299FF00D1124D5CF9C
:1007B0005093004140930041D2CF50930041409369
:1007C00000415093004140930041509300414093B9
:1007D00000415093004140930041509300414093A9
:1007E0000041509300414093004150930041409399
:1007F00000415093004140930041BBCF0F931F93A2
:10080000CF93DF93CDB7DEB728970FB6F894DEBF4E
:100810000FBECDBF29833A834B835C836D837E8378
:100820008F83988789819A814B815C816D817E81DC
:10083000AF81B8852AE230E02093004090930041D8
:100840008093004150930041409300412BE230E0FF
:10085000209300407093004160930041B0930041A9
:10086000A09300412CE230E0209300404817590744
:10087000D0F428960FB6F894DEBF0FBECDBFDF913F
:10088000CF911F910F910895F8010191119110934B
:100890000041009300412F5F3F4F8F01A217B30724
:1008A00098F70196E3CF9B01F9CF0F931F93CF9356
:1008B000DF93CDB7DEB728970FB6F894DEBF0FBE33
:1008C000CDBFE6ECF3E017821682118610861A82FD
:1008D0001982808191810197482F9C838B831E828E
:1008E0001D8282819381019798878F830485158566
:1008F00020E03A815C8160E07E8198850E94590306
:1009000028960FB6F894DEBF0FBECDBFDF91CF9112
:100910001F910F910895CF93DF9386E08093750028
:1009200080E8809374003F9A249A8FEC97E00197B7
:10093000F1F700C0000047988FE39CE90197F1F7B9
:1009400000C00000479A9FEF2DEE82E091502040BA
:100950008040E1F700C0000088E290E08093004012
:1009600081E190E0809300409FEF26E781E0915085
:1009700020408040E1F700C0000081E090E02BECD7
:1009800030E0209300408093004120EC30E0209341
:10099000004028E036E2309300412093004121ECF2
:1009A00030E040E150E0209300404093004125ECCE
:1009B00030E0209300402EE335E330930041209354
:1009C000004127EC30E045EB50E02093004040939D
:1009D000004126EF30E02093004080930041D0E0BA
:1009E000C0E0D0930041C09300418AE390E025E548
:1009F00030E0809300402093004181E090E00E942D
:100A000086020E945504E6ECF3E0178216821186F6
:100A10001086158614868FEF9FEF9387828789E271
:100A200090E0809300409FE728E381E091502040D0
:100A30008040E1F700C0000085E390E08093004033
:100A4000C0930041EAE6F0E08081806280832C9AC6
:100A5000DF91CF910895CF92DF92EF92FF920F93A3
:100A60001F93CF93DF932091CE033091CF038A3031
:100A7000E1F41092CD031092CC03285F3F4F3093E6
:100A8000CF032093CE038091C8039091C903281708
:100A9000390708F46AC0DF91CF911F910F91FF9041
:100AA000EF90DF90CF900C94550490EE980F9F3507
:100AB00008F05BC04091CC035091CD03EA0124962D
:100AC000B901695F7F4FEBE2F0E0E09300403093C3
:100AD0000041209300417093004160930041082E33
:100AE000000C990B8097A5E0A89FF001A99FF00D3D
:100AF0001124E856FF4F8AE2E82EF12C9CE2C92E21
:100B0000D12CC417D507D0F58AE290E0809300403D
:100B10005093004140930041509300414093004165
:100B20008CE290E0809300406217730708F04FC09A
:100B30008091CC039091CD0306969093CD03809342
:100B4000CC032091C6033091C7038217930768F046
:100B50001092CD031092CC038091CE039091CF03DD
:100B600008969093CF038093CE03DF91CF911F918E
:100B70000F91FF90EF90DF90CF900895E0920040AA
:100B800050930041409300415093004140930041F5
:100B9000C0920040B491C901A1E06817790720F420
:100BA0004F5F5F4F3196ADCF1A2F1B2359F0009145
:100BB000D0031091D103109300410093004101969E
:100BC000AA0FEBCF0091D2031091D303F4CF809101
:100BD000D2039091D30390930041809300412F5F03
:100BE0003F4FA2CF1F93CF93DF93EC0110E0FE01A4
:100BF000E10FF11D8081811104C0DF91CF911F9120
:100C000008950E942B051F5FF2CF1F93CF93DF93B0
:100C1000EC017093CD036093CC035093CF034093CA
:100C2000CE0310E0FE01E10FF11D8081811104C0AF
:100C3000DF91CF911F9108950E942B051F5FF2CF86
:100C4000EF92FF920F931F93CF93DF93D0E0C0E01A
:100C500090E8E92EF12C082F10E0C7010C2E02C0FD
:100C6000959587950A94E2F780239123892B71F05B
:100C700081E30E942B052196C830D10571F7DF91E1
:100C8000CF911F910F91FF90EF9008958EE2F1CFD9
:100C9000CF93DF93D82FC92F0E94890C20913E0358
:100CA00030913F03280F311D87FD3A9530933F0364
:100CB00020933E038D2F9C2FDF91CF910895B0E0BC
:100CC000A0E09C01AD0184E0220F331F441F551F9B
:100CD0008A95D1F760E072E18AE790E00E94E30C28
:100CE000DA01C9010197A109B109892F9A2FAB2F08
:100CF000BB278093CD0021502093CC0088E18093C6
:100D0000C9008EE08093CA0008959091C80095FFB5
:100D1000FCCF8093CE0008958091C80087FF03C068
:100D20008091CE00089580E408958091C80087FFE7
:100D3000FCCF8091CE0090E008950F931F93CF9346
:100D4000DF93CDB7DEB72A970FB6F894DEBF0FBE9C
:100D5000CDBF809173028F93809172028F938091A7
:100D600075028F93809174028F9380E092E09F933D
:100D70008F938E010F5F1F4F1F930F930E946F0F72
:100D800045E050E065E070E0C8010E9405068091F2
:100D9000D6039091D7030FB6F894DEBF0FBECDBF38
:100DA000009799F444E150E065E070E088E092E05B
:100DB0000E9405062A960FB6F894DEBF0FBECDBF7F
:100DC000DF91CF911F910F9108958130910539F4F2
:100DD00044E150E065E070E08EE092E0E9CF8230DF
:100DE000910539F444E150E065E070E083E192E080
:100DF000DFCF0397F9F644E150E065E070E089E168
:100E000092E0D6CF8091D6039091D703009739F422
:100E100083E090E09093D7038093D60307C081309E
:100E2000910531F41092D7031092D6030C949D06CD
:100E30008230910519F481E090E0ECCF0397B1F78F
:100E400082E090E0E7CF8091D6039091D70300979E
:100E500041F481E090E09093D7038093D6030C9403
:100E60009D068130910519F482E090E0F4CF823044
:100E7000910519F483E090E0EECF039781F710928B
:100E8000D7031092D603EBCF8F929F92AF92BF926F
:100E9000CF92DF92EF92FF920F931F93CF93DF9346
:100EA000CDB7DEB760970FB6F894DEBF0FBECDBFEB
:100EB000A22E2987B32E3A874B875C876D877E8762
:100EC000882E8F87992E988B680187019501C40120
:100ED0000E94590389859A850296282F9A838983CF
:100EE0008B859C850297482F9C838B838D859E855F
:100EF0000296682F9E838D838F85988902979887A5
:100F00008F8386013A815C817E8198850E94590396
:100F100060960FB6F894DEBF0FBECDBFDF91CF91C4
:100F20001F910F91FF90EF90DF90CF90BF90AF9007
:100F30009F908F900895CF92DF92EF92FF920F9340
:100F40001F93CF93DF93CDB7DEB728970FB6F894F2
:100F5000DEBF0FBECDBF6C01BC0180910E01909130
:100F60000F010E94660F892B09F43EC02091DC031B
:100F70003091DD033A8329838091D4039091D50386
:100F8000820F931F9C838B831E821D828091DA03C4
:100F90009091DB0397FD01969595879598878F83B0
:100FA000F12CE12C10E000E029813A814B815C8139
:100FB0006D817E8198850E9444074091DA035091AB
:100FC000DB0357FF02C04D5F5F4F55954795559521
:100FD00047956091DC037091DD03C6010E94050610
:100FE000C0920E01D0920F0128960FB6F894DEBF82
:100FF0000FBECDBFDF91CF911F910F91FF90EF906A
:10100000DF90CF900895CF92DF92EF92FF920F93EF
:101010001F93CF93DF93CDB7DEB728970FB6F89421
:10102000DEBF0FBECDBF6C01BC0180910C01909161
:101030000D010E94660F892B09F446C02091DC0344
:101040003091DD033A8329838091D4039091D503B5
:10105000820F931F9C838B838091DA039091DB0333
:101060009C0197FF02C02F5F3F4F35952795622F58
:101070003E832D8398878F83F12CE12C10E000E0D4
:1010800029813A814B815C817E8198850E94440749
:101090004091DA035091DB0357FF02C04D5F5F4F71
:1010A0005595479555954795CA01880F991F480F43
:1010B000591F6091DC037091DD03C6010E94050693
:1010C000C0920C01D0920D0128960FB6F894DEBFA5
:1010D0000FBECDBFDF91CF911F910F91FF90EF9089
:1010E000DF90CF9008952F923F924F925F926F9230
:1010F0007F928F929F92AF92BF92CF92DF92EF92A8
:10110000FF920F931F93CF93DF93CDB7DEB72A974C
:101110000FB6F894DEBF0FBECDBF0E9455040E94EB
:101120009D06A090DC03B090DD03350123E1620E43
:10113000711C86E7282E82E0382ED12CC12C80919C
:10114000DA039091DB032101912C812CBA82A982D0
:101150007C826B829E838D83FC017396FA87E9877C
:10116000F887EF8380917402909175028C159D052C
:1011700041F480917202909173028815990509F4E7
:1011800056C08EE19CE3F201208131817C010FEF9A
:101190001FEF2115310551F000E114E82130310530
:1011A00029F02230310561F400E018EF29813A81FD
:1011B0004B815C816D817E818F8198850E9444077F
:1011C00089859A85FFEF8F1A9F0A24E1420E511CF0
:1011D0003AE08316910409F0B9CF83E1A80EB11C5F
:1011E00093E1690E711CEFEFCE1ADE0AF2E02F0ECA
:1011F000311C2AE0C216D10409F0A1CF2A960FB6FD
:10120000F894DEBF0FBECDBFDF91CF911F910F913C
:10121000FF90EF90DF90CF90BF90AF909F908F9016
:101220007F906F905F904F903F902F9008958FE147
:1012300098EFA9CF8EEB90E09093D5038093D403E1
:101240009093D9038093D80381E490E09093DD03D9
:101250008093DC0382E390E09093DB038093DA03D6
:101260000E94730843E250E065E070E08EE192E096
:101270000E9405067894FFCFEF92FF920F931F9381
:10128000CF93DF93CDB7DEB728970FB6F894DEBFC4
:101290000FBECDBFAC01DB0163E1689F9001699F88
:1012A000300D11248091DC039091DD03280F391F4C
:1012B0006A9FC0016B9F900D11246091DA037091B9
:1012C000DB03860F971F3A8329832D5E3F4F3C83B4
:1012D0002B839E838D83439698878F83809174029E
:1012E000909175028417950739F48091720290915C
:1012F00073028A179B07B9F18EE19CE32AE02A9FCB
:10130000F0012B9FF00D1124E40FF51FEE0FFF1FCE
:10131000EA58FD4F208131817C010FEF1FEF21152D
:10132000310551F000E114E82130310529F0223077
:10133000310561F400E018EF29813A814B815C812D
:101340006D817E818F8198850E94440728960FB613
:10135000F894DEBF0FBECDBFDF91CF911F910F91EB
:10136000FF90EF9008958FE198EFC8CF6AE00E9458
:10137000D70C892F0895CF93DF9300D000D0CDB73D
:10138000DEB7282F30E050E040E029833A834B83DA
:101390005C83CA01B9010E94130E20E030E040E2F4
:1013A00051E469837A838B839C8369817A818B8101
:1013B0009C810E94720D69837A838B839C836981EF
:1013C0007A818B819C810E94500E69837A838B8302
:1013D0009C8369817A818B819C810E94E40D862F98
:1013E0000F900F900F900F90DF91CF9108959AE09A
:1013F000699F800D112408956091720270917302AB
:1014000080917402909175022AE0269FF001279F37
:10141000F00D1124E80FF91FEE0FFF1FEA58FD4FE2
:1014200021E030E0318320830C943C09609172020A
:101430007091730280917402909175022AE0269F48
:10144000F001279FF00D1124E80FF91FEE0FFF1F89
:10145000EA58FD4F22E030E0318320830C943C09B0
:10146000CF93282F6AE00E94D70CC92F822F0E94A9
:10147000BB0920E131E061E070E0F90150E040E0BB
:10148000A081B181119709F14F5F5F4F74964A3087
:101490005105B1F72E5F3F4F91E02432390769F7CC
:1014A00061307105A9F09AE0899FF0011124EC0FD9
:1014B000F11DEE0FFF1FE05FFE4F808191810197CC
:1014C00051F089E790E0CF91089570E060E0E2CFBD
:1014D0008AE790E0F8CF88E790E0F5CF9AE0699F3F
:1014E000F0011124E80FF11DEE0FFF1FEA58FD4F28
:1014F000808108950E94550485E292E00C949B0738
:10150000CF92DF92EF92FF920F931F93CF93DF93CF
:10151000182FD92F8091D8019091D901892B09F0EA
:1015200005C18DE292E00E949B072F9884E00E9403
:10153000940C882301F1C0907402D0907502E09061
:101540007202F0907302C701019797FDC6C0909395
:101550007302809372020E949D06B701C6010E9429
:101560003C096091720270917302809174029091B3
:1015700075020E943C0988E00E94940C882311F1B6
:10158000E0907402F0907502C0907202D0907302E5
:10159000C70101968A3091050CF0A4C090937502A2
:1015A000809374020E949D06B601C7010E943C0907
:1015B0006091720270917302809174029091750231
:1015C0000E943C0980E10E94940C882311F1C09094
:1015D0007402D0907502E0907202F0907302C7011D
:1015E00001968A3091050CF080C09093730280932D
:1015F00072020E949D06B701C6010E943C096091DB
:1016000072027091730280917402909175020E942F
:101610003C0980E20E94940C882301F1E09074025E
:10162000F0907502C0907202D0907302C7010197CA
:1016300097FD5EC090937502809374020E949D0690
:10164000B601C7010E943C09609172027091730259
:1016500080917402909175020E943C0980E80E947A
:10166000B00C882319F180917202909173024AE0C4
:10167000489F9001499F300D1124809174029091F0
:101680007502820F931F0E9485060E949506883777
:10169000A1F58EE392E00E94030888E70E94160AF3
:1016A00081E090E09093D9018093D8010E94890C49
:1016B0009091710298178CF50E94890C80937102A9
:1016C0000E942307812F9D2FDF91CF911F910F91B2
:1016D000FF90EF90DF90CF900895109273021092D8
:1016E000720239CF89E090E059CF89E090E07DCF58
:1016F0001092750210927402A1CF893741F487E4E9
:1017000092E00E94030889E70E94FC09C9CF8A374A
:1017100009F0BBCF0E947A0AB8CF89179CF60E94C5
:10172000890C809371020E940207CCCF2F9A81E529
:1017300092E00E949B070E949506C82FC436F0F7DE
:101740008C2F0E94300AF82E092F8C2F0E94BB0983
:10175000382F2AE08C2F622F0E94D70C239F9001F4
:101760001124F901E90FF11DEE0FFF1FE05FFE4F9D
:1017700082E090E0918380838F2D902F0E948506D8
:101780001092D9011092D8019DCFCF93C82F8A30E3
:1017900019F48DE00E94C50B8091C80085FFFCCF35
:1017A000C093CE008C2FCC0F990BCF9108958091D0
:1017B000C80087FFFCCF8091CE0090E00895109282
:1017C000CD0083E38093CC0088E18093C90086E05C
:1017D0008093CA00E2EEF3E088EE91E09383828387
:1017E000958384838AED91E0918380830895E1E677
:1017F000F0E080E880831082279A2F980E948B0463
:101800000E94F8010C94650CF8942CB133E025FF8C
:1018100030E024FF02C021E0322720914303231B44
:1018200020FF09C0309343033091E103227031500F
:10183000230F2093E10378940895F89436B14CB1C6
:1018400023B15091E003306C4F6734232F6B322368
:101850003527532F509520914203422F4523409521
:10186000409342036091410356234527409341032F
:10187000232B209524233091E00332273093E0037B
:101880003091E0034091DE032323242B2093DE03D9
:101890002091E0032C7F19F42CE320934003209146
:1018A00040033FEF320F213021F030934003789412
:1018B00008952AE0209340032091E0033091DF0354
:1018C0002C7F232B2093DF03F2CF8DB18F7C8DB93A
:1018D0008EB180638EB96F98779A87B1837C87B910
:1018E00088B18C6388B926982E9A30E020E042E0D7
:1018F00050E060E070E084E09CE00E940B0230E089
:1019000020E04AE050E060E070E08DE19CE00C9463
:101910000B02F8948091E1039091E1039170909310
:10192000E103789485950895982FF8948091DE03CB
:1019300089239091DE0398279093DE03789408958D
:10194000982FF8948091DF0389239091DF039827E3
:101950009093DF03789408959091E003892308958C
:10196000F8949091E003909589230C94940C0E9434
:10197000A00C0C94940C0E94F70B80E895E20E9456
:101980005F0621E030E044EF51E060E070E088E481
:1019900096E00E940B0221E030E044E650E060E077
:1019A00070E080E89AE00E940B020E941A09991BDD
:1019B00079E004C0991F961708F0961B881F7A9546
:1019C000C9F780950895A1E21A2EAA1BBB1BFD0141
:1019D0000DC0AA1FBB1FEE1FFF1FA217B307E4070E
:1019E000F50720F0A21BB30BE40BF50B661F771F66
:1019F000881F991F1A9469F7609570958095909546
:101A00009B01AC01BD01CF0108955058BB27AA2707
:101A10000E941D0D0C94A70E0E94990E38F00E9492
:101A2000A00E20F039F49F3F19F426F40C94960E82
:101A30000EF4E095E7FB0C94670EE92F0E94B80EB8
:101A400058F3BA17620773078407950720F079F4F3
:101A5000A6F50C94F20E0EF4E0950B2EBA2FA02DE5
:101A60000B01B90190010C01CA01A0011124FF274B
:101A7000591B99F0593F50F4503E68F11A16F04046
:101A8000A22F232F342F4427585FF3CF4695379545
:101A90002795A795F0405395C9F77EF41F16BA0B0A
:101AA000620B730B840BBAF09150A1F0FF0FBB1FB8
:101AB000661F771F881FC2F70EC0BA0F621F731F01
:101AC000841F48F4879577956795B795F7959E3F5E
:101AD00008F0B0CF9395880F08F09927EE0F9795EF
:101AE000879508950E94860D0C94A70E0E94A00E63
:101AF00058F00E94990E40F029F45F3F29F00C94B1
:101B0000670E51110C94F30E0C94960E0E94B80EB1
:101B100068F39923B1F3552391F3951B550BBB271C
:101B2000AA2762177307840738F09F5F5F4F220F61
:101B3000331F441FAA1FA9F335D00E2E3AF0E0E858
:101B400032D091505040E695001CCAF72BD0FE2FA2
:101B500029D0660F771F881FBB1F26173707480736
:101B6000AB07B0E809F0BB0B802DBF01FF279358EE
:101B70005F4F3AF09E3F510578F00C94670E0C943D
:101B8000F30E5F3FE4F3983ED4F38695779567951F
:101B9000B795F7959F5FC9F7880F911D9695879523
:101BA00097F90895E1E0660F771F881FBB1F621742
:101BB00073078407BA0720F0621B730B840BBA0B00
:101BC000EE1F88F7E09508950E94C00E88F09F5799
:101BD00098F0B92F9927B751B0F0E1F0660F771F51
:101BE000881F991F1AF0BA95C9F714C0B13091F047
:101BF0000E94F20EB1E008950C94F20E672F782F38
:101C00008827B85F39F0B93FCCF38695779567950B
:101C1000B395D9F73EF490958095709561957F4F77
:101C20008F4F9F4F0895E89409C097FB3EF490951D
:101C30008095709561957F4F8F4F9F4F9923A9F0A5
:101C4000F92F96E9BB279395F69587957795679534
:101C5000B795F111F8CFFAF4BB0F11F460FF1BC078
:101C60006F5F7F4F8F4F9F4F16C0882311F096E90B
:101C700011C0772321F09EE8872F762F05C06623B9
:101C800071F096E8862F70E060E02AF09A95660F72
:101C9000771F881FDAF7880F9695879597F908952B
:101CA0000E94DA0E90F09F3748F4911116F00C94D0
:101CB000F30E60E070E080E89FEB089526F41B16B9
:101CC000611D711D811D0C946D0E0C94880E97F989
:101CD0009F6780E870E060E00895882371F47723BF
:101CE00021F09850872B762F07C0662311F499278F
:101CF0000DC09051862B70E060E02AF09A95660F37
:101D0000771F881FDAF7880F9695879597F90895BA
:101D10009F3F31F0915020F4879577956795B7955F
:101D2000880F911D9695879597F908959FEF80EC00
:101D3000089500240A941616170618060906089531
:101D400000240A9412161306140605060895092E97
:101D50000394000C11F4882352F0BB0F40F4BF2B06
:101D600011F460FF04C06F5F7F4F8F4F9F4F089546
:101D700057FD9058440F551F59F05F3F71F047953C
:101D8000880F97FB991F61F09F3F79F08795089521
:101D9000121613061406551FF2CF4695F1DF08C040
:101DA000161617061806991FF1CF8695710561055D
:101DB000089408950E94C00EA0F0BEE7B91788F4F9
:101DC000BB279F3860F41616B11D672F782F882720
:101DD000985FF7CF869577956795B11D939596395E
:101DE000C8F30895E894BB2766277727CB0197F9B6
:101DF00008950E940C0F0C94A70E0E94990E38F0C3
:101E00000E94A00E20F0952311F00C94670E0C9404
:101E1000960E11240C94F30E0E94B80E70F3959F49
:101E2000C1F3950F50E0551F629FF001729FBB27D1
:101E3000F00DB11D639FAA27F00DB11DAA1F649F6D
:101E40006627B00DA11D661F829F2227B00DA11D20
:101E5000621F739FB00DA11D621F839FA00D611DA6
:101E6000221F749F3327A00D611D231F849F600DC7
:101E7000211D822F762F6A2F11249F5750409AF0F0
:101E8000F1F088234AF0EE0FFF1FBB1F661F771F7C
:101E9000881F91505040A9F79E3F510580F00C9447
:101EA000670E0C94F30E5F3FE4F3983ED4F38695EF
:101EB00077956795B795F795E7959F5FC1F7FE2BE7
:101EC000880F911D9695879597F90895FB01DC0180
:101ED0008D91019080190110D9F3990B08950F93FA
:101EE0001F93CF93DF93CDB7DEB72E970FB6F8943D
:101EF000DEBF0FBECDBF0D891E8986E08C831A839D
:101F000009838FEF9FE79E838D83AE01475E5F4F0E
:101F10006F89788DCE0101960E949F0F2F813885A1
:101F2000020F131FF80110822E960FB6F894DEBF31
:101F30000FBECDBFDF91CF911F910F9108952F92CA
:101F40003F924F925F926F927F928F929F92AF9249
:101F5000BF92CF92DF92EF92FF920F931F93CF9396
:101F6000DF93CDB7DEB72F970FB6F894DEBF0FBE65
:101F7000CDBF7C013B018A01DC0117961C921E92A9
:101F8000169713968C9181FFD8C19AE0292EFE01F5
:101F900031964F01D70113969C91F30193FD8591E2
:101FA00093FF81913F01882309F448C1853239F4B8
:101FB00093FD859193FF81913F01853229F4B7010B
:101FC00090E00E94B611E6CFB12C412C512CBFE11C
:101FD000B51538F08B3209F188F4803201F1833283
:101FE00021F157FC3AC020ED280F2A3040F556FE6B
:101FF0001FC0B29C200D1124B22E06C08D3291F06C
:10200000803379F7689450F8F30193FD859193FF3D
:1020100081913F018111DBCF20C0689451F8689411
:1020200052F8F2CF689453F8EFCF689454F8ECCF9D
:10203000429C200D1124422E689455F8E5CF8E3233
:1020400029F456FCFBC0689456F8DECF8C3619F4A0
:10205000689457F8D9CF8836B9F2982F9F7D955458
:102060009330C0F08336A1F18337C1F1833509F095
:102070005BC0D801CD90DD908D016B2D70E056FCDA
:1020800002C06FEF7FEFC6010E94A0115C0168944F
:1020900057F80AC00C5F1F4FEFE3E983AA24A3940B
:1020A000B12C6401E89457F853FC04C04A141B0493
:1020B00009F018F5342CA114B10431F5332009F4DA
:1020C00069CFB70180E290E00E94B6113A94F6CF52
:1020D000D8018C9189830E5F1F4FE0CFF801C1902A
:1020E000D1908F016B2D70E056FC02C06FEF7FEF37
:1020F000C6010E94AB115C01D5CFB70180E290E030
:102100000E94B6114A94D2CFF60157FC859157FE32
:1021100081916F01B70190E00E94B61131103A949D
:10212000B1E0AB1AB108C7CF843619F0893609F08F
:1021300074C0F80157FE6AC06191719181919191CB
:102140008F01E52DEF76DE2E97FF09C090958095E3
:10215000709561957F4F8F4F9F4F6894D7F82AE015
:1021600030E0A4010E94E611C82EC818AC2C5D2CEA
:10217000D6FE0CC0E89450F8CB1440F4D4FE05C051
:10218000D2FC03C05D2D5E7E552EAB2C54FEADC03F
:10219000FE01EC0DF11D8081803309F09FC0652D9B
:1021A000697E562E752D7870372E53FCADC050FECB
:1021B000A7C0BC2CA41418F44C0CB42CBA1854FEB0
:1021C000A9C0B70180E390E00E94B61152FE09C099
:1021D00088E790E051FE02C088E590E0B7010E94D8
:1021E000B611CB1408F4A2C0CA94D12C8FEFC81A30
:1021F000D80AC80CD91CD6018E916D01B70190E0A8
:102200000E94B6118C149D04B1F758CF6191719161
:10221000072E000C880B990B93CFD52CE894D4F89B
:102220002AE030E08537E1F1F52DF97FDF2E8037A8
:1022300051F100F5883551F18F3681F1F701868132
:1022400097812F960FB6F894DEBF0FBECDBFDF91FA
:10225000CF911F910F91FF90EF90DF90CF90BF90A3
:10226000AF909F908F907F906F905F904F903F9036
:102270002F900895883711F7D4FE02C06894D2F8E1
:1022800020E130E00DC06894D4F8F6CF54FE03C0CE
:102290002F2F2660D22E20E132E002C028E030E06D
:1022A000F801D7FE15C041915191619171914C8710
:1022B0005D876E877F878F01A4016C857D858E8504
:1022C0009F850E94E611C82EC818E894D7F84ECF13
:1022D00081919191AC0170E060E0E9CF52FC02C0C5
:1022E000A39460CFA394A3945DCF852D867809F441
:1022F00059CFF6CFB70180E290E00E94B611A394C7
:10230000A414C0F3312C5BCF342C3A18A41408F475
:1023100056CFF8CF852D867809F463CF8BE251FE36
:1023200080E257FC8DE2B70190E059CFB70180E31E
:1023300090E00E94B611BA9454CF8FEF9FEF81CFF7
:10234000FC010590615070400110D8F78095909580
:102350008E0F9F1F0895FC01615070400190011085
:10236000D8F7809590958E0F9F1F08950F931F9318
:10237000CF93DF93182F092FEB018B8181FD09C0CB
:102380001FEF0FEF812F902FDF91CF911F910F91B2
:10239000089582FF14C02E813F818C819D81281772
:1023A00039073CF4E881F981CF010196998388834C
:1023B00010838E819F8101969F838E83E3CFE88572
:1023C000F985812F0995892BA1F3DACFFA01AA2784
:1023D000283051F1203181F1E8946F936E7F6E5F68
:1023E0007F4F8F4F9F4FAF4FB1E03ED0B4E03CD016
:1023F000670F781F891F9A1FA11D680F791F8A1FF9
:10240000911DA11D6A0F711D811D911DA11D20D05F
:1024100009F468943F912AE0269F11243019305D19
:102420003193DEF6CF010895462F4770405D41930A
:10243000B3E00FD0C9F7F6CF462F4F70405D4A3357
:1024400018F0495D31FD4052419302D0A9F7EACF1F
:10245000B4E0A6959795879577956795BA95C9F74E
:1024600000976105710508959B01AC010A2E069441
:102470005795479537952795BA95C9F7620F731FFA
:0C248000841F951FA01D0895F894FFCF45
:10248C00FF00000000000000000000FF3D023D02C4
:10249C000000000000000000000000000000000030
:1024AC000000000000000000000000000000000020
:1024BC00010001000100000000000000000000000D
:1024CC000000000000000000000000000000000000
:1024DC0000000000010000000000010000000000EE
:1024EC0000000000000000000100000000000100DE
:1024FC0000000000000000000000000001000000CF
:10250C0000000100000000000000000000000000BE
:10251C0000000000000000000000000001000000AE
:10252C00000000000000000000000000000000009F
:10253C00010000000000000000000000000000008E
:10254C00000000000100000000000000000000007E
:10255C00000000000000000001000000000100006D
:10256C0000000000D70B000000000002000000007B
:10257C00C50B00000000FF0000000A001300130050
:10258C002825642C256429004E6F727468004561FF
:10259C00737400536F757468005765737400506CD6
:1025AC006179203100596F7520776F6E0049742066
:1025BC00697320796F7572207475726E2100476F84
:1025CC0074206869742100476F74206D69737321DE
:1025DC000057616974696E6720666F72206F74684A
:0E25EC00657220706C617965722E2E2E0000D3
:00000001FF
