:100000000C943A010C9459010C9459010C94590127
:100010000C9459010C9459010C9459010C945901F8
:100020000C9459010C9459010C9459010C945901E8
:100030000C9459010C9459010C9459010C945901D8
:100040000C9459010C9459010C9459010C945901C8
:100050000C9459010C9459010C9459010C945B01B6
:100060000C9459010C9459010C9459010C945901A8
:100070000C9459010C9459010C9459010C94590198
:100080000C9459010C9459010C9459010C94590188
:100090000C9459010C945901000000000000005F0D
:1000A00000000003000300143E143E14242A7F2A9B
:1000B000124333086661364955225000050300009B
:1000C000001C2241000041221C0014083E081408B4
:1000D000083E0808005030000008080808080060C2
:1000E00060000020100804023E5149453E00040211
:1000F0007F00426151494622414949361814127F16
:100100001027454545393E494949320101710907E2
:100110003649494936264949493E003636000000ED
:10012000563600000814224100141414141400411F
:1001300022140802015109063E4159555E7E090903
:10014000097E7F494949363E414141227F41414133
:100150003E7F494949417F090909013E4141493AE8
:100160007F0808087F00417F4100304040403F7FCA
:10017000081422417F404040407F020C027F7F02F2
:1001800004087F3E4141413E7F090909061E2121A5
:10019000215E7F09090976264949493201017F011B
:1001A000013F4040403F1F2040201F7F2010207F04
:1001B00041221C224107087008076151494543004C
:1001C0007F41000002040810200000417F0004026B
:1001D0000102044040404040000102040020545409
:1001E00054787F4444443838444444443844444474
:1001F0007F385454541804047E0505085454543C64
:100200007F0804047800447D40002040443D007F86
:100210001028440000417F40007C047804787C086A
:1002200004047838444444387C1414140808141422
:10023000147C007C080404485454542004043F44B3
:10024000443C4040207C1C2040201C3C4030403C32
:1002500044281028440C5050503C4464544C4400F2
:100260000836414100007F0000414136080002018C
:100270000204020011241FBECFEFD0E2DEBFCDBFCB
:1002800012E0A0E0B1E0EEE9F2E200E00BBF02C054
:1002900007900D92A032B107D9F723E0A0E2B2E0B7
:1002A00001C01D92AC39B207E1F70E94CD0B0C944E
:1002B0004D110C9400001F920F920FB60F92112453
:1002C0000BB60F92CF92DF92EF92FF920F931F9394
:1002D0002F933F934F935F936F937F938F939F934E
:1002E000AF93BF93CF93DF93EF93FF9310E00DE0B5
:1002F000DD24D394CC24CA94E12EF12C80910B01FF
:10030000082E000C990B8E159F05DCF4FF91EF91E0
:10031000DF91CF91BF91AF919F918F917F916F911D
:100320005F914F913F912F911F910F91FF90EF900F
:10033000DF90CF900F900BBE0F900FBE0F901F90CD
:1003400018950E9DE0010F9DD00D1124C850DD4F72
:100350004D815E816F81788589819A81AB81BC8175
:10036000481759076A077B0778F1E0912202F0E00D
:10037000E050FF4F8081181738F58881811124C023
:10038000F8941D821E821F821886D882E091220274
:10039000EF5FE0932202F0E0E050FF4F108378948B
:1003A000E985FA858B859C8509959C878B87F894D0
:1003B000188280912202E82FF0E0E050FF4FC082C7
:1003C00081508093220278940E9DF0010F9DF00DD4
:1003D0001124E850FD4F85819681A781B085019653
:1003E000A11DB11D85839683A783B0871F5F84CF2E
:1003F00083E884BD85B5836085BD81E080936E0010
:1004000016BC8FEF87BD0895882319F087BD279A02
:10041000089527980895EF92FF920F931F93CF931B
:10042000DF9300D000D000D0CDB7DEB77C01CB0188
:10043000BA01890120910B01422F042E000C550BAB
:100440004F5F5F4F5E834D834A3051050CF050C0C3
:100450000E94250D25E732E04AEF5EE369837A8347
:100460008B839C8369817A818B819C810E940B0E96
:1004700020E030E040E05FE369837A838B839C83F4
:1004800069817A818B819C810E94180C69837A83AF
:100490008B839C8369817A818B819C810E94F60C7D
:1004A0002DE04D815E81249FF001259FF00D1124E8
:1004B000E850FD4F618372838383948365837683E1
:1004C000878390871082E186F286038714874093A2
:1004D0000B018D819E8126960FB6F894DEBF0FBE6C
:1004E000CDBFDF91CF911F910F91FF90EF900895B5
:1004F0008FEF9FEF9E838D83ECCF93E89093B000B6
:1005000091E09093B1008093B30008959C01909383
:100510007F0380937E0386E390E080930040211563
:100520003105A9F580EF90E090937B0380937A03E7
:1005300080E491E090937D0380937C0388E490E0D5
:10054000809300418AE290E08093004030E020E018
:10055000309300412093004180917A0390917B0376
:10056000019790930041809300418BE290E080934B
:100570000040309300412093004180917C03909192
:100580007D030197909300418093004108952130AD
:10059000310579F480E491E090937B0380937A03B2
:1005A00080EF90E090937D0380937C0388EE90E051
:1005B000C7CF2230310579F480EF90E090937B0330
:1005C00080937A0380E491E090937D0380937C0391
:1005D00088E890E0B5CF2330310509F0B3CF80E44F
:1005E00091E090937B0380937A0380EF90E0909367
:1005F0007D0380937C0388E290E0A2CFCF93DF93CA
:1006000000D000D00F92CDB7DEB7873708F044C0D6
:10061000883008F444C08D3308F03FC08F3108F0B3
:1006200042C0803108F442C022E02D8321EB30E04B
:10063000209300409D8190930041282F30E050E0AE
:1006400040E029833A834B835C83CA01B9010E944D
:10065000270D9B01AC0160E070E080EF94E40E9404
:10066000840C69837A838B839C8369817A818B81F3
:100670009C810E94F60C70E00D8002C07595679514
:100680000A94E2F7609300410F900F900F900F9043
:100690000F90DF91CF91089586E71D82C7CF88E044
:1006A00033E03D83C3CF41E04D83C0CF53E05D8352
:1006B000BDCF0F931F93CF93DF93CDB7DEB72897AE
:1006C0000FB6F894DEBF0FBECDBF29833A834B83AC
:1006D0005C836D837E838F839887A801E981FA818B
:1006E0002B813C816D817E818F819885AAE2B0E06B
:1006F000A0930040F0930041E0930041309300410B
:1007000020930041ABE2B0E0A09300407093004121
:10071000609300419093004180930041ACE2B0E0CF
:10072000A09300402F5F3F4F2E1B3F0B0196861B6F
:10073000970B2817390750F5E82FE770E29FB001B3
:10074000E39F700D1124F3E096958795FA95E1F7F4
:10075000829FF001839FF00D1124962F9770915086
:1007600038F5CB0123E0969587952A95E1F78E0F12
:100770009F1F019710F528960FB6F894DEBF0FBEA5
:10078000CDBFDF91CF911F910F910895E22FE770B8
:10079000E89FB001E99F700D1124E3E0369527959D
:1007A000EA95E1F7289FF001299FF00D1124D5CF9C
:1007B0005093004140930041D2CF50930041409369
:1007C00000415093004140930041509300414093B9
:1007D00000415093004140930041509300414093A9
:1007E0000041509300414093004150930041409399
:1007F00000415093004140930041BBCF0F931F93A2
:10080000CF93DF93CDB7DEB728970FB6F894DEBF4E
:100810000FBECDBF29833A834B835C836D837E8378
:100820008F83988789819A814B815C816D817E81DC
:10083000AF81B8852AE230E02093004090930041D8
:100840008093004150930041409300412BE230E0FF
:10085000209300407093004160930041B0930041A9
:10086000A09300412CE230E0209300404817590744
:10087000D0F428960FB6F894DEBF0FBECDBFDF913F
:10088000CF911F910F910895F8010191119110934B
:100890000041009300412F5F3F4F8F01A217B30724
:1008A00098F70196E3CF9B01F9CF0F931F93CF9356
:1008B000DF93CDB7DEB728970FB6F894DEBF0FBE33
:1008C000CDBFEAE7F3E017821682118610861A82FE
:1008D0001982808191810197482F9C838B831E828E
:1008E0001D8282819381019798878F830485158566
:1008F00020E03A815C8160E07E8198850E94590306
:1009000028960FB6F894DEBF0FBECDBFDF91CF9112
:100910001F910F910895CF93DF9386E08093750028
:1009200080E8809374003F9A249A8FEC97E00197B7
:10093000F1F700C0000047988FE39CE90197F1F7B9
:1009400000C00000479A9FEF2DEE82E091502040BA
:100950008040E1F700C0000088E290E08093004012
:1009600081E190E0809300409FEF26E781E0915085
:1009700020408040E1F700C0000081E090E02BECD7
:1009800030E0209300408093004120EC30E0209341
:10099000004028E036E2309300412093004121ECF2
:1009A00030E040E150E0209300404093004125ECCE
:1009B00030E0209300402EE335E330930041209354
:1009C000004127EC30E045EB50E02093004040939D
:1009D000004126EF30E02093004080930041D0E0BA
:1009E000C0E0D0930041C09300418AE390E025E548
:1009F00030E0809300402093004181E090E00E942D
:100A000086020E945504EAE7F3E0178216821186F7
:100A10001086158614868FEF9FEF9387828789E271
:100A200090E0809300409FE728E381E091502040D0
:100A30008040E1F700C0000085E390E08093004033
:100A4000C0930041EAE6F0E08081806280832C9AC6
:100A5000DF91CF910895CF92DF92EF92FF920F93A3
:100A60001F93CF93DF9320918203309183038A30C9
:100A7000E1F41092810310928003285F3F4F30937E
:100A800083032093820380917C0390917D03281738
:100A9000390708F46AC0DF91CF911F910F91FF9041
:100AA000EF90DF90CF900C94550490EE980F9F3507
:100AB00008F05BC04091800350918103EA012496C5
:100AC000B901695F7F4FEBE2F0E0E09300403093C3
:100AD0000041209300417093004160930041082E33
:100AE000000C990B8097A5E0A89FF001A99FF00D3D
:100AF0001124E856FF4F8AE2E82EF12C9CE2C92E21
:100B0000D12CC417D507D0F58AE290E0809300403D
:100B10005093004140930041509300414093004165
:100B20008CE290E0809300406217730708F04FC09A
:100B30008091800390918103069690938103809326
:100B4000800320917A0330917B038217930768F02A
:100B5000109281031092800380918203909183030D
:100B600008969093830380938203DF91CF911F9126
:100B70000F91FF90EF90DF90CF900895E0920040AA
:100B800050930041409300415093004140930041F5
:100B9000C0920040B491C901A1E06817790720F420
:100BA0004F5F5F4F3196ADCF1A2F1B2359F0009145
:100BB0008403109185031093004100930041019636
:100BC000AA0FEBCF0091860310918703F4CF809199
:100BD00086039091870390930041809300412F5F9B
:100BE0003F4FA2CF1F93CF93DF93EC0110E0FE01A4
:100BF000E10FF11D8081811104C0DF91CF911F9120
:100C000008950E942B051F5FF2CF1F93CF93DF93B0
:100C1000EC017093810360938003509383034093AE
:100C2000820310E0FE01E10FF11D8081811104C0FB
:100C3000DF91CF911F9108950E942B051F5FF2CF86
:100C4000EF92FF920F931F93CF93DF93D0E0C0E01A
:100C500090E8E92EF12C082F10E0C7010C2E02C0FD
:100C6000959587950A94E2F780239123892B71F05B
:100C700081E30E942B052196C830D10571F7DF91E1
:100C8000CF911F910F91FF90EF9008958EE2F1CFD9
:100C9000CF93DF93D82FC92F0E949B0B2091F00296
:100CA0003091F102280F311D87FD3A953093F10202
:100CB0002093F0028D2F9C2FDF91CF910895B0E00B
:100CC000A0E09C01AD0184E0220F331F441F551F9B
:100CD0008A95D1F760E072E18AE790E00E94F50B17
:100CE000DA01C9010197A109B109892F9A2FAB2F08
:100CF000BB278093CD0021502093CC0088E18093C6
:100D0000C9008EE08093CA0008959091C80095FFB5
:100D1000FCCF8093CE0008958091C80087FF03C068
:100D20008091CE00089580E408958091C80087FFE7
:100D3000FCCF8091CE0090E008950F931F93CF9346
:100D4000DF93CDB7DEB72A970FB6F894DEBF0FBE9C
:100D5000CDBF809125028F93809124028F93809143
:100D600027028F93809126028F938AEF91E09F93C1
:100D70008F938E010F5F1F4F1F930F930E94780E6A
:100D800045E050E065E070E0C8010E9405068091F2
:100D90008A0390918B030FB6F894DEBF0FBECDBFD0
:100DA000009799F444E150E065E070E082E092E061
:100DB0000E9405062A960FB6F894DEBF0FBECDBF7F
:100DC000DF91CF911F910F9108958130910539F4F2
:100DD00044E150E065E070E088E092E0E9CF8230E5
:100DE000910539F444E150E065E070E08DE092E077
:100DF000DFCF0397F9F644E150E065E070E083E16E
:100E000092E0D6CF80918A0390918B03009739F4BA
:100E100083E090E090938B0380938A0307C0813036
:100E2000910531F410928B0310928A030C949D0665
:100E30008230910519F481E090E0ECCF0397B1F78F
:100E400082E090E0E7CF80918A0390918B03009736
:100E500041F481E090E090938B0380938A030C949B
:100E60009D068130910519F482E090E0F4CF823044
:100E7000910519F483E090E0EECF039781F710928B
:100E80008B0310928A03EBCF8F929F92AF92BF9207
:100E9000CF92DF92EF92FF920F931F93CF93DF9346
:100EA000CDB7DEB760970FB6F894DEBF0FBECDBFEB
:100EB000A22E2987B32E3A874B875C876D877E8762
:100EC000882E8F87992E988B680187019501C40120
:100ED0000E94590389859A850296282F9A838983CF
:100EE0008B859C850297482F9C838B838D859E855F
:100EF0000296682F9E838D838F85988902979887A5
:100F00008F8386013A815C817E8198850E94590396
:100F100060960FB6F894DEBF0FBECDBFDF91CF91C4
:100F20001F910F91FF90EF90DF90CF90BF90AF9007
:100F30009F908F9008952F923F924F925F926F9261
:100F40007F928F929F92AF92BF92CF92DF92EF9259
:100F5000FF920F931F93CF93DF93CDB7DEB72A97FE
:100F60000FB6F894DEBF0FBECDBF0E9455040E949D
:100F70009D06A0909003B0909103350127E1620E89
:100F8000711C88E2282E82E0382ED12CC12C809151
:100F90008E0390918F032101912C812CBA82A9821A
:100FA0007C826B829E838D83FC017796FA87E9872A
:100FB000F887EF8380912602909127028C159D057A
:100FC00041F480912402909125028815990509F435
:100FD00056C08EE19CE3F201208131817C010FEF4C
:100FE0001FEF2115310551F000EE17E021303105DA
:100FF00029F02230310561F400E018EF29813A81AF
:101000004B815C816D817E818F8198850E94440730
:1010100089859A85FFEF8F1A9F0A24E1420E511CA1
:101020003AE08316910409F0B9CF87E1A80EB11C0C
:1010300097E1690E711CEFEFCE1ADE0AF2E02F0E77
:10104000311C2AE0C216D10409F0A1CF2A960FB6AE
:10105000F894DEBF0FBECDBFDF91CF911F910F91EE
:10106000FF90EF90DF90CF90BF90AF909F908F90C8
:101070007F906F905F904F903F902F9008958FE1F9
:1010800098EFA9CF86EE90E0909389038093880330
:1010900090938D0380938C038DE290E09093910365
:1010A0008093900385E090E090938F0380938E036C
:1010B0000E949B0743E250E065E070E088E192E027
:1010C0000E9405067894FFCFEF92FF920F931F9333
:1010D000CF93DF93CDB7DEB728970FB6F894DEBF76
:1010E0000FBECDBFAC01DB0167E1689F9001699F36
:1010F000300D11248091900390919103280F391F96
:101100006A9FC0016B9F900D112460918E037091B6
:101110008F03860F971F3A832983295E3F4F3C83B5
:101120002B839E838D83479698878F838091260299
:10113000909127028417950739F4809124029091A9
:1011400025028A179B07B9F18EE19CE32AE02A9FCA
:10115000F0012B9FF00D1124E40FF51FEE0FFF1F80
:10116000E85DFD4F208131817C010FEF1FEF2115DC
:10117000310551F000EE17E02130310529F0223021
:10118000310561F400E018EF29813A814B815C81DF
:101190006D817E818F8198850E94440728960FB6C5
:1011A000F894DEBF0FBECDBFDF91CF911F910F919D
:1011B000FF90EF9008958FE198EFC8CF6AE00E940A
:1011C000E90B892F0895CF93DF9300D000D0CDB7DE
:1011D000DEB7282F30E050E040E029833A834B838C
:1011E0005C83CA01B9010E94250D20E030E040E295
:1011F00051E469837A838B839C8369817A818B81B3
:101200009C810E94840C69837A838B839C8369818F
:101210007A818B819C810E94620D69837A838B83A2
:101220009C8369817A818B819C810E94F60C862F38
:101230000F900F900F900F90DF91CF9108959AE04B
:10124000699F800D112408956091240270912502F8
:1012500080912602909127022AE0269FF001279F85
:10126000F00D1124E80FF91FEE0FFF1FE85DFD4F91
:1012700021E030E0318320830C94640860912402E3
:101280007091250280912602909127022AE0269FE4
:10129000F001279FF00D1124E80FF91FEE0FFF1F3B
:1012A000E85DFD4F22E030E0318320830C94640838
:1012B000CF93282F6AE00E94E90BC92F822F0E944A
:1012C000E3082CE031E061E070E0F90150E040E03B
:1012D000A081B181119709F14F5F5F4F74964A3039
:1012E0005105B1F72E5F3F4F91E02032390769F782
:1012F00061307105A9F09AE0899FF0011124EC0F8B
:10130000F11DEE0FFF1FE45FFE4F80819181019779
:1013100051F089E790E0CF91089570E060E0E2CF6E
:101320008AE790E0F8CF88E790E0F5CFCF92DF92A0
:10133000EF92FF920F931F93CF93DF93182FD92F24
:101340008091F2029091F302892B09F0F7C02F9857
:1013500084E00E94A60B882301F1C0902602D09061
:101360002702E0902402F0902502C701019797FD23
:10137000C2C090932502809324020E949D06B7016B
:10138000C6010E9464086091240270912502809138
:101390002602909127020E94640888E00E94A60B12
:1013A000882311F1E0902602F0902702C0902402D9
:1013B000D0902502C70101968A3091050CF0A0C09B
:1013C00090932702809326020E949D06B601C701D2
:1013D0000E94640860912402709125028091260287
:1013E000909127020E94640880E10E94A60B882346
:1013F00011F1C0902602D0902702E0902402F090D4
:101400002502C70101968A3091050CF07CC09093AB
:101410002502809324020E949D06B701C6010E9406
:1014200064086091240270912502809126029091B7
:1014300027020E94640880E20E94A60B882301F123
:10144000E0902602F0902702C0902402D09025025E
:10145000C701019797FD5AC09093270280932602F7
:101460000E949D06B601C7010E9464086091240293
:101470007091250280912602909127020E946408B3
:1014800080E80E94C20B8823F9F080912402909199
:1014900025024AE0489F9001499F300D1124809118
:1014A000260290912702820F931F0E9485060E94B8
:1014B0009506883781F588E70E943E0981E090E033
:1014C0009093F3028093F2020E949B0B909123026F
:1014D00098175CF50E949B0B809323020E942307C0
:1014E000812F9D2FDF91CF911F910F91FF90EF9052
:1014F000DF90CF90089510922502109224023DCFE4
:1015000089E090E05DCF89E090E081CF10922702E2
:1015100010922602A5CF893719F40E942409CECF54
:101520008A3729F60E945504C2CF8917CCF60E944B
:101530009B0B809323020E940207D2CF2F9A0E9416
:101540009506C82FC436F0F78C2F0E945809F82E44
:10155000092F8C2F0E94E308382F2AE08C2F622F4E
:101560000E94E90B239F90011124F901E90FF11D5D
:10157000EE0FFF1FE45FFE4F82E090E091838083D7
:101580008F2D902F0E9485061092F3021092F20286
:10159000A7CF9AE0699FF0011124E80FF11DEE0F2B
:1015A000FF1FE85DFD4F808108950C945504CF9393
:1015B000C82F8A3019F48DE00E94D70A8091C800A4
:1015C00085FFFCCFC093CE008C2FCC0F990BCF9111
:1015D00008958091C80087FFFCCF8091CE0090E0F5
:1015E00008951092CD0083E38093CC0088E180932E
:1015F000C90086E08093CA00E6E9F3E082EE91E05C
:10160000938382839583848384ED91E091838083A7
:101610000895E1E6F0E080E880831082279A2F9811
:101620000E948B040E94F8010C94770BF8942CB163
:1016300033E025FF30E024FF02C021E03227209173
:10164000F702231B20FF09C03093F7023091950366
:1016500022703150230F2093950378940895F894C5
:1016600036B14CB123B150919403306C4F673423A1
:101670002F6B32233527532F50952091F602422F9E
:10168000452340954093F6026091F5025623452785
:101690004093F502232B2095242330919403322785
:1016A0003093940330919403409192032323242B8D
:1016B00020939203209194032C7F19F42CE3209320
:1016C000F4022091F4023FEF320F213021F03093E9
:1016D000F402789408952AE02093F4022091940370
:1016E000309193032C7F232B20939303F2CF8DB162
:1016F0008F7C8DB98EB180638EB96F98779A87B1E0
:10170000837C87B988B18C6388B926982E9A30E09B
:1017100020E042E050E060E070E086E19BE00E9463
:101720000B0230E020E04AE050E060E070E08FE241
:101730009BE00C940B02F894809195039091950393
:10174000917090939503789485950895982FF894C7
:10175000809192038923909192039827909392030A
:1017600078940895982FF894809193038923909109
:1017700093039827909393037894089590919403FA
:1017800089230895F89490919403909589230C945B
:10179000A60B0E94B20B0C94A60B0E94090B80E8CA
:1017A00095E20E945F0621E030E044EF51E060E006
:1017B00070E088E496E00E940B0221E030E044E60D
:1017C00050E060E070E086E999E00E940B020E9420
:1017D0004208991B79E004C0991F961708F0961BE0
:1017E000881F7A95C9F780950895A1E21A2EAA1B41
:1017F000BB1BFD010DC0AA1FBB1FEE1FFF1FA217C1
:10180000B307E407F50720F0A21BB30BE40BF50BBD
:10181000661F771F881F991F1A9469F76095709546
:10182000809590959B01AC01BD01CF010895505862
:10183000BB27AA270E942F0C0C94B90D0E94AB0D58
:1018400038F00E94B20D20F039F49F3F19F426F4CD
:101850000C94A80D0EF4E095E7FB0C94790DE92F9C
:101860000E94CA0D58F3BA176207730784079507D9
:1018700020F079F4A6F50C94040E0EF4E0950B2EEE
:10188000BA2FA02D0B01B90190010C01CA01A001D2
:101890001124FF27591B99F0593F50F4503E68F12D
:1018A0001A16F040A22F232F342F4427585FF3CF6E
:1018B000469537952795A795F0405395C9F77EF43F
:1018C0001F16BA0B620B730B840BBAF09150A1F088
:1018D000FF0FBB1F661F771F881FC2F70EC0BA0F0E
:1018E000621F731F841F48F4879577956795B79596
:1018F000F7959E3F08F0B0CF9395880F08F0992791
:10190000EE0F9795879508950E94980C0C94B90D49
:101910000E94B20D58F00E94AB0D40F029F45F3FD9
:1019200029F00C94790D51110C94050E0C94A80D0E
:101930000E94CA0D68F39923B1F3552391F3951BC7
:10194000550BBB27AA2762177307840738F09F5FE0
:101950005F4F220F331F441FAA1FA9F335D00E2E4D
:101960003AF0E0E832D091505040E695001CCAF7BA
:101970002BD0FE2F29D0660F771F881FBB1F26177D
:1019800037074807AB07B0E809F0BB0B802DBF0154
:10199000FF2793585F4F3AF09E3F510578F00C9423
:1019A000790D0C94050E5F3FE4F3983ED4F38695D1
:1019B00077956795B795F7959F5FC9F7880F911D44
:1019C0009695879597F90895E1E0660F771F881F30
:1019D000BB1F621773078407BA0720F0621B730BE3
:1019E000840BBA0BEE1F88F7E09508950E94D20D84
:1019F00088F09F5798F0B92F9927B751B0F0E1F0D0
:101A0000660F771F881F991F1AF0BA95C9F714C07F
:101A1000B13091F00E94040EB1E008950C94040ED0
:101A2000672F782F8827B85F39F0B93FCCF38695B8
:101A300077956795B395D9F73EF490958095709515
:101A400061957F4F8F4F9F4F0895E89409C097FB92
:101A50003EF490958095709561957F4F8F4F9F4F85
:101A60009923A9F0F92F96E9BB279395F6958795C9
:101A700077956795B795F111F8CFFAF4BB0F11F48C
:101A800060FF1BC06F5F7F4F8F4F9F4F16C0882333
:101A900011F096E911C0772321F09EE8872F762F69
:101AA00005C0662371F096E8862F70E060E02AF0AA
:101AB0009A95660F771F881FDAF7880F9695879596
:101AC00097F908950E94EC0D90F09F3748F491111A
:101AD00016F00C94050E60E070E080E89FEB08952E
:101AE00026F41B16611D711D811D0C947F0D0C9435
:101AF0009A0D97F99F6780E870E060E00895882369
:101B000071F4772321F09850872B762F07C0662336
:101B100011F499270DC09051862B70E060E02AF0F7
:101B20009A95660F771F881FDAF7880F9695879525
:101B300097F908959F3F31F0915020F4879577955C
:101B40006795B795880F911D9695879597F9089594
:101B50009FEF80EC089500240A94161617061806C5
:101B60000906089500240A941216130614060506A1
:101B70000895092E0394000C11F4882352F0BB0F32
:101B800040F4BF2B11F460FF04C06F5F7F4F8F4F95
:101B90009F4F089557FD9058440F551F59F05F3FD0
:101BA00071F04795880F97FB991F61F09F3F79F07F
:101BB00087950895121613061406551FF2CF469501
:101BC000F1DF08C0161617061806991FF1CF869583
:101BD00071056105089408950E94D20DA0F0BEE73A
:101BE000B91788F4BB279F3860F41616B11D672F0C
:101BF000782F8827985FF7CF869577956795B11DE1
:101C000093959639C8F30895E894BB2766277727FC
:101C1000CB0197F908950E941E0E0C94B90D0E94F5
:101C2000AB0D38F00E94B20D20F0952311F00C940A
:101C3000790D0C94A80D11240C94050E0E94CA0D68
:101C400070F3959FC1F3950F50E0551F629FF0010F
:101C5000729FBB27F00DB11D639FAA27F00DB11D28
:101C6000AA1F649F6627B00DA11D661F829F2227B1
:101C7000B00DA11D621F739FB00DA11D621F839F38
:101C8000A00D611D221F749F3327A00D611D231F0E
:101C9000849F600D211D822F762F6A2F11249F575C
:101CA00050409AF0F1F088234AF0EE0FFF1FBB1F5F
:101CB000661F771F881F91505040A9F79E3F51051E
:101CC00080F00C94790D0C94050E5F3FE4F3983E80
:101CD000D4F3869577956795B795F795E7959F5FC8
:101CE000C1F7FE2B880F911D9695879597F908955A
:101CF0000F931F93CF93DF93CDB7DEB72E970FB619
:101D0000F894DEBF0FBECDBF0D891E8986E08C839F
:101D10001A8309838FEF9FE79E838D83AE01475E11
:101D20005F4F6F89788DCE0101960E94A80E2F819A
:101D30003885020F131FF80110822E960FB6F89403
:101D4000DEBF0FBECDBFDF91CF911F910F910895E0
:101D50002F923F924F925F926F927F928F929F92BB
:101D6000AF92BF92CF92DF92EF92FF920F931F93A9
:101D7000CF93DF93CDB7DEB72F970FB6F894DEBFC2
:101D80000FBECDBF7C013B018A01DC0117961C927E
:101D90001E92169713968C9181FFD8C19AE0292E36
:101DA000FE0131964F01D70113969C91F30193FDEB
:101DB000859193FF81913F01882309F448C18532C1
:101DC00039F493FD859193FF81913F01853229F488
:101DD000B70190E00E94BF10E6CFB12C412C512CEE
:101DE000BFE1B51538F08B3209F188F4803201F18A
:101DF000833221F157FC3AC020ED280F2A3040F5FC
:101E000056FE1FC0B29C200D1124B22E06C08D328A
:101E100091F0803379F7689450F8F30193FD859140
:101E200093FF81913F018111DBCF20C0689451F86D
:101E3000689452F8F2CF689453F8EFCF689454F84E
:101E4000ECCF429C200D1124422E689455F8E5CF2A
:101E50008E3229F456FCFBC0689456F8DECF8C36DF
:101E600019F4689457F8D9CF8836B9F2982F9F7D26
:101E700095549330C0F08336A1F18337C1F1833597
:101E800009F05BC0D801CD90DD908D016B2D70E025
:101E900056FC02C06FEF7FEFC6010E94A9105C01E3
:101EA000689457F80AC00C5F1F4FEFE3E983AA2438
:101EB000A394B12C6401E89457F853FC04C04A146D
:101EC0001B0409F018F5342CA114B10431F53320AA
:101ED00009F469CFB70180E290E00E94BF103A9404
:101EE000F6CFD8018C9189830E5F1F4FE0CFF801A8
:101EF000C190D1908F016B2D70E056FC02C06FEF46
:101F00007FEFC6010E94B4105C01D5CFB70180E21B
:101F100090E00E94BF104A94D2CFF60157FC859101
:101F200057FE81916F01B70190E00E94BF10311000
:101F30003A94B1E0AB1AB108C7CF843619F08936AC
:101F400009F074C0F80157FE6AC0619171918191E6
:101F500091918F01E52DEF76DE2E97FF09C09095C8
:101F60008095709561957F4F8F4F9F4F6894D7F8FC
:101F70002AE030E0A4010E94EF10C82EC818AC2C53
:101F80005D2CD6FE0CC0E89450F8CB1440F4D4FE7F
:101F900005C0D2FC03C05D2D5E7E552EAB2C54FED9
:101FA000ADC0FE01EC0DF11D8081803309F09FC0B2
:101FB000652D697E562E752D7870372E53FCADC079
:101FC00050FEA7C0BC2CA41418F44C0CB42CBA18A6
:101FD00054FEA9C0B70180E390E00E94BF1052FEFA
:101FE00009C088E790E051FE02C088E590E0B701A3
:101FF0000E94BF10CB1408F4A2C0CA94D12C8FEF5A
:10200000C81AD80AC80CD91CD6018E916D01B70127
:1020100090E00E94BF108C149D04B1F758CF6191DD
:102020007191072E000C880B990B93CFD52CE89457
:10203000D4F82AE030E08537E1F1F52DF97FDF2E85
:10204000803751F100F5883551F18F3681F1F70174
:10205000868197812F960FB6F894DEBF0FBECDBF55
:10206000DF91CF911F910F91FF90EF90DF90CF9074
:10207000BF90AF909F908F907F906F905F904F90A8
:102080003F902F900895883711F7D4FE02C06894CE
:10209000D2F820E130E00DC06894D4F8F6CF54FEB9
:1020A00003C02F2F2660D22E20E132E002C028E0AC
:1020B00030E0F801D7FE15C04191519161917191C5
:1020C0004C875D876E877F878F01A4016C857D8536
:1020D0008E859F850E94EF10C82EC818E894D7F807
:1020E0004ECF81919191AC0170E060E0E9CF52FC5C
:1020F00002C0A39460CFA394A3945DCF852D86786E
:1021000009F459CFF6CFB70180E290E00E94BF10EA
:10211000A394A414C0F3312C5BCF342C3A18A4142C
:1021200008F456CFF8CF852D867809F463CF8BE27B
:1021300051FE80E257FC8DE2B70190E059CFB70124
:1021400080E390E00E94BF10BA9454CF8FEF9FEFCE
:1021500081CFFC010590615070400110D8F7809547
:1021600090958E0F9F1F0895FC0161507040019063
:102170000110D8F7809590958E0F9F1F08950F93AB
:102180001F93CF93DF93182F092FEB018B8181FDD4
:1021900009C01FEF0FEF812F902FDF91CF911F917B
:1021A0000F91089582FF14C02E813F818C819D8103
:1021B000281739073CF4E881F981CF01019699830A
:1021C000888310838E819F8101969F838E83E3CFC6
:1021D000E885F985812F0995892BA1F3DACFFA01DA
:1021E000AA27283051F1203181F1E8946F936E7F56
:1021F0006E5F7F4F8F4F9F4FAF4FB1E03ED0B4E047
:102200003CD0670F781F891F9A1FA11D680F791F87
:102210008A1F911DA11D6A0F711D811D911DA11D98
:1022200020D009F468943F912AE0269F11243019A8
:10223000305D3193DEF6CF010895462F4770405D43
:102240004193B3E00FD0C9F7F6CF462F4F70405DF2
:102250004A3318F0495D31FD4052419302D0A9F74D
:10226000EACFB4E0A6959795879577956795BA9547
:10227000C9F700976105710508959B01AC010A2E0D
:1022800006945795479537952795BA95C9F7620FE4
:0E229000731F841F951FA01D0895F894FFCFA3
:10229E00FF00000000000000000000FF0000000032
:1022AE000000000000000000000000000000000020
:1022BE00000000000000000000000000010001000E
:1022CE0001000000000000000000000000000000FF
:1022DE0000000000000000000000000000000000F0
:1022EE0001000000000001000000000000000000DE
:1022FE0000000000010000000000010000000000CE
:10230E0000000000000000000100000000000100BD
:10231E0000000000000000000000000000000000AF
:10232E00000000000000000001000000000000009E
:10233E00000000000000000000000000010000008E
:10234E00000000000000000000000000000000007F
:10235E00010000000000000000000000000000006E
:10236E000000000000000001000000000000E90A6B
:10237E0000000000000200000000D70A000000006C
:10238E00FF0000000A00170017002825642C2564A2
:10239E0029004E6F727468004561737400536F7537
:1023AE007468005765737400506C617920300000BA
:00000001FF
