:100000000C943A010C9459010C9459010C94590127
:100010000C9459010C9459010C9459010C945901F8
:100020000C9459010C9459010C9459010C945901E8
:100030000C9459010C9459010C9459010C945901D8
:100040000C9459010C9459010C9459010C945901C8
:100050000C9459010C9459010C9459010C94680B9F
:100060000C9459010C9459010C9459010C945901A8
:100070000C9459010C9459010C9459010C94590198
:100080000C9459010C9459010C9459010C94590188
:100090000C9459010C945901000000000000005F0D
:1000A00000000003000300143E143E14242A7F2A9B
:1000B000124333086661364955225000050300009B
:1000C000001C2241000041221C0014083E081408B4
:1000D000083E0808005030000008080808080060C2
:1000E00060000020100804023E5149453E00040211
:1000F0007F00426151494622414949361814127F16
:100100001027454545393E494949320101710907E2
:100110003649494936264949493E003636000000ED
:10012000563600000814224100141414141400411F
:1001300022140802015109063E4159555E7E090903
:10014000097E7F494949363E414141227F41414133
:100150003E7F494949417F090909013E4141493AE8
:100160007F0808087F00417F4100304040403F7FCA
:10017000081422417F404040407F020C027F7F02F2
:1001800004087F3E4141413E7F090909061E2121A5
:10019000215E7F09090976264949493201017F011B
:1001A000013F4040403F1F2040201F7F2010207F04
:1001B00041221C224107087008076151494543004C
:1001C0007F41000002040810200000417F0004026B
:1001D0000102044040404040000102040020545409
:1001E00054787F4444443838444444443844444474
:1001F0007F385454541804047E0505085454543C64
:100200007F0804047800447D40002040443D007F86
:100210001028440000417F40007C047804787C086A
:1002200004047838444444387C1414140808141422
:10023000147C007C080404485454542004043F44B3
:10024000443C4040207C1C2040201C3C4030403C32
:1002500044281028440C5050503C4464544C4400F2
:100260000836414100007F0000414136080002018C
:100270000204020011241FBECFEFD0E2DEBFCDBFCB
:1002800012E0A0E0B1E0EAEFF3E200E00BBF02C051
:1002900007900D92A637B107D9F723E0A6E7B2E0A1
:1002A00001C01D92A03FB207E1F70E945E0C0C94C2
:1002B000FB110C940000CF93C82F8A3019F48DE005
:1002C0000E945B018091C80085FFFCCFC093CE00E7
:1002D0008C2FCC0F990BCF9108958091C80087FF88
:1002E000FCCF8091CE0090E008951092CD0083E382
:1002F0008093CC0088E18093C90086E08093CA0097
:10030000EAEEF3E08EE091E0938382839583848329
:1003100080E091E0918380830895E1E6F0E080E859
:1003200080831082279A2F980E949E090E94060CB3
:100330000C943B02A0E0B0E09C01AD0184E0220FF0
:10034000331F441F551F8A95D1F760E072E18AE799
:1003500090E00E94860CDA01C9010197A109B10958
:10036000892F9A2FAB2FBB278093CD00215020934C
:10037000CC0088E18093C9008EE08093CA00089584
:100380009091C80095FFFCCF8093CE000895809196
:10039000C80087FF03C08091CE00089580E40895CF
:1003A0008091C80087FFFCCF8091CE0090E0089537
:1003B000AC01F8949CB195FF02C023E001C020E09D
:1003C00094FF02C081E0282790917902921B90FF50
:1003D00009C02093790220914F0392702150920F0F
:1003E00090934F037894CA010895AC01F89496B1A4
:1003F0008CB123B130914E03906C8F6798232F6B93
:10040000922390953927209178022323922F90955B
:100410009093780220917702232329272093770253
:100420009323922380914E03892780934E0320913A
:100430004E0380914C039223982B90934C03809110
:100440004E038C7F19F48CE38093760280917602C0
:10045000815019F0809376020BC08AE08093760277
:1004600080914E0390914D038C7F892B80934D0397
:100470007894CA0108958DB18F7C8DB98EB1806357
:100480008EB96F98779A87B1837C87B988B18C636E
:1004900088B926982E9A20E030E042E050E060E0F3
:1004A00070E088ED91E00E94190C20E030E04AE015
:1004B00050E060E070E085EF91E00C94190CF89446
:1004C00080914F0390914F03917090934F037894D4
:1004D00085950895F89490914C03892390914C034D
:1004E000982790934C0378940895F89490914D0335
:1004F000892390914D03982790934D037894089504
:1005000090914E0389230895F89490914E0390950D
:1005100089230C946A020E9475020C946A02CF939C
:10052000DF93EC010E945F02209147033091480362
:10053000280F311D87FD3A953093480320934703D8
:10054000CE01DF91CF9108950F931F93CF93DF9347
:10055000CDB7DEB72A970FB6F894DEBF0FBECDBF7A
:1005600080917C028F9380917B028F9380917E0299
:100570008F9380917D028F9380E092E09F938F9381
:100580008E010F5F1F4F1F930F930E94120F45E0C4
:1005900050E065E070E0C8010E94250B8091520395
:1005A000909153030FB6F894DEBF0FBECDBF0097F6
:1005B00039F444E150E065E070E088E092E01CC06E
:1005C0008130910539F444E150E065E070E08EE05F
:1005D00092E012C08230910539F444E150E065E0C8
:1005E00070E083E192E008C0039741F444E150E0F9
:1005F00065E070E089E192E00E94250B2A960FB633
:10060000F894DEBF0FBECDBFDF91CF911F910F9148
:1006100008958091520390915303009719F483E059
:1006200090E012C08130910529F41092530310928A
:1006300052030EC08230910519F481E090E004C0AD
:10064000039731F482E090E0909353038093520338
:100650000C94A4028091520390915303009719F4D3
:1006600081E090E005C08130910539F482E090E0AE
:1006700090935303809352030CC08230910519F478
:1006800083E090E0F5CF039721F41092530310928A
:1006900052030C94A402AF92BF92CF92DF92EF92DA
:1006A000FF920F931F93CF93DF93CDB7DEB7609781
:1006B0000FB6F894DEBF0FBECDBFA22E2987B32E92
:1006C0003A874B875C876D877E878F87988B680119
:1006D000870195010E94660889859A850296282FD0
:1006E0009A8389838B859C850297482F9C838B8373
:1006F0008D859E850296682F9E838D838F85988930
:10070000029798878F8386013A815C817E819885E4
:100710000E94660860960FB6F894DEBF0FBECDBF8C
:10072000DF91CF911F910F91FF90EF90DF90CF90CD
:10073000BF90AF900895CF92DF92EF92FF920F9308
:100740001F93CF93DF93CDB7DEB728970FB6F894FA
:10075000DEBF0FBECDBF6C01BC0180911E01909128
:100760001F010E94090F892B09F43EC08091580394
:10077000909159039A8389832091500330915103BA
:10078000820F931F9C838B831E821D828091560350
:100790009091570397FD01969595879598878F833C
:1007A000E12CF12C00E010E029813A814B815C8141
:1007B0006D817E8198850E944B0340915603509134
:1007C000570357FF02C04D5F5F4F559547955595AD
:1007D00047956091580370915903C6010E94250BFB
:1007E000D0921F01C0921E0128960FB6F894DEBF6A
:1007F0000FBECDBFDF91CF911F910F91FF90EF9072
:10080000DF90CF900895CF92DF92EF92FF920F93F7
:100810001F93CF93DF93CDB7DEB728970FB6F89429
:10082000DEBF0FBECDBF6C01BC0180911C01909159
:100830001D010E94090F892B09F446C080915803BD
:10084000909159039A8389832091500330915103E9
:10085000820F931F9C838B83809156039091570343
:100860009C0197FF02C02F5F3F4F35952795622F60
:100870003E832D8398878F83E12CF12C00E010E0DC
:1008800029813A814B815C817E8198850E944B034E
:10089000409156035091570357FF02C04D5F5F4F81
:1008A0005595479555954795CA01880F991F480F4B
:1008B000591F6091580370915903C6010E94250B7E
:1008C000D0921D01C0921C0128960FB6F894DEBF8D
:1008D0000FBECDBFDF91CF911F910F91FF90EF9091
:1008E000DF90CF9008952F923F924F925F926F9238
:1008F0007F928F929F92AF92BF92CF92DF92EF92B0
:10090000FF920F931F93CF93DF93CDB7DEB72A9754
:100910000FB6F894DEBF0FBECDBF0E9468090E94DB
:10092000A40280905803909059032FE7422E22E0B2
:10093000522EC12CD12C20905603309057033201F7
:10094000A12CB12CC40143969A8789879A82898207
:10095000E985FA85FC83EB833E822D82F3E12F0E3D
:10096000311C38862F8280917D0290917E028C15F9
:100970009D0539F480917B0290917C028A159B053C
:1009800029F09EE1E92E9CE3F92E04C08FE1E82EC8
:1009900088EFF82EF30180819181009719F40FEF11
:1009A0001FEF0AC08130910519F40AE916ED04C061
:1009B000029761F400E018EF29813A814B815C8154
:1009C0006D817E818F8198850E944B03FFEFAF1A66
:1009D000BF0A84E1680E711C9AE0A916B10409F0FF
:1009E000B5CF89849A84EFEFCE1ADE0AF2E04F0E7B
:1009F000511C8AE0C816D10409F09DCF2A960FB683
:100A0000F894DEBF0FBECDBFDF91CF911F910F9144
:100A1000FF90EF90DF90CF90BF90AF909F908F901E
:100A20007F906F905F904F903F902F9008958EEB46
:100A300090E09093510380935003909355038093DB
:100A4000540381E490E0909359038093580382E328
:100A500090E090935703809356030E94730443E2FF
:100A600050E065E070E08EE192E00E94250B789402
:100A7000FFCFEF92FF920F931F93CF93DF93CDB7EA
:100A8000DEB728970FB6F894DEBF0FBECDBFE3E107
:100A9000E89FA001E99F500D112420915803309147
:100AA0005903420F531FE69FD001E79FB00D112459
:100AB00020915603309157032A0F3B1F5A834983D5
:100AC0004D5E5F4F5C834B833E832D832D5E3F4F96
:100AD00038872F8320917D0230917E028217930701
:100AE00039F420917B0230917C026217730729F060
:100AF0003EE1E32E3CE3F32E04C02FE1E22E28EF8B
:100B0000F22E2AE0269FF001279FF00D1124E80F16
:100B1000F91FEE0FFF1FE158FD4F80819181009773
:100B200019F40FEF1FEF0AC08130910519F40AE99B
:100B300016ED04C0029761F400E018EF29813A81B4
:100B40004B815C816D817E818F8198850E944B03F2
:100B500028960FB6F894DEBF0FBECDBFDF91CF91C0
:100B60001F910F91FF90EF9008956AE00E947A0C18
:100B7000892F0895682F70E080E090E00E94B60D04
:100B800020E030E040E251E40E94150D0E94F30D98
:100B90000E94870D862F08959AE0699F800D112489
:100BA000089560917B0270917C0280917D0290910A
:100BB0007E022AE0269FF001279FF00D1124E80F06
:100BC000F91FEE0FFF1FE158FD4F21E030E03183A8
:100BD00020830C94390560917B0270917C02809196
:100BE0007D0290917E022AE0269FF001279FF00D62
:100BF0001124E80FF91FEE0FFF1FE158FD4F22E00F
:100C000030E0318320830C943905CF93282F6AE09C
:100C10000E947A0CC92F822F0E94BA0540E251E04F
:100C200061E070E020E030E0FA01E20FF31F019094
:100C3000F081E02D319731F02C5E3F4F283C31059B
:100C400099F702C060E070E04E5F5F4F91E044337F
:100C5000590741F76130710549F40E94680985E23E
:100C600092E00E949B038AE790E013C09AE0899F7C
:100C7000F0011124EC0FF11DEE0FFF1FE05EFE4F9F
:100C800080819181019719F089E790E002C088E79F
:100C900090E0CF9108959AE0699FB0011124FB0183
:100CA000E80FF11DEE0FFF1FE158FD4F8081089501
:100CB0000E9468098EE292E00C949B03AF92BF926F
:100CC000CF92DF92EF92FF920F931F93CF93DF9318
:100CD0006C018091E8019091E901009709F0E2C070
:100CE00086E392E00E949B032F9884E00E946A02B0
:100CF000882329F100917D0210917E02C0917B0230
:100D0000D0917C02CE01019797FD05C090937C02A3
:100D100080937B0204C010927C0210927B020E949E
:100D2000A402BE01C8010E94390560917B02709146
:100D30007C0280917D0290917E020E94390588E0BC
:100D40000E946A02882319F1C0917D02D0917E022F
:100D500000917B0210917C02CE0101968A309105B0
:100D600014F089E090E090937E0280937D020E94CF
:100D7000A402B801CE010E94390560917B027091F6
:100D80007C0280917D0290917E020E94390580E173
:100D90000E946A02882319F100917D0210917E025F
:100DA000C0917B02D0917C02CE0101968A309105E0
:100DB00014F089E090E090937C0280937B020E9483
:100DC000A402BE01C8010E94390560917B027091A6
:100DD0007C0280917D0290917E020E94390580E222
:100DE0000E946A02882329F1C0917D02D0917E027F
:100DF00000917B0210917C02CE01019797FD05C006
:100E000090937E0280937D0204C010927E02109225
:100E10007D020E94A402B801CE010E9439056091B2
:100E20007B0270917C0280917D0290917E020E94F3
:100E3000390580E80E948402882309F473C08091F8
:100E40007B0290917C024AE0489F9001499F300DBF
:100E5000112480917D0290917E02820F931F0E9447
:100E6000C0010E94D001883741F487E492E00E94DB
:100E7000030488E70E94EB0509C0893771F480E517
:100E800092E00E94030489E70E94D10581E090E08E
:100E90009093E9018093E80145C08A3711F70E94D9
:100EA0005806DFCF019709F052C02F9A8AE592E0E9
:100EB0000E949B030E94D001B82E6AE00E947A0C27
:100EC000C92FD0E081E090E02AE0A22E02E010E0FD
:100ED0000097E9F123E62B15D8F38B2D0E94050628
:100EE0007C018B2D0E94BA05FE01A89EE00DF11D2C
:100EF0001124EE0FFF1FE05EFE4F11830083C70138
:100F00000E94C0018AE7E816F10429F41093E90170
:100F10000093E80104C01092E9011092E80180E01A
:100F200090E0D6CF0E945F0290917A0298173CF42D
:100F30000E945F0280937A020E942A0308C08917E8
:100F400034F40E945F0280937A020E940903C60172
:100F5000DF91CF911F910F91FF90EF90DF90CF9095
:100F6000BF90AF90089593E89093B00091E0909374
:100F7000B1008093B300089590935F0380935E0364
:100F800026E330E020930040009779F480EF90E072
:100F900090935B0380935A0380E491E090935D0308
:100FA00080935C0388E490E034C08130910579F44B
:100FB00080E491E090935B0380935A0380EF90E08C
:100FC00090935D0380935C0388EE90E022C08230B2
:100FD000910579F480EF90E090935B0380935A033E
:100FE00080E491E090935D0380935C0388E890E057
:100FF00010C0039781F480E491E090935B038093A9
:101000005A0380EF90E090935D0380935C0388E245
:1010100090E0809300418AE290E08093004020E0DD
:1010200030E0309300412093004180915A03909129
:101030005B03019790930041809300418BE290E025
:1010400080930040309300412093004180915C03E5
:1010500090915D0301979093004180930041089522
:10106000CF93873748F4883048F08D3350F48F3170
:1010700050F4803150F403C086E703C088E0C3E039
:1010800005C0C0E003C0C1E001C0C2E021EB30E018
:1010900020930040C0930041682F70E080E090E012
:1010A0000E94B80D9B01AC0160E070E080EF94E419
:1010B0000E94150D0E94870D70E002C0759567951E
:1010C000CA95E2F760930041CF9108950F931F9363
:1010D000CF93DF93CDB7DEB728970FB6F894DEBF76
:1010E0000FBECDBF29833A834B835C836D837E83A0
:1010F0008F83988769817A812B813C814D815E81C4
:101100008F819885EAE2F0E0E0930040709300411F
:10111000609300413093004120930041EBE2F0E006
:10112000E093004050930041409300419093004170
:1011300080930041ECE2F0E0E09300402F5F3F4FEE
:10114000261B370B0196841B950B2817390790F443
:10115000482F4770429FB001439F700D112453E008
:10116000969587955A95E1F7829FA001839F500D30
:10117000112411C0422F4770489FB001499F700D44
:10118000112443E0369527954A95E1F7289FA00161
:10119000299F500D1124862F8770815028F01093BD
:1011A000004100930041F9CFCB0123E0969587954C
:1011B0002A95E1F7840F951F019708F110930041DC
:1011C00000930041109300410093004110930041AF
:1011D000009300411093004100930041109300419F
:1011E000009300411093004100930041109300418F
:1011F000009300411093004100930041DDCF2896F9
:101200000FB6F894DEBF0FBECDBFDF91CF911F9117
:101210000F910895EF92FF920F931F93CF93DF9357
:10122000CDB7DEB728970FB6F894DEBF0FBECDBF9F
:1012300029833A834B835C836D837E838F83988776
:1012400089819A81EB80FC806D817E81AF81B88538
:101250002AE230E0209300409093004180930041C7
:10126000F0920041E09200412BE230E020930040F8
:101270007093004160930041B0930041A0930041FE
:101280002CE230E020930040E816F906A0F0A80117
:101290009B018A01A217B30760F04E5F5F4FF80110
:1012A0000081118110930041009300412F5F3F4F57
:1012B000F0CF0196E9CF28960FB6F894DEBF0FBEA7
:1012C000CDBFDF91CF911F910F91FF90EF900895C7
:1012D0000F931F93CF93DF93CDB7DEB728970FB649
:1012E000F894DEBF0FBECDBFEAE5F3E017821682A9
:1012F000118610861A821982808191810197482F68
:101300009C838B831E821D828281938101979887A3
:101310008F830485158520E03A815C8160E07E81C1
:1013200098850E94660828960FB6F894DEBF0FBE17
:10133000CDBFDF91CF911F910F91089586E08093EB
:10134000750080E8809374003F9A249A8FEC97E0B0
:101350000197F1F700C0000047988FE39CE90197DF
:10136000F1F700C00000479A9FEF2DEE82E0915008
:1013700020408040E1F700C0000088E290E08093C8
:10138000004081E190E0809300409FEF26E781E0FC
:10139000915020408040E1F700C0000021E030E0A3
:1013A0008BEC90E0809300402093004180EC90E033
:1013B0008093004088E096E2909300418093004142
:1013C00020E130E081EC90E08093004020930041E8
:1013D00085EC90E0809300408EE395E3909300418C
:1013E0008093004125EB30E087EC90E08093004053
:1013F0002093004121E030E086EF90E080930040B0
:101400002093004180E090E0909300418093004160
:1014100025E530E08AE390E080930040209300418E
:1014200081E090E00E94BC070E946809EAE5F3E0D1
:101430001782168211861086158614868FEF9FEF0D
:101440009387828789E290E0809300409FE728E3BA
:1014500081E0915020408040E1F700C0000020E092
:1014600030E085E390E08093004020930041EAE67D
:10147000F0E08081806280832C9A08959F92AF92E1
:10148000BF92CF92DF92EF92FF920F931F93CF9371
:10149000DF9320916203309163038A30F9F4109254
:1014A000610310926003285F3F4F309363032093E2
:1014B000620380915C0390915D032817390708F45B
:1014C000A5C0DF91CF911F910F91FF90EF90DF901A
:1014D000CF90BF90AF909F900C94680990EE980FBA
:1014E0009F3508F093C06091600370916103A9017A
:1014F000495F5F4F082E000C990B8097E5E0E89F4D
:10150000E001E99FD00D11248BE290E08093004030
:10151000309300412093004150930041409300419B
:10152000CB01DB0114960AE210E0ECE2EE2EF12C86
:10153000A817B90780F10093004090930041809371
:1015400000419093004180930041E0920040FC01F3
:10155000E61BF70BEC0FFD1FE856FF4F9490690157
:10156000F1E04C155D05A8F0BF2EB92029F0A09040
:101570006403B090650304C0A0906603B090670355
:10158000B0920041A0920041EFEFCE1ADE0AFF0FA9
:10159000E8CF0196CDCF6AE270E06093004090936F
:1015A00000418093004190930041809300418CE280
:1015B00090E0809300404217530758F080916603F3
:1015C0009091670390930041809300412F5F3F4FBC
:1015D000F2CF80916003909161030696909361032E
:1015E0008093600320915A0330915B038217930725
:1015F00068F01092610310926003809162039091F1
:10160000630308969093630380936203DF91CF9105
:101610001F910F91FF90EF90DF90CF90BF90AF9010
:101620009F9008950F931F93CF938C01C0E0F80112
:10163000EC0FF11D8081882321F00E943E0ACF5FCC
:10164000F6CFCF911F910F9108950F931F93CF93D2
:101650008C01709361036093600350936303409324
:101660006203C0E0F801EC0FF11D8081882321F0B6
:101670000E943E0ACF5FF6CFCF911F910F91089540
:10168000EF92FF920F931F93CF93DF93C0E0D0E0D0
:1016900090E8E92EF12C082F10E0C7010C2E02C0B3
:1016A000959587950A94E2F780239123892B11F071
:1016B00081E301C08EE20E943E0A2196C830D10526
:1016C00061F7DF91CF911F910F91FF90EF900895F7
:1016D0001F920F920FB60F9211240BB60F92CF925A
:1016E000DF92EF92FF920F931F932F933F934F93AD
:1016F0005F936F937F938F939F93AF93BF93CF939A
:10170000DF93EF93FF9310E00DE0DD24D394CC241E
:10171000CA94E12EF12C8091F501082E000C990B52
:101720008E159F050CF457C00E9DE0010F9DD00D46
:101730001124C859DC4F4D815E816F817885898184
:101740009A81AB81BC81481759076A077B0778F1FA
:10175000E0914B03F0E0E651FE4F8081181738F519
:101760008881811124C0F8941D821E821F821886F0
:10177000D882E0914B03EF5FE0934B03F0E0E6513A
:10178000FE4F10837894E985FA858B859C850995B1
:101790009C878B87F894188280914B03E82FF0E0A8
:1017A000E651FE4FC082815080934B0378940E9D8A
:1017B000F0010F9DF00D1124E859FC4F85819681B1
:1017C000A781B0850196A11DB11D85839683A7834E
:1017D000B0871F5F9ECFFF91EF91DF91CF91BF91B7
:1017E000AF919F918F917F916F915F914F913F91B9
:1017F0002F911F910F91FF90EF90DF90CF900F905E
:101800000BBE0F900FBE0F901F90189583E884BDFC
:1018100085B5836085BD81E080936E0016BC8FEF37
:1018200087BD0895882319F087BD279A08952798C2
:101830000895EF92FF920F931F93CF93DF937C0154
:10184000C091F5010C2E000CDD0B2196CA30D1059C
:101850005CF58901CB01BA010E94B60D25E732E0A3
:101860004AEF5EE30E949C0E20E030E040E05FE340
:101870000E94A90C0E94870D2DE02C9FF0012D9F46
:10188000F00D1124E859FC4F6183728383839483A4
:1018900065837683878390871082F286E18614873A
:1018A0000387C093F50102C0CFEFDFEFCE01DF91D8
:1018B000CF911F910F91FF90EF9008950E948D019D
:1018C00080E895E20E949A0121E030E044EF51E087
:1018D00060E070E08FE892E00E94190C21E030E0B7
:1018E00044E650E060E070E08EE596E00E94190C5E
:1018F0000E941705991B79E004C0991F961708F0FC
:10190000961B881F7A95C9F780950895A1E21A2E33
:10191000AA1BBB1BFD010DC0AA1FBB1FEE1FFF1F93
:10192000A217B307E407F50720F0A21BB30BE40BE3
:10193000F50B661F771F881F991F1A9469F760952A
:101940007095809590959B01AC01BD01CF010895E4
:101950005058BB27AA270E94C00C0C944A0E0E9424
:101960003C0E38F00E94430E20F039F49F3F19F4EA
:1019700026F40C94390E0EF4E095E7FB0C940A0E55
:10198000E92F0E945B0E58F3BA17620773078407AA
:10199000950720F079F4A6F50C94950E0EF4E095D9
:1019A0000B2EBA2FA02D0B01B90190010C01CA0119
:1019B000A0011124FF27591B99F0593F50F4503EC4
:1019C00068F11A16F040A22F232F342F4427585FB6
:1019D000F3CF469537952795A795F0405395C9F7CE
:1019E0007EF41F16BA0B620B730B840BBAF0915086
:1019F000A1F0FF0FBB1F661F771F881FC2F70EC025
:101A0000BA0F621F731F841F48F4879577956795F7
:101A1000B795F7959E3F08F0B0CF9395880F08F0E3
:101A20009927EE0F9795879508950E94290D0C949C
:101A30004A0E0E94430E58F00E943C0E40F029F4DA
:101A40005F3F29F00C940A0E51110C94960E0C94E1
:101A5000390E0E945B0E68F39923B1F3552391F37D
:101A6000951B550BBB27AA2762177307840738F00D
:101A70009F5F5F4F220F331F441FAA1FA9F335D06A
:101A80000E2E3AF0E0E832D091505040E695001C1E
:101A9000CAF72BD0FE2F29D0660F771F881FBB1FD8
:101AA000261737074807AB07B0E809F0BB0B802DB6
:101AB000BF01FF2793585F4F3AF09E3F510578F0E2
:101AC0000C940A0E0C94960E5F3FE4F3983ED4F308
:101AD000869577956795B795F7959F5FC9F7880FB6
:101AE000911D9695879597F90895E1E0660F771F08
:101AF000881FBB1F621773078407BA0720F0621B99
:101B0000730B840BBA0BEE1F88F7E09508950E94C3
:101B1000630E88F09F5798F0B92F9927B751B0F00E
:101B2000E1F0660F771F881F991F1AF0BA95C9F761
:101B300014C0B13091F00E94950EB1E008950C945C
:101B4000950E672F782F8827B85F39F0B93FCCF30F
:101B5000869577956795B395D9F73EF490958095DE
:101B6000709561957F4F8F4F9F4F0895E89409C0FE
:101B700097FB3EF490958095709561957F4F8F4FC0
:101B80009F4F9923A9F0F92F96E9BB279395F695D6
:101B9000879577956795B795F111F8CFFAF4BB0F54
:101BA00011F460FF1BC06F5F7F4F8F4F9F4F16C0B8
:101BB000882311F096E911C0772321F09EE8872F42
:101BC000762F05C0662371F096E8862F70E060E0FE
:101BD0002AF09A95660F771F881FDAF7880F969577
:101BE000879597F908950E947D0E90F09F3748F4ED
:101BF000911116F00C94960E60E070E080E89FEB77
:101C0000089526F41B16611D711D811D0C94100E84
:101C10000C942B0E97F99F6780E870E060E00895C0
:101C2000882371F4772321F09850872B762F07C0F3
:101C3000662311F499270DC09051862B70E060E067
:101C40002AF09A95660F771F881FDAF7880F969506
:101C5000879597F908959F3F31F0915020F487952B
:101C600077956795B795880F911D9695879597F904
:101C700008959FEF80EC089500240A941616170625
:101C800018060906089500240A941216130614066D
:101C900005060895092E0394000C11F4882352F0D0
:101CA000BB0F40F4BF2B11F460FF04C06F5F7F4F88
:101CB0008F4F9F4F089557FD9058440F551F59F06F
:101CC0005F3F71F04795880F97FB991F61F09F3F29
:101CD00079F087950895121613061406551FF2CF52
:101CE0004695F1DF08C0161617061806991FF1CFA2
:101CF000869571056105089408950E94630EA0F011
:101D0000BEE7B91788F4BB279F3860F41616B11DDB
:101D1000672F782F8827985FF7CF869577956795F7
:101D2000B11D93959639C8F30895E894BB276627AB
:101D30007727CB0197F908950E94AF0E0C944A0EB5
:101D40000E943C0E38F00E94430E20F0952311F0C3
:101D50000C940A0E0C94390E11240C94960E0E94C9
:101D60005B0E70F3959FC1F3950F50E0551F629F76
:101D7000F001729FBB27F00DB11D639FAA27F00DE4
:101D8000B11DAA1F649F6627B00DA11D661F829F0B
:101D90002227B00DA11D621F739FB00DA11D621FF0
:101DA000839FA00D611D221F749F3327A00D611D0D
:101DB000231F849F600D211D822F762F6A2F1124EF
:101DC0009F5750409AF0F1F088234AF0EE0FFF1F22
:101DD000BB1F661F771F881F91505040A9F79E3F79
:101DE000510580F00C940A0E0C94960E5F3FE4F3BC
:101DF000983ED4F3869577956795B795F795E795CF
:101E00009F5FC1F7FE2B880F911D9695879597F9D7
:101E10000895FB01DC018D91019080190110D9F327
:101E2000990B08950F931F93CF93DF93CDB7DEB730
:101E30002E970FB6F894DEBF0FBECDBF0D891E8959
:101E400086E08C831A8309838FEF9FE79E838D83BF
:101E5000AE01475E5F4F6F89788DCE0101960E947B
:101E6000410FEF81F885E00FF11F10822E960FB61B
:101E7000F894DEBF0FBECDBFDF91CF911F910F91C0
:101E800008952F923F924F925F926F927F928F921E
:101E90009F92AF92BF92CF92DF92EF92FF920F93F9
:101EA0001F93CF93DF93CDB7DEB72B970FB6F89480
:101EB000DEBF0FBECDBF6C017B018A01FC01178222
:101EC0001682838181FFCCC1CE0101963C01F601CF
:101ED0009381F70193FD859193FF81917F01882381
:101EE00009F4BAC1853239F493FD859193FF81914C
:101EF0007F01853229F4B60190E00E946111E7CF9D
:101F0000912C212C312CFFE1F315D8F08B3279F094
:101F100038F4803279F08332A1F4232D20611DC082
:101F20008D3261F0803369F4232D216016C0832D3A
:101F30008260382EE32DE4603E2E2AC0F32DF86037
:101F40001DC037FC2DC020ED280F2A3040F08E3206
:101F5000B9F436FC81C1232D2064322E19C036FE1F
:101F600006C08AE0989E200D1124922E11C0EAE04E
:101F70002E9E200D1124222EF32DF0623F2E08C03C
:101F80008C3621F4832D8068382E02C0883641F4C7
:101F9000F70193FD859193FF81917F018111B3CF6B
:101FA000982F9F7D9554933028F40C5F1F4F9FE32B
:101FB00099830DC0833631F0833771F0833509F092
:101FC00059C021C0F801808189830E5F1F4F88248A
:101FD0008394912C530113C02801F2E04F0E511C41
:101FE000F801A080B18036FE03C0692D70E002C008
:101FF0006FEF7FEFC5010E9456114C018201F32D56
:10200000FF773F2E16C0280122E0420E511CF80136
:10201000A080B18036FE03C0692D70E002C06FEF72
:102020007FEFC5010E944B114C01F32DF0683F2E4C
:10203000820133FC1BC0822D90E088169906B0F413
:10204000B60180E290E00E9461112A94F4CFF5017C
:1020500037FC859137FE81915F01B60190E00E94C7
:10206000611121102A9421E0821A910881149104AF
:1020700071F7E8C0843611F0893641F5F80137FE72
:1020800007C060817181828193810C5F1F4F08C0FE
:1020900060817181072E000C880B990B0E5F1F4F1A
:1020A000F32DFF763F2E97FF09C090958095709590
:1020B00061957F4F8F4F9F4FF0683F2E2AE030E0B1
:1020C000A3010E949D11882E861845C0853731F4E2
:1020D000232D2F7EB22E2AE030E025C0932D997F4C
:1020E000B92E8F36C1F018F4883579F0B5C0803735
:1020F00019F0883721F0B0C0E92FE061BE2EB4FEA0
:102100000DC0FB2DF460BF2E09C034FE0AC0292F7C
:102110002660B22E06C028E030E005C020E130E0A5
:1021200002C020E132E0F801B7FE07C06081718192
:10213000828193810C5F1F4F06C06081718180E0B6
:1021400090E00E5F1F4FA3010E949D11882E8618FC
:10215000FB2DFF773F2E36FE0DC0232D2E7FA22EA6
:10216000891458F434FE0BC032FC09C0832D8E7ED6
:10217000A82E05C0B82CA32C03C0B82C01C0B92CC4
:10218000A4FE0FC0FE01E80DF11D8081803321F413
:102190009A2D997EA92E09C0A2FE06C0B394B394CD
:1021A00004C08A2D867809F0B394A3FC11C0A0FE68
:1021B00006C0B21488F4280C922C9B180EC0B214DE
:1021C00060F4B60180E290E00E946111B394F7CF11
:1021D000B21418F42B1802C0982C212CA4FE10C0A5
:1021E000B60180E390E00E946111A2FE17C0A1FC3D
:1021F00003C088E790E002C088E590E0B6010CC01B
:102200008A2D867859F0A1FE02C08BE201C080E2DF
:10221000A7FC8DE2B60190E00E946111891438F4A8
:10222000B60180E390E00E9461119A94F7CF8A94FE
:10223000F301E80DF11D8081B60190E00E9461116B
:102240008110F5CF222009F442CEB60180E290E061
:102250000E9461112A94F6CFF6018681978102C00F
:102260008FEF9FEF2B960FB6F894DEBF0FBECDBF5A
:10227000DF91CF911F910F91FF90EF90DF90CF9062
:10228000BF90AF909F908F907F906F905F904F9096
:102290003F902F900895FC0105906150704001100F
:1022A000D8F7809590958E0F9F1F0895FC0161507F
:1022B000704001900110D8F7809590958E0F9F1F68
:1022C00008950F931F93CF93DF93FB01238121FD8B
:1022D00003C08FEF9FEF2CC022FF16C046815781AD
:1022E000248135814217530744F4A081B1819D01B7
:1022F0002F5F3F4F318320838C93268137812F5F5F
:102300003F4F3783268314C08B01EC01FB0100840F
:10231000F185E02D0995892BE1F6D80116968D916E
:102320009C911797019617969C938E931697CE01C2
:10233000DF91CF911F910F910895FA01AA272830BC
:1023400051F1203181F1E8946F936E7F6E5F7F4F82
:102350008F4F9F4FAF4FB1E03ED0B4E03CD0670FFE
:10236000781F891F9A1FA11D680F791F8A1F911D51
:10237000A11D6A0F711D811D911DA11D20D009F4A1
:1023800068943F912AE0269F11243019305D3193E3
:10239000DEF6CF010895462F4770405D4193B3E0CC
:1023A0000FD0C9F7F6CF462F4F70405D4A3318F073
:1023B000495D31FD4052419302D0A9F7EACFB4E024
:1023C000A6959795879577956795BA95C9F70097DC
:1023D0006105710508959B01AC010A2E069457957D
:1023E000479537952795BA95C9F7620F731F841FD4
:0A23F000951FA01D0895F894FFCF7B
:1023FA00000000010000000000006D010000000064
:10240A000002000000005B010000000046024602D4
:10241A0000000000000000000000000000000000B2
:10242A0000000000000000000000000000000000A2
:10243A000100010000000000000000000000000090
:10244A000000000000000000000000000000000082
:10245A000000000000000000000000000000000072
:10246A000000000000000000000000000000000062
:10247A000000000000000000000000000000000052
:10248A000000000000000000000000000000000042
:10249A000000000000000000000000000000000032
:1024AA000000000000000000000000000000000022
:1024BA000000000000000000000000000000000012
:1024CA000000000000000000000000000000000002
:1024DA0000000000000000000100FF0000000000F2
:1024EA000000000000FF0A0013001300FF000000B4
:1024FA002825642C256429004E6F72746800456192
:10250A00737400536F757468005765737400506C68
:10251A006179203100596F75206C6F737400596F9F
:10252A007520776F6E00497420697320796F757210
:10253A00207475726E2100476F74206869742100D7
:10254A00476F74206D697373210057616974696EEE
:10255A006720666F72206F7468657220706C61798B
:06256A0065722E2E2E000A
:00000001FF
